:020000040800F2
:100000001075002081020008713B0008A926000835
:100010006D3B0008B10300085942000800000000D1
:10002000000000000000000000000000C101000806
:1000300013050008000000001D020008BB3B00087B
:100040009B0200089B0200089B0200089B0200081C
:100050009B0200089B0200089B0200089B0200080C
:100060009B020008150500089B0200089B0200087F
:10007000B5030008C5030008D5030008E503000820
:10008000F5030008050400089B0200089B02000815
:100090009B0200089B0200089B0200081F05000845
:1000A0009B0200089B0200089B0200089B020008BC
:1000B0009B0200089B0200089B0200089B020008AC
:1000C0009B020008BD260008AD2600089B02000820
:1000D0009B0200089B0200082942000839420008E0
:1000E0009B0200089B0200089B0200089B0200087C
:1000F0009B0200089B0200089B0200089B0200086C
:100100009B0200089B0200089B0200089B0200085B
:10011000AD3C00089B0200089B0200089B020008FF
:100120009B020008150400089B0200089B020008BF
:100130009B0200089B0200089B0200089B0200082B
:100140009B0200089B0200089B0200089B0200081B
:100150009B020008250400089B0200084942000891
:100160009B0200089B0200089B0200089B020008FB
:100170009B0200089B0200089B0200080000000090
:100180009B0200089B020008BD3C0008CD3C000813
:100190009B0200089B0200089B0200089B020008CB
:1001A0009B0200089B0200089B020008DFF80CD0AD
:1001B00000F0ECF800480047C54200081075002028
:1001C0002C4B19680868B0E8F04F80F30988BFF33A
:1001D0006F8F4FF0000080F311887047000000001F
:1001E00008480068006880F308884FF0000080F33A
:1001F000148862B661B6BFF34F8FBFF36F8F00DF15
:1002000000BF00BF08ED00E0DFF80C00016841F41A
:1002100070010160704700BF88ED00E0EFF30980D6
:10022000BFF36F8F134B1A681EF0100F08BF20ED3D
:10023000108A20E9F04F106009B44FF0500080F3AD
:100240001188BFF34F8FBFF36F8F05F053F94FF055
:10025000000080F3118809BC19680868B0E8F04F05
:100260001EF0100F08BFB0EC108A80F30988BFF3AE
:100270006F8F70471C000020EFF30580704700006F
:100280000648804706480047FEE7FEE7FEE7FEE730
:10029000FEE7FEE7FEE7FEE7FEE7FEE7913C00082B
:1002A000AD0100082DE9F05F0546002092469B460F
:1002B00088460646814640241BE02846414647467C
:1002C000224600F053F853465A46C01A914110D3C3
:1002D00011461846224600F03AF82D1A67EB01083D
:1002E0004F4622460120002100F031F817EB0009AB
:1002F0004E41201EA4F10104DFDC484631462A4667
:100300004346BDE8F09F40EA01039B0703D009E0A4
:1003100008C9121F08C0042AFAD203E011F8013BF1
:1003200000F8013B521EF9D27047D2B201E000F84A
:10033000012B491EFBD270470022F6E710B5134689
:100340000A4604461946FFF7F0FF204610BD202A52
:1003500004DB203A00FA02F1002070479140C2F11C
:10036000200320FA03F3194390407047202A04DB4E
:10037000203A21FA02F00021704721FA02F3D0401E
:10038000C2F120029140084319467047064C074DC0
:1003900006E0E06840F0010394E807009847103455
:1003A000AC42F6D3FFF706FF14630008346300087D
:1003B00000BFFEE710B5024800F0FAF810BD0000DB
:1003C0001805002010B5024800F0F2F810BD00003A
:1003D0003803002010B5024800F0EAF810BD000014
:1003E000B804002010B5024800F0E2F810BD00008B
:1003F0009803002010B5024800F0DAF810BD0000A4
:10040000F803002010B5024800F0D2F810BD00003B
:100410005804002010B5024800F0CAF810BD0000D2
:100420007805002010B5024800F0C2F810BD0000A9
:10043000D80500200146087810381823B0FBF3F2E5
:100440000848805CC865032A05D908686FF309006D
:10045000001D886503E008686FF309008865886DF2
:1004600070470000E8620008014600208A6A8B6934
:10047000CBB932B1012A0DD0022A03D0032A10D100
:100480000EE000BFCB6A03F08073B3F1807F00D130
:10049000012007E0CB6AB3F1C07F00D1012001E069
:1004A00000E000BF34E08B69B3F5005F1AD132B1D0
:1004B000012A07D0022A03D0032A11D10AE000BF83
:1004C00001200EE0CB6A03F08073B3F1807F00D18E
:1004D000012006E0CB6AB3F1C07F00D1012000E02B
:1004E00000BF15E032B1012A05D0022A04D0032A48
:1004F0000CD103E000BF00BF012008E0CB6A03F08D
:100500008073B3F1807F00D1012000E000BF00BF05
:100510007047704710B5082000F0E2F910BD10B523
:100520004FF4007000F0DCF910BD704710B50446C0
:100530000CB9012010BD607920B90020207120463F
:1005400000F004F8012060710020F3E708B50A4AC2
:10055000016891420FD100BF00210091074909684D
:1005600041F48051054A11601146096801F4805137
:10057000009100BF00BF08BD00300240303802408B
:10058000014691F83500022803D0802048650120FB
:100590007047052081F835000868006820F00100E8
:1005A0000A6810600020F3E7014691F835007047B3
:1005B000F8B50446002000908C4800684FF41651AE
:1005C000B0FBF1F7A56D2E6894F85C100820884008
:1005D000304098B12068006800F0040070B12068D5
:1005E000006820F004002168086094F85C1008207E
:1005F0008840A860606D40F00100606594F85C1070
:1006000001208840304068B12068406900F08000D7
:1006100040B194F85C1001208840A860606D40F003
:100620000200606594F85C1004208840304068B196
:100630002068006800F0020040B194F85C100420CB
:100640008840A860606D40F00400606594F85C101C
:1006500010208840304078B32068006800F008001F
:1006600050B394F85C1010208840A860206800689F
:1006700000F4802080B12068006800F4002028B9D0
:10068000206CC8B12046216C884715E0A06C98B159
:100690002046A16C88470FE02068006800F4807055
:1006A00028B92068006820F0080021680860206CE4
:1006B00010B12046216C884794F85C1020208840B7
:1006C0003040002865D02068006800F01000002845
:1006D0005FD094F85C1020208840A86094F8350022
:1006E000052828D12068006820F0160021680860DD
:1006F0002068406920F0800021684861206C08B9BA
:10070000A06C28B12068006820F00800216808600B
:1007100094F85C103F208840A86000BF002084F857
:10072000340000BF012084F83500206D10B1204650
:10073000216D8847F8BD2068006800F4802080B1F2
:100740002068006800F4002028B9606C10B12046D1
:10075000616C88471DE0E06BD8B12046E16B8847AB
:1007600017E02068006800F4807068B920680068AD
:1007700020F010002168086000BF002084F83400D9
:1007800000BF012084F83500E06B10B12046E16B1A
:100790008847606D38B3606D00F00100F0B105204E
:1007A00084F835002068006820F0010021680860A6
:1007B00000BF0098401C0090B84200D905E02068B6
:1007C000006800F001000028F3D100BF00BF002046
:1007D00084F8340000BF012084F83500E06C10B1CB
:1007E0002046E16C884700BFA4E700001800002005
:1007F0002DE9F0410446002500F094F9074614B9AC
:100800000120BDE8F081606A00B100BF00BF002098
:1008100084F8340000BF022084F8350020680068A6
:1008200020F00100216808600AE000F07BF9C01B9D
:10083000052805D920206065032084F83500E0E70D
:100840002068006800F001000028EED120680568EB
:1008500021480540D4E901010843E16808432169C2
:10086000084361690843A1690843E1690843216AB3
:1008700008430543606A042803D1D4E90B01084307
:100880000543206805602068456925F00705606A12
:100890000543606A04280DD1A06A0543E06A48B1A7
:1008A0002046FFF7E1FD28B140206065012084F873
:1008B0003500A6E7206845612046FFF7BBFD0646E8
:1008C00094F85C103F208840B060002060650120F3
:1008D00084F83500002094E73F8010F07047000056
:1008E00010B5044604480068204020B10248046066
:1008F0002046FFF7F3FF10BD143C0140F8B5024657
:100900000B460025002400200021E6E0012606FA1F
:1009100001F51E6806EA0504AC4273D15E68012E3B
:1009200008D05E68022E05D05E68112E02D05E6887
:10093000122E13D190684F000326BE40B0434F00E3
:10094000DE68BE4030439060506801268E40B04360
:100950001E79C6F300168E4030435060D0684F00B9
:100960000326BE40B0434F009E68BE403043D06077
:100970005E68022E02D05E68122E13D1CF0802F1FB
:10098000200656F827004E07F70E0F26BE40B0434C
:100990004F07FF0E1E69BE403043CF0802F120060C
:1009A00046F8270010684F000326BE40B0431E796A
:1009B00006F003064F00BE40304310605E6806F04C
:1009C0008056B6F1805FA8D100BF00260096454E44
:1009D000366846F48046434F3E603E46366806F42D
:1009E0008046009600BF00BF3F4E8F0856F8270094
:1009F0008E07370F0F26BE40B0433C4EB24202D1A5
:100A000000262EE068E03A4EB24201D1012628E0ED
:100A1000384EB24201D1022623E0374EB24201D114
:100A200003261EE0354EB24201D1042619E0344EB1
:100A3000B24201D1052614E0324EB24201D106265F
:100A40000FE0314EB24201D107260AE02F4EB242EA
:100A500001D1082605E02E4EB24201D1092600E060
:100A60000A268F073F0FBE4030431F4E8F0846F8BF
:100A70002700284E3068A0435E6806F48036B6F53D
:100A8000803F00D12043234E3060361D3068A043A4
:100A90005E6806F40036B6F5003F00D120431D4ED7
:100AA000361D3060361D3068A0435E6806F480163F
:100AB000B6F5801F00D12043164E08363060361D33
:100AC0003068A0435E6806F40016B6F5001F00D13A
:100AD0002043104E0C363060491C1029FFF416AF2D
:100AE000F8BD0000443802400838014000000240D0
:100AF0000004024000080240000C024000100240C6
:100B00000014024000180240001C02400020024075
:100B100000240240003C01400AB1816101E00B0465
:100B20008361704701480068704700000C00002096
:100B3000024692F83D0020281ED1242082F83D0074
:100B40001068006820F00100136818601068406A9F
:100B500020F01000136858621068406A0843136858
:100B600058621068006840F0010013681860202087
:100B700082F83D00002070470220FCE710B50246D5
:100B80000B46002192F83D0020281DD1242082F838
:100B90003D001068006820F00100146820601068B3
:100BA000406A81B221F00F0141EA030081B210686E
:100BB00041621068006840F0010014682060202045
:100BC00082F83D00002010BD0220FCE7704770470E
:100BD0002DE9F84F0446206847692068D0F8048062
:100BE000002594F83E90C7F3002040B1C8F30020E0
:100BF00028B145F001056FF4807021684861C7F3A2
:100C0000402040B1C8F3002028B145F002056FF440
:100C1000007021684861C7F3802070B3C8F30020DA
:100C200058B3CA46B4F82AB094F83D60206B0090DF
:100C3000BAF1200F0FD1BBF1000F0CD1212E06D03D
:100C4000292E04D0282E06D10098212803D1204631
:100C500002F084FA11E06FF480602168486145F089
:100C60000405B9F1100F02D0B9F1400F05D1206889
:100C7000006840F4007021680860C7F3C02040B1EC
:100C8000C8F3002028B145F008056FF40060216822
:100C900048612DB1206C28432064204601F07AFD84
:100CA000BDE8F88F2DE9F04705460027286846681B
:100CB000D5F82C8095F83E9095F83DA0B9F1100F2D
:100CC00002D0B9F1400F78D1286887692868446953
:100CD00004F0010060B9B8F52A0F02D0B8F12A4F2C
:100CE00001D1012000E00020012801D1BDE8F087FA
:100CF00004F0010048B1C6F3402030B1284601F0AD
:100D0000E5FC284602F00AF9ACE0C4F3C00030B1BB
:100D1000C6F3402018B1284601F0B7FFA2E0C4F3A3
:100D2000400030B1C6F3402018B1284601F0C2FFA0
:100D300098E0C7F38000F8B12868406800F40060CC
:100D4000B0F5006FE0D0C4F3C01048B1C6F3802006
:100D500030B1C4F3800018B9284601F02AFF81E0C1
:100D6000C4F3800000287DD0C6F34020002879D04D
:100D7000284601F0C6FE75E02868406800F400606F
:100D8000B0F5006F6ED0C4F3801048B1C6F3802078
:100D900030B1C4F3800018B9284601F060FE61E06C
:100DA000C4F3800000285DD0C6F34020002859D04D
:100DB000284601F0C1FD55E0FFE7286C10B1286816
:100DC000446903E02868876928684469C4F34000DF
:100DD00058B1C6F3402040B1286C08B12868876933
:100DE0003946284602F087F93CE0C4F3001030B1E0
:100DF000C6F3402018B1284602F000FA32E0BAF1FA
:100E0000210F02D0BAF1290F16D1C4F3C01048B196
:100E1000C6F3802030B1C4F3800018B9284602F030
:100E200047F91FE0C4F38000E0B1C6F34020C8B129
:100E3000284602F030F915E0C4F3801048B1C6F33B
:100E4000802030B1C4F3800018B9284602F000F9C0
:100E500008E0C4F3800028B1C6F3402010B1284652
:100E600002F0E9F800BF41E77047000070B50446A2
:100E70000CB9012070BD94F83D0028B9002084F819
:100E80003C00204600F0E0F8242084F83D00206873
:100E9000006820F00100216808602068006840F4C4
:100EA0000040216808602068006820F40040216844
:100EB000086000F03FFC05465C496068884206D83F
:100EC0005B48854201D2012007E0002005E0594837
:100ED000854201D2012000E00020012800D1C9E7AD
:100EE0005548B5FBF0F62068406820F03F003043DD
:100EF000216848604D496068884201D8701C07E04D
:100F00004FF4967070434FF47A71B0FBF1F0401CCF
:100F10002168096A21F03F010843216808624349BA
:100F20006068884214D8681E61684900B0FBF1F01F
:100F3000401CC0F30B00042801D204203DE0681ED1
:100F400061684900B0FBF1F0401CC0F30B0034E0D5
:100F5000A06838B9681E616801EB4101B0FBF1F08F
:100F6000401C0AE0681E616801EBC10202EB01113E
:100F7000B0FBF1F0401C40F48040C0F30B0008B916
:100F800001201AE0A06848B9681E616801EB4101C0
:100F9000B0FBF1F0401CC0F30B000CE0681E616870
:100FA00001EBC10202EB0111B0FBF1F0401CC0F3F8
:100FB0000B0040F4804040F400402168C9694CF6C1
:100FC000FF72914308432168C861D4E907010843CF
:100FD0002168096821F0C001084321680860D4E94C
:100FE000031008432168896848F2FF32914308439F
:100FF00021688860D4E9050108432168C96821F0A7
:10100000FF0108432168C8602068006840F00100C3
:101010002168086000202064202084F83D00002022
:10102000206384F83E0000BF24E70000A086010092
:1010300080841E0000093D0040420F007047704749
:10104000704770477047000010B586B00446142101
:1010500001A8FFF771F92349206888423FD100BFFA
:10106000002000902048006840F080001E49086081
:101070000846006800F08000009000BF00BF3020EC
:10108000019012200290012003900320049004207C
:10109000059001A91548FFF731FC00BF0020009022
:1010A00011481030006840F480000F49103108608A
:1010B0000846006800F48000009000BF00BF0022D6
:1010C0000521212000F094F8212000F081F8002271
:1010D0000521222000F08CF8222000F079F806B0DB
:1010E00010BD00000058004030380240001C024093
:1010F0007047704710B50D48006840F400700B4908
:1011000008600846006840F480600860084600688F
:1011100040F480700860032000F0A8F80F2000F071
:1011200007F800F02BF8002010BD0000003C024042
:1011300070B504460E4800784FF47A71B1FBF0F0B8
:101140000C490968B1FBF0F5284600F009FF08B129
:10115000012070BD102C07D200222146501E00F045
:1011600047F80548046001E00120F2E70020F0E7BD
:1011700014000020180000201000002008B500BF57
:10118000002000901148006840F480400F4908603A
:101190000846006800F48040009000BF00BF00BF18
:1011A00000200090081F006840F08050091F086070
:1011B0000846006800F08050009000BF00BF002289
:1011C0000F21901E00F014F808BD000044380240C2
:1011D00001460846002809DB00F01F0301229A405F
:1011E00043099B0003F1E023C3F8002100BF7047CF
:1011F0002DE9F05F80460D461646002703F02EF8D5
:10120000074639462A46334601F00700C0F1070A6F
:10121000BAF1040F02D94FF0040A01E0C0F1070A45
:10122000D14600F1040ABAF1070F02D24FF0000ACA
:1012300001E0A0F1030AD4464FF0010A0AFA09FAC4
:10124000AAF1010A0AEA020A0AFA0CFA4FF0010BA3
:101250000BFA0CFBABF1010B0BEA030B4AEA0B0494
:101260002146404603F002F8BDE8F09F00BF00F0C1
:101270000702064B19684FF6FF031940044B0B4356
:1012800043EA0221014B196000BF70470CED00E0FA
:101290000000FA05F8B5044600250026207800F085
:1012A000010048B9207800F00200022804D020781C
:1012B00000F04000402862D10020B1498866FFF765
:1012C00031FC054606E0FFF72DFC401B022801D942
:1012D0000320F8BDAB480068C0F3C0600028F2D11D
:1012E000207800F0010038B160688101207A41EA7D
:1012F0000070A44984310860207800F002000228C0
:1013000019D1A04884300068C0F30276606881017A
:10131000207B41EA006040EA06709A498431086007
:1013200098488C30006820F01F00E169491E08438E
:1013300094498C310860207800F0400040280AD1A0
:1013400060688101207B41EA0061207A41EA0070F7
:101350008C4984310860012089498866FFF7E2FBE7
:10136000054606E0FFF7DEFB401B022801D90320FB
:10137000AFE784480068C0F3C0600028F2D020784E
:1013800000F00400042804D0207800F008000828A9
:1013900063D100207A490867FFF7C4FB054606E0E1
:1013A000FFF7C0FB401B022801D9032091E77548D5
:1013B0000068C0F340700028F2D1207800F00400EB
:1013C000042819D16F4888300068C0F3027620697C
:1013D0008101207D41EA006040EA06706949883158
:1013E0000860081D006820F4F851206A401E41EA98
:1013F000002064498C310860207800F0080008283B
:1014000017D1604888300068C0F303662069800106
:1014100040EA0661207E41EA00705A49883108603E
:10142000081D006820F44030616A084355498C313A
:101430000860012052490867FFF774FB054606E083
:10144000FFF770FB401B022801D9032041E74D48FC
:101450000068C0F340700028F2D0207800F020002F
:1014600020287DD100BF0020009046484030006811
:1014700040F080504349403108600846006800F061
:101480008050009000BF00BF3F48006840F480706B
:101490003D490860FFF746FB054606E0FFF742FBC3
:1014A000401B022801D9032013E73748006800F4E5
:1014B00080700028F2D033487030006800F4407625
:1014C0004EB3208D00F44070B04224D02D487030CF
:1014D000006820F4407601202C4908600020086054
:1014E000284870300660006800F0010098B1FFF7EE
:1014F00019FB054608E0FFF715FB401B41F2883158
:10150000884201D90320E4E61E4870300068C0F329
:1015100040000028EFD000BF208D00F44070B0F5EF
:10152000407F0CD117480830006820F4F810184AA2
:10153000A16A1140084313490831086007E01148C7
:101540000830006820F4F8100E49083108600D4892
:1015500070300068218DC1F30B010843094900E098
:1015600002E07031086000BF207800F01000102801
:1015700003D194F82C00074908600020A9E6000078
:10158000000047420038024000700040400E4742D1
:10159000FFFCFF0FE011474270B504460D460CB941
:1015A000012070BD5848006800F00F00A84209D221
:1015B00055490D700846006800F00F00A84201D0A0
:1015C0000120EEE7207800F0020002281DD12078EB
:1015D00000F00400042805D14C48006840F4E050B5
:1015E0004A490860207800F00800082805D14748DB
:1015F000006840F46040454908604448006820F0B5
:10160000F000A168084341490860207800F001001B
:10161000A8B36068012807D13C4808380068C0F3C7
:101620004040B8B90120BCE76068022802D0606879
:10163000032807D1354808380068C0F3406048B92E
:101640000120AEE7314808380068C0F3400008B90F
:101650000120A6E72D48006820F0030061680843D8
:101660002A490860FFF75EFA064609E0FFF75AFAD2
:10167000801B41F28831884202D9032091E707E0BC
:101680002248006800F00C006168B0EB810FEDD1DA
:101690001D48006800F00F00A84209D91A490D70D2
:1016A0000846006800F00F00A84201D0012078E74A
:1016B000207800F00400042807D11448006820F4C2
:1016C000E050E168084311490860207800F0080004
:1016D000082808D10D48006820F46040216940EADC
:1016E000C1000A49086000F045F808490968C1F3DB
:1016F0000311074A515CC840064908600648006863
:10170000FFF716FD00204CE7003C0240083802407D
:10171000F06200081800002010000020012001499C
:10172000C8647047000047420148006870470000E5
:101730001800002000B5FFF7F7FF04490968C1F35E
:101740008221034A515CC84000BD000008380240B5
:101750000063000800B5FFF7E7FF04490968C1F31B
:101760004231034A515CC84000BD000008380240C5
:10177000006300082DE9F047002400250026A1465B
:101780002548006800F00C0020B1042805D0082886
:101790003AD105E0DFF8849039E0DFF8849036E054
:1017A0001D48001F006800F03F041B48001F006830
:1017B00000F4800078B11A481749091F0968C1F37D
:1017C0008811A0FB01700146224600233846FEF72F
:1017D00069FD05460EE011480F49091F0968C1F36C
:1017E0008811A0FB01700146224600233846FEF70F
:1017F00059FD05460848001F0068C0F30140401C21
:101800004600B5FBF6F902E0DFF8109000BF00BF1C
:101810004846BDE8F0870000083802400024F40084
:1018200080BA8C01F8B504460CB90120F8BD2078C7
:1018300000F00100002874D0F948006800F00C00A6
:1018400004280DD0F648006800F00C00082813D1D9
:10185000F348001F006800F48000B0F5800F0BD142
:10186000EF4808380068C0F34040002859D060684D
:10187000002856D10120D9E700BF6068B0F5803F4D
:1018800008D1E7480838006840F48030E449083956
:1018900008601EE06068B0F5A02F0DD1E048083860
:1018A000006840F48020DE49083908600846006876
:1018B00040F4803008600CE0D9480838006820F413
:1018C0008030D749083908600846006820F4802035
:1018D000086000BF606890B1FFF724F9054606E094
:1018E000FFF720F9401B642801D903209EE7CC486C
:1018F00008380068C0F340400028F1D011E0FFF73D
:1019000011F9054606E0FFF70DF9401B642801D9DF
:1019100003208BE7C24808380068C0F34040002825
:10192000F1D1207800F0020002285FD1BC480068A5
:1019300000F00C0058B1BA48006800F00C0008280C
:101940001CD1B748001F006800F48000B0B9B4484B
:1019500008380068C0F3400020B1E068012801D0D9
:10196000012063E7AE480838006820F0F8002169DC
:1019700040EAC100AA490839086037E0E06800B3CE
:101980000120A8490860FFF7CDF8054606E0FFF7FB
:10199000C9F8401B022801D9032047E7A0480838AE
:1019A0000068C0F340000028F1D09D480838006866
:1019B00020F0F800216940EAC1009949083908601F
:1019C00014E0002097490860FFF7ACF8054606E0F0
:1019D000FFF7A8F8401B022801D9032026E790480A
:1019E00008380068C0F340000028F1D1207800F0EA
:1019F000080008282CD16069A8B101208A49086034
:101A0000FFF790F8054606E0FFF78CF8401B022828
:101A100001D903200AE782486C300068C0F3400017
:101A20000028F1D014E000207F490860FFF77AF821
:101A3000054606E0FFF776F8401B022801D903208F
:101A4000F4E677486C300068C0F340000028F1D11C
:101A5000207800F00400042870D100277048383046
:101A6000006800F0805090B900BF002000906C48E2
:101A70003830006840F080506949383108600846C5
:101A8000006800F08050009000BF00BF0127674849
:101A9000006800F48070B0B96448006840F4807059
:101AA00062490860FFF73EF8054606E0FFF73AF89E
:101AB000401B022801D90320B8E65C48006800F406
:101AC00080700028F2D000BFA068012808D15448D7
:101AD0006830006840F001005149683108601DE03D
:101AE000A06805280DD14E486830006840F0040019
:101AF0004B49683108600846006840F00100086002
:101B00000CE047486830006820F001004449683123
:101B100008600846006820F00400086000BFA06864
:101B2000A8B1FEF7FFFF054609E0FEF7FBFF401BEB
:101B300041F28831884202D9032077E626E038480E
:101B400068300068C0F340000028EED013E0FEF7D4
:101B5000E9FF054608E0FEF7E5FF401B41F288314A
:101B6000884201D9032061E62D4868300068C0F33F
:101B700040000028EFD1012F07D1294838300068F4
:101B800020F0805026493831086000BFA069002845
:101B900045D02348006800F00C0008285DD0A069FB
:101BA000022845D100201F490866FEF7BBFF054605
:101BB00006E0FEF7B7FF401B022801D9032035E6F7
:101BC000174808380068C0F340600028F1D1D4E914
:101BD00007010843616A40EA81110122A06AC2EB51
:101BE000500041EA00412C20005D41EA00600C49B0
:101BF000091F086001200B490866FEF793FF0546A0
:101C000006E0FEF78FFF401B022801D903200DE6F6
:101C1000034808380068C0F340600028F1D03FE076
:101C20000838024000004742800E474200700040E2
:101C300000201C490866FEF775FF054606E0FEF722
:101C400071FF401B022801D90320EFE51648006808
:101C5000C0F340600028F2D122E0A069012800D141
:101C6000E4E51148001D066806F48001E069814240
:101C700014D106F03F01206A81420FD147F6C070AF
:101C80003040616A884209D106F44031A06A81423D
:101C900004D106F07061E06A814201D00120C5E5FF
:101CA0000020C3E5000047420038024010B504465A
:101CB0000CB9012010BD607F20B90020207720469C
:101CC00000F060F80220607700BFCA2021684862F7
:101CD00053202168486200BF204601F04AFF40B10E
:101CE00000BFFF202168486200BF04206077012008
:101CF000E0E72068806822490840216888602169FF
:101D0000606808436169084321688968084321685D
:101D100088602168E068086120680169208941EADB
:101D20000040216808612068C06820F080002168B8
:101D3000C8602068806800F0200060B9204600F08C
:101D40002DF840B100BFFF202168486200BF042089
:101D500060770120AEE72068006C20F480202168C5
:101D600008642068006CA16908432168086400BF0A
:101D7000FF202168486200BF01206077002099E7BA
:101D8000BFFF8FFF034A0168914202D10121024A3D
:101D900011607047002800403C0E474270B5044671
:101DA00000252068C06820F0A0002168C860FEF708
:101DB000B9FE054607E0FEF7B5FE401BB0F57A7F99
:101DC00001D9032070BD2068C06800F02000002801
:101DD000F1D00020F6E710B504460CB9012010BD83
:101DE000606A00B900BF0021A16294F8510028B9CF
:101DF000002084F85000204600F034F8022084F8D7
:101E000051002068006820F0400021680860D4E993
:101E100001010843E16808432169084361690843F7
:101E2000218B01F400710843E1690843216A0843EA
:101E3000A16A0843216808600421A06901EA1040F2
:101E4000616A0843216848602068C06920F4006026
:101E50002168C86100206065012084F851000020DD
:101E6000BDE7000010B586B00446142101A8FEF7B6
:101E700063FA36492068884230D100BF00200090C4
:101E80003348006840F40050314908600846006853
:101E900000F40050009000BF00BF00BF0020009081
:101EA0002B481438006840F01000294914390860A4
:101EB0000846006800F01000009000BF00BF6420DA
:101EC000019002200290002003900320049005203E
:101ED000059001A91F48FEF711FD34E01E49206856
:101EE000884230D100BF002000901948006840F4BB
:101EF0008010174908600846006800F480100090C0
:101F000000BF00BF00BF00200090114814380068D7
:101F100040F020000E49143908600846006800F0BF
:101F20002000009000BF00BF4FF4607001900220BD
:101F3000029000200390032004900520059001A941
:101F40000648FEF7DBFC06B010BD0000003401407F
:101F5000443802400010024000500140001402408A
:101F600070B504462546681EB0F1807F01D301207C
:101F70000FE0681E4FF0E02148610F214FF0FF3065
:101F800002F074F900204FF0E02188610720086119
:101F9000002070BD704700002DE9F047044620681E
:101FA00005682068C668206847694FF00008C14688
:101FB00005F00F08B8F1000F0AD105F0200038B184
:101FC00006F0200020B1204601F0B2FEBDE8F08707
:101FD000B8F1000F72D007F0010018B906F4907044
:101FE00000286BD005F0010030B106F4807018B104
:101FF000E06B40F00100E06305F0040030B107F051
:10200000010018B1E06B40F00200E06305F002004F
:1020100030B107F0010018B1E06B40F00400E0635C
:1020200005F0080048B106F0200010B907F00100E3
:1020300018B1E06B40F00800E063E06B70B305F0AE
:10204000200028B106F0200010B1204601F070FEFB
:1020500020684069C0F38019E06B00F0080010B9F7
:10206000B9F1000F23D0204601F042FE20684069FC
:1020700000F04000402816D12068406920F0400060
:1020800021684861606B50B11748616B0865606BEF
:10209000FEF776FA10B1606B016D88470CE02046C0
:1020A000FFF778FF08E02046FFF774FF04E02046C2
:1020B000FFF770FF0020E06388E7FFE705F080008E
:1020C00030B106F0800018B1204602F079F87DE7C3
:1020D00005F0400030B106F0400018B1204601F094
:1020E00017FE73E700BF71E7DD3C000810B504463A
:1020F0000CB9012010BDA06900B100E000BF94F848
:10210000390028B9002084F83800204600F028F86B
:10211000242084F839002068C06820F40050216829
:10212000C860204601F058FE2068006920F4904005
:10213000216808612068406920F02A002168486110
:102140002068C06840F400502168C8600020E06347
:10215000202084F8390084F83A000020CAE7000003
:1021600010B586B00446142101A8FEF7E5F8F94938
:102170002068884275D100BF00200090F6480068B2
:1021800040F40020F44908600846006800F400208C
:10219000009000BF00BF00BF00200090EE48103844
:1021A000006840F00400EC491039086008460068F7
:1021B00000F00400009000BF00BF4FF440600190A9
:1021C0000220029001200390032004900820059033
:1021D00001A9E248FEF792FBE148E24908604005A8
:1021E00048600021DF488160C1604FF48061016177
:1021F000002141618161C16101624162FEF7F8FA2B
:1022000008B1FEF792F900BFD6486063846300BF4F
:10221000D3483030D44908604FF000604860402116
:10222000D14881600021C1604FF4806101610021CB
:1022300041618161C16101624162FEF7D9FA08B171
:10224000FEF773F900BFC8482063846300BF002213
:1022500005213420FEF7CCFF3420FEF7B9FF12E24F
:10226000FFE7C2492068884239D100BF00200090B2
:10227000B948006840F08040B749086008460068E7
:1022800000F08040009000BF00BF00BF0020009021
:10229000B1481038006840F01000AF4910390860AC
:1022A0000846006800F01000009000BF00BF4FF427
:1022B000C07001900220029001200390032004903E
:1022C0000820059001A9AA48FEF718FB0022092161
:1022D0005220FEF78DFF5220FEF77AFFD3E1A54989
:1022E0002068884238D100BF002000909A480068DA
:1022F00040F00040984908600846006800F000403F
:10230000009000BF00BF00BF00200090924810382E
:10231000006840F0100090491039086008460068D5
:1023200000F01000009000BF00BF032001900220C9
:10233000029001200390032004900820059001A939
:102340008B48FEF7DBFA00220D215320FEF750FFE9
:102350005320FEF73DFF96E18749206888427CD1F3
:1023600000BF002000907C48006840F400307A49AB
:1023700008600846006800F40030009000BF00BF0D
:1023800000BF0020009074481038006840F008003A
:102390007149103908600846006800F00800009094
:1023A00000BF00BF60200190022002900020039037
:1023B000032004900720059001A97048FEF79EFABB
:1023C000674848306E4908604FF00060486000215F
:1023D0006B488160C1604FF48061016100214161FF
:1023E0008161C1614FF48031016200214162FEF7D9
:1023F000FFF908B1FEF799F800BF61486063846394
:1024000000BF574860305F4908604FF00060486087
:1024100040215C4881600021C1604FF4806101610E
:10242000002141618161C1614FF48031016200216D
:102430004162FEF7DDF908B1FEF777F800BF5148B9
:102440002063846300BF002205212620FEF7D0FE12
:102450002620FEF7BDFE16E1FFE74B4920688842C3
:1024600076D100BF002000903B48006840F48020F7
:10247000394908600846006800F48020009000BFD9
:1024800000BF00BF0020009033481038006840F0C3
:1024900002003149103908600846006800F0020067
:1024A000009000BF00BF4FF44060019002200290F6
:1024B00000200390032004900720059001A93348D1
:1024C000FEF71CFA26481830314908604FF00060CA
:1024D000486040212E4881600021C1604FF4806136
:1024E0000161002141618161C16101624162FEF7C8
:1024F0007FF908B1FEF719F800BF2548206384630F
:1025000000BF17481838234908604FF00060486042
:10251000002120488160C1604FF480610161002189
:1025200041618161C16101624162FEF761F908B1F7
:10253000FDF7FBFF00BF17486063846300BF002204
:1025400005212720FEF754FE2720FEF741FE9AE0E2
:1025500022E00000004C00404038024000080240E9
:1025600040600240380300209803002000780040BB
:1025700000100240007C004000440040000C02407B
:10258000F8030020580400200048004000040240E6
:10259000B8040020180500203C492068884272D108
:1025A00000BF002000903A48006840F02000384901
:1025B00008600846006800F02000009000BF00BFDF
:1025C00000BF0020009032481438006840F004003A
:1025D0002F49143908600846006800F00400009094
:1025E00000BF00BFC0200190022002900020039095
:1025F000032004900820059001A92648FEF77EF9E3
:1026000025482649086080054860002123488160EC
:10261000C1604FF480610161002141618161C1614C
:1026200001624162FEF7E4F808B1FDF77EFF00BFEA
:102630001A486063846300BF1748783018490860FF
:102640004FF0206048604021154881600021C16042
:102650004FF480610161002141618161C1610162CA
:102660004162FEF7C5F808B1FDF75FFF00BF0C48F7
:102670002063846300BF002206214720FEF7B8FDD7
:102680004720FEF7A5FD06B010BD00000014014074
:1026900044380240000802402864024078050020C7
:1026A000D80500207047704700BFFEE710B502480C
:1026B000FEF78EFA10BD00009400002010B502480D
:1026C000FEF7F0FA10BD000094000020C16AB1F5D9
:1026D0002A0F02D10121C16205E0C16AB1F12A4F7E
:1026E00001D10821C162704770B50546AC6B94F802
:1026F0003D60606B10B10020616BC863A06B10B1CE
:102700000020A16BC8632068006820F48060216805
:10271000086000206085606B10B10020616B086567
:10272000A06B10B10020A16B08652068006820F044
:1027300001002168086094F83D0060280AD120203B
:1027400084F83D00002084F83E0020642046FEF717
:102750003DFA1EE006F02800282811D12068006804
:1027600040F00100216808602068006840F4806043
:102770002168086000202063282084F83D0005E0DF
:10278000202084F83D00002084F83E002046FEF71B
:102790006BFB70BD70B5044694F83D6094F83E0044
:1027A000102807D1222E05D12068006820F400608F
:1027B0002168086006F02800282805D10020206341
:1027C000282084F83D000FE02068406800F4006095
:1027D000B0F5006F04D0602E02D0202084F83D00B8
:1027E0000020206384F83E002068406800F4006008
:1027F000B0F5006F40D12068406820F40060216887
:102800004860606B90F83500012814D04848616B2F
:102810000865606BFDF7B4FE00285BD02068006897
:1028200020F0010021680860202084F83D00606BE2
:10283000016D88474EE03E48A16B0865A06BFDF72F
:102840009FFE002846D020684069C0F3801030B158
:1028500020680069616A0870606A401C60622068D4
:10286000006820F0010021680860202084F83D0005
:10287000A06B016D88472DE094F83D0060281AD1C7
:10288000202084F83D000020206420684069C0F3C7
:10289000801030B120680069616A0870606A401C6D
:1028A00060622068006820F001002168086020460E
:1028B000FEF78CF90EE020684069C0F3801030B15B
:1028C00020680069616A0870606A401C6062204686
:1028D000FEF7CAFA256C05F0010058B905F00200B0
:1028E000022807D005F00400042803D005F00800F2
:1028F000082805D12068406820F4E060216848601D
:1029000094F83D60206C00F0040004280ED1282EBD
:102910000CD10848E06200202063202084F83D00AC
:10292000002084F83E002046FEF788FB70BD0000C2
:10293000E92600080000FFFF70B50446E56A608DD7
:10294000042810D12068406820F480602168486025
:1029500020680069616A0870606A401C6062608D6E
:10296000401E60857AE0608D03281AD12068406897
:1029700020F4806021684860042D07D0022D05D026
:102980002068006820F48060216808602068006981
:10299000616A0870606A401C6062608D401E6085DC
:1029A0005CE0608D02284FD1012D01D0102D06D1A1
:1029B0002068006820F480602168086012E0042D1F
:1029C00001D0022D06D12068006840F480602168A3
:1029D000086007E0102D05D02068006840F4007002
:1029E0002168086020680069616A0870606A401C9C
:1029F0006062608D401E608520680069616A0870B1
:102A0000606A401C6062608D401E6085206840687E
:102A100020F4407021684860202084F83D0094F83C
:102A20003E00402807D1002084F83E002063204665
:102A3000FEF707FB12E0002084F83E00122020631E
:102A40002046FEF7FCFA09E020680069616A087018
:102A5000606A401C6062608D401E608570BD70B50C
:102A6000044694F83D0022284AD1658D032D13D9E0
:102A700020680069616A0870606A401C6062608D4D
:102A8000401E6085608D032839D12068406820F49D
:102A900080602168486032E0E06A02282FD0012D72
:102AA00000D01DBB2068006820F4806021680860A9
:102AB0002068406820F4E060216848602068006970
:102AC000616A0870606A401C6062608D401E6085AB
:102AD000202084F83D0094F83E00402807D10020D3
:102AE00084F83E0020632046FEF7ABFA07E00020A2
:102AF00084F83E00122020632046FEF7A0FA00BFB3
:102B000070BD70B50446E56A94F83D00212848D1AF
:102B1000608D50B1606A007821680861606A401C6D
:102B20006062608D401E608542E0082D16D0202D29
:102B300014D015F5803F11D02068406820F4E06083
:102B40002168486011202063002084F83E00202086
:102B500084F83D002046FEF773FA29E020684068BB
:102B600020F4E060216848602068006840F400704C
:102B70002168086000202063202084F83D0094F83C
:102B80003E00402806D1002084F83E002046FEF793
:102B900059FA0DE0002084F83E002046FEF750FA76
:102BA00006E094F83E00402802D1204600F005FAE5
:102BB00070BD2DE9F041044694F83D5094F83E7004
:102BC000E66A208DB0BB212D3CD1082E16D0202ED8
:102BD00014D016F5803F11D02068406820F4E060E2
:102BE0002168486011202063002084F83E002020E6
:102BF00084F83D002046FEF723FA44E02068406850
:102C000020F4E060216848602068006840F40070AB
:102C10002168086000202063202084F83D0094F89B
:102C20003E00402807D1002084F83E002046FEF7F1
:102C300009FA28E006E0002084F83E002046FEF76E
:102C4000FFF920E0212D03D0402F1CD1222D1AD1D5
:102C5000608D30B92068406820F480602168486049
:102C600011E094F83E00402803D1204600F0A5F979
:102C700009E0606A007821680861606A401C60624F
:102C8000608D401E6085BDE8F081416CC9B202686C
:102C90001161416B09B9816B59B1416BC96B11B9B4
:102CA000816BC96B29B10168496841F40061026810
:102CB0005160704738B590F83E20C16A036B90F8B8
:102CC0003D40222C73D1046D64B9402A0AD100BF63
:102CD000002400940468646900940468A469009462
:102CE00000BF1AE1046DC4B90469B4F5404F14D1B2
:102CF00000BF002400940468646900940468A46917
:102D0000009400BF00BF0468246844F48074056820
:102D10002C60046D641C0465FFE0448D8CB900BF19
:102D2000002400940468646900940468A469009411
:102D300000BF00BF0468246844F4007405682C6078
:102D4000DDE0448D012C72D111F5803F30D1046853
:102D5000246824F4806405682C600468646804F4C2
:102D60000064B4F5006F10D10468246824F4806412
:102D700005682C6000BF0024009404686469009416
:102D80000468A469009400BFB9E000BF0024009467
:102D90000468646900940468A469009400BF00BFDB
:102DA0000468246844F4007405682C60A7E0A9E076
:102DB000082923D0202921D0122B01D101291DD18E
:102DC00004290AD0022908D0102906D004682468F2
:102DD00024F4806405682C6005E00468246844F4E9
:102DE000806405682C6000BF002400940468646956
:102DF00000940468A469009400BF80E0046824681B
:102E000024F4806405682C6000BF002400940468EA
:102E1000646900940468A469009400BF00BF04685A
:102E2000246844F4007405682C6068E0FFE7448D72
:102E3000022C3BD1042910D002290ED010290CD02D
:102E40000468246824F4806405682C60046824689D
:102E500044F4006405682C6005E00468246844F4C8
:102E6000806405682C600468646804F40064B4F548
:102E7000006F10D111F5803F07D0012905D0082936
:102E800003D0102901D0202905D10468646844F4D6
:102E9000805405686C6000BF002400940468646975
:102EA00000940468A469009400BF28E004682468C2
:102EB00044F4806405682C600468646804F4006469
:102EC000B4F5006F10D111F5803F07D0012905D06E
:102ED000082903D0102901D0202905D1046864688D
:102EE00044F4805405686C6000BF002400940468BA
:102EF000646900940468A469009400BF00BF0024C2
:102F000004650AE000BF002400940468646900942A
:102F10000468A469009400BF00BF38BD90F83E105B
:102F200040290ED1016D29B9416C01F0FE01026802
:102F3000116141E0416CC9B241F0010102681161C7
:102F40003AE00169B1F5804F20D190F83D10212978
:102F500005D1416C01F0FE010268116105E0416C90
:102F6000C9B241F0010102681161416B11B1416BBD
:102F7000C96B21B9816BF9B1816BC96BE1B1016892
:102F8000496841F400610268516015E0016D41B982
:102F9000416C01F44071F02242EAE11102681161D2
:102FA0000AE0016D012907D1416C01F44071F12261
:102FB00042EAE111026811617047016D99B9C16C73
:102FC000012907D1816CC9B202681161016D891CA8
:102FD00001652FE0816CC1F3072102681161016D69
:102FE000491C016526E0016D012907D1816CC9B238
:102FF00002681161016D491C01651BE0016D022928
:1030000018D190F83D10222906D10168096841F4D1
:103010008071026811600DE090F83D10212909D1FE
:10302000416A097802681161416A491C4162418D17
:10303000491E41857047418D49B101680969426A5D
:103040001170416A491C4162418D491E418570479A
:1030500070B5044694F83D50608DD8B12068006981
:10306000616A0870606A401C6062608D401E608505
:10307000608D78B92A2D0DD12068406820F48060D9
:103080002168486022202063282084F83D002046E3
:10309000FEF72EF870BD418D49B1416A097802688A
:1030A0001161416A491C4162418D491E4185704749
:1030B00070B5044694F83D50608DD8B1606A0078D0
:1030C00021680861606A401C6062608D401E6085F6
:1030D000608D78B9292D0DD12068406820F480607A
:1030E0002168486021202063282084F83D00204684
:1030F000FDF7FFFF70BD2DE9F04104460D460027A6
:1031000094F83D0000F0280028281CD12068406871
:1031100020F4806021684860C5F3800000B9012771
:10312000C5F3C01010B9A08986B201E0208B86B229
:1031300000BF002084F83C0000BF324639462046DC
:10314000FDF745FD08E06FF002002168486100BF0F
:10315000002084F83C0000BFBDE8F08170B5044653
:1031600094F83D50E66A082E01D0202E1FD1282D5C
:103170001DD12148E0622068406820F4E0602168A9
:1031800048606FF48060216848612068006820F41E
:1031900080602168086000202063202084F83D00C2
:1031A000002084F83E002046FDF748FF23E0212D53
:1031B0001DD11148E06221202063202084F83D00C9
:1031C000002084F83E002068406820F4E060216818
:1031D00048606FF48060216848612068006820F4CE
:1031E0008060216808602046FDF783FF03E06FF4EC
:1031F00080602168486170BD0000FFFF38B504465B
:1032000094F83D502068406820F4E06021684860F0
:1032100000BF00200090206840690090206800688E
:1032200040F001002168086000BF00BF206800680E
:1032300020F48060216808602068406800F4006025
:10324000B0F5006F42D1222D01D02A2D1FD1A06BE5
:10325000006840686085608D18B1206C40F0040003
:1032600020642068406820F4006021684860A06BFA
:10327000FDF79AF9012829D04148A16B0865A06B98
:10328000FDF77EF910B3A06B016D88471EE0606BFF
:10329000006840686085608D18B1206C40F00400C3
:1032A00020642068406820F4006021684860606BFA
:1032B000FDF77AF9012809D03148616B0865606B28
:1032C000FDF75EF910B1606B016D8847608D18B332
:1032D00020684069C0F3800048B120680069616AD5
:1032E0000870606A401C6062608D401E60852068C6
:1032F0004069C0F3801048B120680069616A0870B5
:10330000606A401C6062608D401E6085608D18B1EF
:10331000206C40F004002064206C18B12046FFF7B8
:1033200039FA2BE02A2D07D100202063282084F8C9
:103330003D002046FDF7DCFE94F83D0028280DD125
:103340001048E06200202063202084F83D00002027
:1033500084F83E002046FDF771FE0FE0206B222826
:1033600001D0222D0AD100202063202084F83D00C6
:10337000002084F83E002046FDF7BAFE38BD00006C
:10338000E92600080000FFFF10B505480549086060
:103390000846FDF7CBF808B1FDF7C7F810BD0000EF
:1033A000003002400000002008B500BF002000905F
:1033B0002E48006840F480002C49086008460068E8
:1033C00000F48000009000BF00BF00BF002000900C
:1033D0000846006840F4001008600846006800F4E1
:1033E0000010009000BF00BF002205210C20FDF757
:1033F000FFFE0C20FDF7ECFE002205210D20FDF75D
:10340000F7FE0D20FDF7E4FE002205210E20FDF75A
:10341000EFFE0E20FDF7DCFE002205210F20FDF758
:10342000E7FE0F20FDF7D4FE002205211020FDF756
:10343000DFFE1020FDF7CCFE002205211120FDF754
:10344000D7FE1120FDF7C4FE002205213920FDF72B
:10345000CFFE3920FDF7BCFE002205214520FDF7F7
:10346000C7FE4520FDF7B4FE08BD0000303802401D
:1034700010B5044A0021044800F0AAFF034908607F
:1034800010BD0000C4620008B13B00080800002025
:1034900000B587B0142102A8FCF74EFF00BF002042
:1034A0000190FE48006840F01000FC4908600846A2
:1034B000006800F01000019000BF00BF00BF0020B6
:1034C00001900846006840F4807008600846006873
:1034D00000F48070019000BF00BF00BF0020019089
:1034E0000846006840F0040008600846006800F0E4
:1034F0000400019000BF00BF00BF002001900846FB
:10350000006840F0200008600846006800F02000D5
:10351000019000BF00BF00BF002001900846006876
:1035200040F0800008600846006800F080000190CC
:1035300000BF00BF00BF002001900846006840F0B7
:10354000010008600846006800F00100019000BF1B
:1035500000BF00BF002001900846006840F0020054
:1035600008600846006800F00200019000BF00BF3C
:1035700000BF002001900846006840F0400008604D
:103580000846006800F04000019000BF00BF00BF87
:10359000002001900846006840F0080008600846D6
:1035A000006800F00800019000BF00BF01224FF644
:1035B0001861BB48FDF7B0FA01224721B948FDF771
:1035C000ABFA00223021B748FDF7A6FA01220C2100
:1035D000B548FDF7A1FA01221146B448FDF79CFA5F
:1035E00001224EF6CC71B248FDF796FA01224FF255
:1035F0005B21B048FDF790FA01224FF61871AE48F2
:10360000FDF78AFA002248F2FC11AC48FDF784FA73
:103610000122F721AA48FDF77FFA01224FF4C06189
:10362000A648FDF779FA4FF6186002900120039042
:1036300004900320059002A99948FDF75FF940F630
:1036400008500290002003900120049002A99C4899
:10365000FDF754F943F23330029003200390002029
:10366000049002A99048FDF749F94FF400700290C8
:10367000944803900020049002A99148FDF73EF978
:10368000472002900120039004900320059002A996
:103690008448FDF733F9082002908A4803900020FF
:1036A000049002A97F48FDF729F9302002900120FB
:1036B000039000200490059002A97A48FDF71EF9B6
:1036C0004FF480600290002003900120049002A932
:1036D0007448FDF713F90C20029001200390049028
:1036E0000320059002A97048FDF708F90120029017
:1036F00003900490059002A96C48FDF7FFF849F685
:10370000FE700290032003900020049002A96748F5
:10371000FDF7F4F80C2002900120039004900220A1
:10372000059002A96248FDF7E9F803200290012004
:1037300003900490059002A95E48FDF7DFF84FF46E
:1037400082700290032003900020049002A959483F
:10375000FDF7D4F84FF47840029003200390002046
:10376000049002A94F48FDF7C9F847F603000290FC
:10377000032003900020049002A95048FDF7BEF8F2
:103780004EF6C07002900120039004900320059033
:1037900002A94748FDF7B2F84FF480500290032089
:1037A00003900020049002A94148FDF7A7F84FF4C8
:1037B0007040029011200390002004900220059098
:1037C00002A93C48FDF79AF84FF6187002901120B4
:1037D0000390002004900220059002A93648FDF7CE
:1037E0008DF84FF4FE7002900120039004900320A6
:1037F000059002A93148FDF781F8072002900120C9
:10380000039004900320059002A92D48FDF776F857
:1038100087200290032003900020049002A92648EC
:10382000FDF76CF84FF4C060029011200390002067
:1038300004900220059002A92048FDF75FF84FF49C
:10384000004002900120039004900220059002A9FC
:103850001A48FDF753F85820029001200390049075
:103860000220059002A91348FDF748F8A020029015
:10387000002003900120049002A90E48FDF73EF8B5
:103880004FF40070029001200390049003200590F3
:1038900002A90848FDF732F8F02015E03038024060
:1038A00000100240001402400008024000000240E4
:1038B000001C024000040240000C024000180240BC
:1038C00000200240000011100290112003900020FF
:1038D00004900320059002A90A48FDF70FF8002282
:1038E00006210920FDF784FC0920FDF771FC002268
:1038F00005211720FDF77CFC1720FDF769FC07B0B8
:1039000000BD00000020024010B5124812490860B6
:1039100012484860002110488160C1604FF4804126
:103920000161002141618161C1610162FDF79EFA7F
:1039300008B1FCF7FAFD00210748FDF7F9F808B1D6
:10394000FCF7F3FD00210448FDF718F908B1FCF776
:10395000ECFD10BD0058004094000020A08601003E
:1039600010B50A480A490860002048607F210848CD
:103970008160FF21C1600021016141618161FEF729
:1039800095F908B1FCF7D1FD10BD000000280040FA
:10399000E800002010B50E480E4908604FF4827010
:1039A000486000210B488160C160016141614FF4B2
:1039B000007181610821C16100210162416281625F
:1039C0000A21C162FEF707FA08B1FCF7AEFD10BD8F
:1039D000003401400801002010B50E480E4908606F
:1039E0004FF48270486000210B488160C160016122
:1039F00041614FF4007181610821C16100210162C0
:103A0000416281620A21C162FEF7E5F908B1FCF763
:103A10008CFD10BD005001406001002010B50B4826
:103A20000B4908604FF4E13048600021084881608C
:103A3000C16001610C21416100218161C161FEF71A
:103A400055FB08B1FCF771FD10BD0000004C0040B3
:103A5000B801002010B50B480B4908604FF4E13065
:103A60004860002108488160C16001610C2141610A
:103A700000218161C161FEF739FB08B1FCF755FDFA
:103A800010BD000000780040F801002010B50B4880
:103A90000B4908604FF4E13048600021084881601C
:103AA000C16001610C21416100218161C161FEF7AA
:103AB0001DFB08B1FCF739FD10BD0000007C004083
:103AC0003802002010B50B480B4908604FF4E13074
:103AD0004860002108488160C16001610C2141619A
:103AE00000218161C161FEF701FB08B1FCF71DFDFA
:103AF00010BD0000004400407802002010B50B48C3
:103B00000B4908604FF4E1304860002108488160AB
:103B1000C16001610C21416100218161C161FEF739
:103B2000E5FA08B1FCF701FD10BD000000480040B7
:103B3000B802002010B50B480B4908604FF4E13083
:103B40004860002108488160C16001610C21416129
:103B500000218161C161FEF7C9FA08B1FCF7E5FCFB
:103B600010BD000000140140F802002000BFFEE775
:103B7000704770B5044600252068C06800F040001A
:103B8000A0B9681E2168C860FCF7CCFF054607E0B5
:103B9000FCF7C8FF401BB0F57A7F01D9032070BD48
:103BA0002068C06800F040000028F1D00020F6E74F
:103BB00000BF012000F0ACFBFBE7704700B59FB0F1
:103BC000302113A8FCF7B8FB14210EA8FCF7B4FBB6
:103BD000302102A8FCF7B0FB00BF002001902A486A
:103BE000006840F08050284908600846006800F0EE
:103BF0008050019000BF00BF00BF0020019023480B
:103C0000006840F44040214908600846006800F41C
:103C10004040019000BF00BF0520139000041490A5
:103C2000052015900220199041051A911A211B9127
:103C30004FF4A8711C9102211D9104211E9113A81B
:103C4000FDF7F0FD08B1FCF770FC0F200E9002208C
:103C50000F90002010904FF4A05011901290052169
:103C60000EA8FDF799FC08B1FCF75FFC202002903C
:103C7000C0000C9002A8FDF70DFB08B1FCF755FC45
:103C8000FDF74CFD1FB000BD403802400070004001
:103C90000548006840F47000034908604FF0006078
:103CA000014980390860704788ED00E010B502488E
:103CB000FEF772F910BD0000B801002010B50248EF
:103CC000FEF76AF910BD0000F801002010B50248A7
:103CD000FEF762F910BD00003802002070B50546FD
:103CE000AC6B0020E085E0842046FEF753F970BD00
:103CF0000168C96821F490710268D160016849695E
:103D000021F0010102685161202180F83A107047CA
:103D100010B504462068C06820F040002168C860E3
:103D2000202084F839002046FEF7BDFC002010BD9D
:103D300070B5044694F83A0022284AD1A068B0F53C
:103D4000805F13D1A56A206940B920684068C0F33C
:103D500008002880A06A801CA06219E020684068E2
:103D6000C0B22880A06A401CA06211E0206938B966
:103D700020684068C1B2A26A501CA062117007E0BE
:103D80002068406800F07F01A26A501CA062117098
:103D9000E08D401E80B2E085C8B92068C06820F080
:103DA00020002168C8602068C06820F48070216805
:103DB000C8602068406920F0010021684861202027
:103DC00084F83A002046FEF76DFC002070BD00200C
:103DD000FCE70220FAE700002DE9F84F04462068CE
:103DE000006920F44050E1680843216808612169B6
:103DF000A068084361690843E169084300902068AE
:103E0000C06849F20C618843009908432168C86082
:103E10002068406920F44070A16908432168486126
:103E2000E069B0F5004F75D1E3492068884203D0BE
:103E3000E249206888426FD1FDF78CFC8146022060
:103E40006168A0FB01510B461920A9FB00712A46AD
:103E50003846FCF727FA6421B0FBF1F04FEA001A6C
:103E600002206168A0FB01510B461920A9FB0071DB
:103E70002A463846FCF716FA074602206168A0FB7E
:103E800001510B461920A9FB00B12A465846FCF700
:103E900009FA6421B0FBF1F000EBC00101EB001066
:103EA000A7EB8000322101EBC0006421B0FBF1F0F0
:103EB00000F0F8000AEB400A02206168A0FB015103
:103EC0000B461920A9FB00712A463846FCF7EAF98F
:103ED000074602206168A0FB01510B461920A9FB8F
:103EE00000B12A465846FCF7DDF96421B0FBF1F039
:103EF00000EBC00101EB0010A7EB8000322101EBC9
:103F0000C0006421B0FBF1F000F0070050442168CC
:103F100088604FE16EE0FFE7FDF70CFC8146022070
:103F20006168A0FB01510B461920A9FB00712A46CC
:103F30003846FCF7B7F96421B0FBF1F04FEA001AFC
:103F400002206168A0FB01510B461920A9FB0071FA
:103F50002A463846FCF7A6F9074602206168A0FB0E
:103F600001510B461920A9FB00B12A465846FCF71F
:103F700099F96421B0FBF1F000EBC00101EB0010F6
:103F8000A7EB8000322101EBC0006421B0FBF1F00F
:103F900000F0F8000AEB400A02206168A0FB015122
:103FA0000B461920A9FB00712A463846FCF77AF91E
:103FB000074602206168A0FB015003461920A9FBB7
:103FC00000B12A465846FCF76DF96421B0FBF1F0C8
:103FD00000EBC00101EB0010A7EB8000322101EBE8
:103FE000C0006421B0FBF1F000F0070050442168EC
:103FF0008860DFE070492068884203D06F492068FC
:1040000088426BD1FDF7A6FB814604206168A0FBC6
:1040100001510B461920A9FB00712A463846FCF7CE
:1040200041F9824604206168A0FB01510B4619202A
:10403000A9FB00712A463846FCF734F96421B0FB2D
:10404000F1F000EBC00101EB0010AAEB800032217F
:1040500001EB00106421B0FBF1F000F0F00A042045
:104060006168A0FB015003461920A9FB00712A4694
:104070003846FCF717F96421B0FBF1F00AEB001A9F
:1040800004206168A0FB01510B461920A9FB0071B7
:104090002A463846FCF706F9074604206168A0FB6B
:1040A000015003461920A9FB00B12A465846FCF7E7
:1040B000F9F86421B0FBF1F000EBC00101EB001056
:1040C000A7EB8000322101EB00106421B0FBF1F07E
:1040D00000F00F005044216888606BE0FDF72AFB78
:1040E000814604206168A0FB015003461920A9FB0A
:1040F00000712A463846FCF7D5F8824604206168EC
:10410000A0FB015003461920A9FB00712A4638463E
:10411000FCF7C8F86421B0FBF1F000EBC00101EB43
:104120000010AAEB8000322101EB00106421B0FBEB
:10413000F1F000F0F00A04206168A0FB0150034692
:104140001920A9FB00712A463846FCF7ABF8642118
:10415000B0FBF1F00AEB001A04206168A0FB0170CB
:1041600003461920A9FB005001463A462846FCF7B1
:1041700099F8074604206168A0FB01500346192006
:10418000A9FB00B12A465846FCF78CF86421B0FB25
:10419000F1F000EBC00101EB0010A7EB8000322131
:1041A00001EB00106421B0FBF1F000F00F0050446F
:1041B00021688860BDE8F88F0010014000140140BC
:1041C000014691F8390021282CD18868B0F5805F2C
:1041D0000FD10A6A1088C0F308000B68586008699C
:1041E00018B9086A801C086209E0086A401C086265
:1041F00005E00B6A581C086218780B685860C88C78
:10420000401E80B2C88458B90868C06820F0800099
:104210000B68D8600868C06840F040000B68D86040
:10422000002070470220FCE710B50248FDF7B4FEFD
:1042300010BD00007802002010B50248FDF7ACFE6A
:1042400010BD0000B802002010B50248FDF7A4FE22
:1042500010BD0000F802002000BFFEE70248006821
:10426000C0F30220704700000CED00E010B50028FC
:1042700004DB0A07130E054A135406E00A07140E5E
:10428000034A00F00F031B1FD45410BD00E400E0EC
:1042900018ED00E0EFF311807047EFF305807047F1
:1042A000EFF31080704702E008C8121F08C1002A0F
:1042B000FAD170477047002001E001C1121F002AA7
:1042C000FBD17047FCF716FFFFF778FCFFF7E0F82B
:1042D000FFF76AF8FFF718FBFFF742FBFFF75AFBFF
:1042E000FFF77AFBFFF79AFBFFF7B4FBFFF7CEFB74
:1042F000FFF7E8FBFFF702FCFFF71CFCFFF744F8B1
:1043000000F022F8FFF7B4F800F03EF800BFFEE737
:1043100070B50546FFF7C1FF48B9FFF7C1FF10B9F7
:10432000FFF7B8FF30B107480068022802D16FF0EC
:10433000050404E0002415B1284600F0FBFF2046E8
:1043400070BD00006C00002010B5FFF7A6FF48B953
:10435000FFF7A6FF10B9FFF79DFF30B109480068CD
:10436000022802D16FF0050409E00648006820B970
:10437000012004490860002401E04FF0FF3420468A
:1043800010BD00006C00002010B5FFF786FF48B993
:10439000FFF786FF10B9FFF77DFF30B10B480068CB
:1043A000022802D16FF005040EE0084800680128D9
:1043B00008D100BF00BF02200449086001F036F8B0
:1043C000002401E04FF0FF34204610BD6C000020B7
:1043D0002DE9FF4780468946144600200390FFF7E9
:1043E0005CFF00285BD1FFF75BFF10B9FFF752FFBE
:1043F00018B12C480068022851D0B8F1000F4ED0F7
:104400004FF4807618254FF0000A4FF0FF3744B381
:10441000206808B1D4F800A0A06900B1A5692DB149
:10442000382D03D8207900F0010018B1002004B025
:10443000BDE8F087606908B160698608A06840B18E
:10444000E0685C2805D3206918B1606908B10127CC
:1044500008E0A06830B9E06820B9206910B90027E9
:1044600000E00027012F0CD12169A0684B4632469D
:10447000CDE9005102905146404601F06FFC039097
:104480000DE067B903A8B2B24B465146CDE90050E2
:10449000404601F031FC012801D000200390039830
:1044A000C5E700006C0000202DE9F04105460E46EE
:1044B0001648076816480068001D00F0BBFD681C20
:1044C00038B936B112480168091D124800F008FEDB
:1044D0001AE07C190E4800684460BC4207D20C48C0
:1044E0000168091D0C48006800F0E0FD0CE0084878
:1044F0000168091D0948006800F0D8FD08480068F7
:10450000844201D206480460BDE8F08130000020FA
:104510001C000020280B0020240000202000002088
:104520004C00002010B5044600F0E6FD2448006869
:10453000401C234908602348006840B921480460B2
:104540000846006801280DD100F0FCF90AE01E4879
:10455000006838B91B480068C06AE16A884201D81F
:104560001848046019480068401C1849086008464B
:10457000006860641649E06A0968884202D91449F3
:10458000E06A0860E16A01EB8101124A02EB8100F6
:10459000211D00F0A5FD00F0D9FD0B48006868B1B1
:1045A00008480068C06AE16A884207D24FF080502C
:1045B00009490860BFF34F8FBFF36F8F10BD000034
:1045C0002C0000201C0000203800002048000020A3
:1045D000340000207806002004ED00E008B500F06B
:1045E0008BFD12480068E8B9114800F04FFD1148F2
:1045F00000F04CFD0E48104908600E480F49086055
:1046000000200F4B0F4A102100900A2001F06EF895
:10461000064908600846006820B10BA103480068FD
:1046200000F04CFE00F092FD08BD0000600000208C
:104630003C0B0020500B0020580000205C000020A4
:10464000640B0020B40B0020546D72510000000078
:1046500010B516E000F050FD0C48C068C468201D7D
:1046600000F0E8FC0A480068401E09490860094853
:104670000068401E0749086000F068FD204600F011
:104680005FF8044800680028E4D110BD140B002036
:104690002C0000202800002070B504460D46206C38
:1046A00070B1216CE0680144E160D4E902108842F5
:1046B00001D32168E1602846226CE168FBF723FE04
:1046C00070BD2DE9F04104460F4615464FF0000835
:1046D000A66B206C48B9206800282CD1A06801F096
:1046E00053FC80460020A06025E07DB93946226C4D
:1046F0006068FBF708FE216C606808446060D4E9DC
:104700000101884217D32068606014E03946226CAA
:10471000E068FBF7F8FD216CE068411AE160216870
:10472000E068884203D2216CA068411AE160022D42
:1047300001D106B1761E701CA0634046BDE8F08131
:1047400010B5044694F8590030B9206B00F01CFDF8
:10475000204600F019FD1AE094F85900012803D111
:10476000204600F011FD12E094F85900022801D112
:10477000012000E0002050B900BF502080F31188D4
:10478000BFF34F8FBFF36F8F00BF00BFFEE710BDB9
:104790000146084A126812680AB9012200E00022A4
:1047A0000A600A6822B9034A1268D268106800E0F9
:1047B000002070475800002030B54FF47053174860
:1047C00000F007042CB1C01D20F00700134C041B9F
:1047D0001B1B0246124C22600024114D6C60D01845
:1047E000083820F007000F4C206000240D4D2D6884
:1047F0006C600C4D2D682C601146441A4C60094CBD
:1048000024680C60084D4C682C60084D4C682C6086
:104810004FF00044064D2C6030BD00000C19002004
:104820007000002078000020800000207C00002024
:104830008400002000BFFFF70BFF06480068012836
:10484000F9D94FF0805004490860BFF34F8FBFF390
:104850006F8FF0E77806002004ED00E02DE9F041CD
:1048600006460D4617469846069C0DB9246000E0A2
:104870002760E66325640121204600F0A7FF84F845
:104880004C80BDE8F0812DE9F05F82460E469046EF
:104890009B460A9F0C9C4FEA8801A522206BFBF7E0
:1048A00044FDA8F10100216B01EB800929F0070903
:1048B00009F0070008B9012000E0002050B900BF4E
:1048C000502080F31188BFF34F8FBFF36F8F00BF6D
:1048D00000BFFEE786B1002507E0715D04F13400FA
:1048E0004155705D00B902E06D1C102DF5D300BF7D
:1048F00000214320015502E0002084F83400382FC5
:1049000000D33727E762E76400202065201D00F010
:10491000CAFB04F1180000F0C6FB2461C7F138009F
:10492000A06164620020606584F858005A465146D0
:10493000484600F069FB20600B9808B10B980460B2
:10494000BDE8F09F10B5002407E004EB84010F4A96
:1049500002EB810000F09AFB641C382CF5D30C4864
:1049600000F094FB0B4800F091FB0B4800F08EFB2D
:104970000A4800F08BFB0A4800F088FB044809490C
:10498000086004480849086010BD0000780600204F
:10499000D80A0020EC0A0020000B0020140B002095
:1049A000280B0020200000202400002010B5014624
:1049B000164800E0006803688B42FBD30246436858
:1049C00013448B4204D143684C682344436001463E
:1049D0000A464B6813440468A34211D10C4C036887
:1049E0002468A34208D04B680468646823444B6081
:1049F00003681B680B6005E0054B1B680B6001E05A
:104A000003680B60884200D0016010BD7000002078
:104A1000780000202DE9F04104460D4616461F4659
:104A20004FF0000865602461B5420CD8F01BA16905
:104A3000884202D34FF0010811E0211D09480068A7
:104A400000F034FB0BE0BE4204D2BD4202D34FF073
:104A5000010804E0211D0448006800F027FB4046DF
:104A6000BDE8F0815C0000205800002070B50546CC
:104A700000F042FBA86B08B9012400E0002400F01C
:104A800065FB204670BD70B5054600F035FBA86B90
:104A9000E96B884201D1012400E0002400F056FBBC
:104AA000204670BDF8B505460F461A480068C06834
:104AB000C468201D00F0BEFA94F8280000F004003D
:104AC000E8B1A06941192B463A462046FFF7A2FFFC
:104AD000D8B1002003462A4601460090204601F046
:104AE000AFFB064656B900BF502080F31188BFF3D4
:104AF0004F8FBFF36F8F00BF00BFFEE705E094F854
:104B0000280020F0010084F828002046216A884708
:104B1000F8BD000058000020F0B587B0A0E0039871
:104B2000002811DA04AE56B900BF502080F3118876
:104B3000BFF34F8FBFF36F8F00BF00BFFEE7D6E913
:104B40000020B168904700BF03980028E6DB059C71
:104B5000606908B9012000E0002010B9201D00F0B4
:104B600069FA02A800F0DEF8054603980A2875D213
:104B7000DFE800F009050739416306083A4200BF43
:104B800000BF00BF00BF94F8280040F0010084F887
:104B900028000498A269811803462A462046FFF798
:104BA00039FFF8B12046216A884794F8280000F0C0
:104BB0000400B8B1002000900498A16942180023B5
:104BC0001946204601F03CFB074657B900BF50206C
:104BD00080F31188BFF34F8FBFF36F8F00BF00BF0B
:104BE000FEE700BF3BE000BF94F8280020F0010082
:104BF00084F8280033E000BF94F8280040F001005A
:104C000084F828000498A061A06908B1012000E0A0
:104C1000002050B900BF502080F31188BFF34F8FA0
:104C2000BFF36F8F00BF00BFFEE7A06941192B469D
:104C30002A462046FFF7EEFE11E094F8280000F027
:104C4000020018B9204600F09FFA05E094F8280009
:104C500020F0010084F8280001E0FFE700BF00BF5A
:104C6000002203A90448006800F04CFF00287FF4EC
:104C700056AF07B0F0BD000060000020F8B5054653
:104C80000C4600F02FFC684600F04CF806460098F1
:104C900020BB44B9B54206D801F014FA3146284683
:104CA000FFF700FF1CE03CB10E480068006808B93F
:104CB000012000E000200446A91B22460A480068A3
:104CC00000F012FB01F0FEF950B94FF08050074997
:104CD0000860BFF34F8FBFF36F8F01E001F0F2F96F
:104CE000F8BD00005C0000206000002004ED00E042
:104CF0000A490968096809B9012100E0002121B1C8
:104D00004FF0FF31064A116006E004490968C9689E
:104D1000C868034A41681160704700002000002005
:104D20004C00002070B5044601F086F8054607489F
:104D30000068854204D200F00BF80120206001E0F9
:104D40000020206001480560284670BD68000020F2
:104D50002DE9F84334E025480068C0680568234819
:104D60000068C068C468201D00F064F92046216A0C
:104D7000884794F8280000F0040008B3A069461999
:104D8000AE4207D966602461211D1848006800F012
:104D90008DF915E0002003462A4601460090204682
:104DA00001F04EFA074657B900BF502080F3118832
:104DB000BFF34F8FBFF36F8F00BF00BFFEE700BF91
:104DC0000A480068006808B9012000E000200028B7
:104DD000C1D00648D0F80080054800680349086043
:104DE0000348C0F80080BDE8F883000058000020A8
:104DF0005C0000200E480068401C08B9012000E05B
:104E0000002050B900BF502080F31188BFF34F8FAE
:104E1000BFF36F8F00BF00BFFEE700BF502080F3DD
:104E20001188BFF34F8FBFF36F8F00BF00BFFEE746
:104E30008800002008B500BF6846FFF7A9FC0446BB
:104E400020460099FFF71AFFFFF766FEF4E770B5FA
:104E5000044600F051F994F9455010E0606A08B931
:104E6000012000E0002038B904F1240001F0DEF850
:104E700018B100F099FA00E003E0681E45B2002D79
:104E8000ECDC00BFFF2084F8450000F05FF900F083
:104E900033F994F9445010E0206908B9012000E08A
:104EA000002048B904F1100001F0C0F808B100F08A
:104EB0007BFA681E45B200E001E0002DECDC00BF8B
:104EC000FF2084F8440000F041F970BD2DE9F04165
:104ED00004464FF0000800F005FB4648006808B99A
:104EE000FFF76AFC44480068204000286BD1D4B129
:104EF000083404F00700B0B104F00700C0F1080066
:104F0000044404F0070008B9012000E0002050B973
:104F100000BF502080F31188BFF34F8FBFF36F8F16
:104F200000BF00BFFEE7002C4DD03448006884422B
:104F300049D8334E3046056801E02E462D68686832
:104F4000A04202D228680028F7D12A48006885428A
:104F500039D0306800F10808286830606868001BA4
:104F6000102819D92F1907F0070008B9012000E00F
:104F7000002050B900BF502080F31188BFF34F8F3D
:104F8000BFF36F8F00BF00BFFEE76868001B78604B
:104F90006C603846FFF70AFD184968680968081A06
:104FA000164908600846006816490968884203D215
:104FB00012480068134908600F4968680968084387
:104FC00068600020286001F07DF808F0070008B94B
:104FD000012000E0002050B900BF502080F311886C
:104FE000BFF34F8FBFF36F8F00BF00BFFEE7404698
:104FF000BDE8F08178000020840000207C000020C3
:105000007000002080000020001F4FF080730360BC
:10501000001F21F001030360001F054B03601438DB
:105020000260001F6FF00203036020387047000029
:10503000F54D000801460A69D1E901309860D1E9CF
:10504000010358605068884201D188685060002090
:1050500008611068401E106010687047034B0360C1
:10506000034B0B604FF4807313607047540C0020A7
:10507000B00C0020034B0360034B0B604FF4007334
:1050800013607047B01000200C11002000F10801DF
:1050900041604FF0FF31816000F10801C1600161A2
:1050A00000210160704700210161704710B5024680
:1050B0000B685C1C0CB9106907E002F1080000E005
:1050C0004068446824689C42FAD944684C604C6843
:1050D000A160886041600A611468641C146010BD9E
:1050E00042684A6093688B60936859609160086178
:1050F00003685B1C0360704700BF502080F3118879
:10510000BFF34F8FBFF36F8F00BF0E480068401C86
:105110000C49086008460068012812D10A48006856
:10512000C0B208B9012000E0002050B900BF5020F3
:1051300080F31188BFF34F8FBFF36F8F00BF00BFA5
:10514000FEE770478800002004ED00E00D4800688D
:1051500050B900BF502080F31188BFF34F8FBFF3C9
:105160006F8F00BF00BFFEE706480068401E05497C
:1051700008600846006820B9002080F3118800BF4D
:1051800000BF70478800002070B506463546002EE7
:105190003FD0083D2C461F4960680968084008B1A7
:1051A000012000E0002050B900BF502080F311889A
:1051B000BFF34F8FBFF36F8F00BF00BFFEE72068C4
:1051C00008B9012000E0002050B900BF502080F352
:1051D0001188BFF34F8FBFF36F8F00BF00BFFEE793
:1051E0000C4960680968084098B1206888B9094985
:1051F000606809688843606000F074F90649606877
:1052000009680844044908602046FFF7CFFB00F016
:1052100059FF70BD840000207C00002000204FF06A
:10522000E02108618861064800686421B0FBF1F064
:10523000401E4FF0E02148610720086170470000E0
:105240001800002070B5FBF717F80446102C16D391
:1052500004F1E02090F8F05315480078854201DB16
:10526000012000E0002050B900BF502080F31188D9
:10527000BFF34F8FBFF36F8F00BF00BFFEE70D4836
:10528000006800F4E0600C490968884201D80120F8
:1052900000E0002050B900BF502080F31188BFF318
:1052A0004F8FBFF36F8F00BF00BFFEE770BD0000E0
:1052B0008C0000200CED00E0900000200246002051
:1052C0000BE0084B53F8303033B9064B43F830103D
:1052D00003EBC0035A6002E0401C0828F1D300BF72
:1052E00070470000380600202DE9F04105460E46C3
:1052F00017462C46FFF700FF94F94400401C10B9F4
:10530000002084F8440094F94500401C10B90020A6
:1053100084F84500FFF71AFFA06B28B93A463146DA
:1053200004F1240000F062F82046FFF790FDBDE88C
:10533000F081000070B504460025D4B11248006821
:1053400008B9012000E0002050B900BF502080F3D0
:105350001188BFF34F8FBFF36F8F00BF00BFFEE711
:1053600000F0C0F800212046FFF79EF800F0AAFEEA
:1053700005463DB94FF0805004490860BFF34F8F98
:10538000BFF36F8F70BD00005400002004ED00E0FB
:1053900003490968016003490968416070470000DA
:1053A00044000020300000200120014908607047BF
:1053B0004000002070B504460D4654B900BF50208F
:1053C00080F31188BFF34F8FBFF36F8F00BF00BF13
:1053D000FEE70548016818312046FFF767FE012106
:1053E0002846FFF761F870BD1C00002070B5054627
:1053F0000E46144655B900BF502080F31188BFF304
:105400004F8FBFF36F8F00BF00BFFEE706480168F4
:1054100018312846FFF764FE0CB14FF0FF362146E5
:105420003046FFF741F870BD1C00002010B586B073
:1054300000200590049003AA04A905A8FFF70EFE1A
:105440000022DDE904101346CDE9002102901EA1DF
:105450001F48039A00F082FC1E4908600846006855
:1054600008B1012400E00024012C02D100F0ACFEC0
:105470000446012C15D100BF502080F31188BFF3E2
:105480004F8FBFF36F8F00BF4FF0FF30124908609E
:1054900001201249086000201149086000F072F8EC
:1054A00010E0601C08B1012000E0002050B900BFEE
:1054B000502080F31188BFF34F8FBFF36F8F00BF71
:1054C00000BFFEE706B010BD49444C450000000097
:1054D00035480008500000204C0000203800002013
:1054E0003000002002480068401C014908607047F5
:1054F000540000201E48006818B101201D490860B2
:1055000034E000201B4908601B4801680CE051B9D9
:1055100000BF502080F31188BFF34F8FBFF36F8F10
:1055200000BF00BFFEE7491E01EB8100134A52F89D
:10553000200008B9012000E000200028E7D101EB9D
:1055400081020E4B03EB820042685268426000F118
:1055500008024368934202D142685268426042683E
:10556000D268074B1A600448016000BF7047000012
:105570005400002040000020340000207806002065
:105580001C0000201CB5524800685249884201D0D6
:10559000012000E0002050B900BF502080F31188A6
:1055A000BFF34F8FBFF36F8F00BF00BFFEE74848C8
:1055B00000684849491E884201D0012000E00020CF
:1055C00050B900BF502080F31188BFF34F8FBFF355
:1055D0006F8F00BF00BFFEE73F490846007801908B
:1055E000FF200A4610700846007800909DF80000E1
:1055F00000F0F0009DF80020904201D1012000E071
:10560000002050B900BF502080F31188BFF34F8FA6
:10561000BFF36F8F00BF00BFFEE79DF8000000F0F2
:1056200050002E4A107007202D4A106009E02C48C7
:105630000068401E2A4A10609DF800004006000ED7
:1056400000909DF8000000F080008028EFD02448F2
:105650000068C0F10700042801D1012000E000200B
:1056600050B900BF502080F31188BFF34F8FBFF3B4
:105670006F8F00BF00BFFEE7194800680002184A9C
:1056800010601046008800F4E0601060124A019833
:1056900010700F482030006840F470000C49203131
:1056A00008600846006840F070400860FFF7B6FDEB
:1056B00000200C490860FAF7A7FD0B48006840F08D
:1056C000404009490860FAF78BFD00201CBD00002E
:1056D00000ED00E071C20F4100E400E08C0000200A
:1056E000900000208800002034EF00E02DE9F8430E
:1056F00080460E4617461D46DDF82090B8F1000F93
:1057000001D0012000E0002050B900BF502080F3FC
:105710001188BFF34F8FBFF36F8F00BF00BFFEE74D
:105720000DB1012000E0002050B900BF502080F3EF
:105730001188BFF34F8FBFF36F8F00BF00BFFEE72D
:1057400007B10EB1012000E0002050B900BF502089
:1057500080F31188BFF34F8FBFF36F8F00BF00BF7F
:10576000FEE707B90EB9012000E0002050B900BFE4
:10577000502080F31188BFF34F8FBFF36F8F00BFAE
:1057800000BFFEE7502000900098502801D1012072
:1057900000E0002050B900BF502080F31188BFF313
:1057A0004F8FBFF36F8F00BF00BFFEE700BF2C46D7
:1057B0004CB1012084F846004B463A4631464046FB
:1057C0000094FFF74BF82046BDE8F88370B5054616
:1057D0000E462C4654B900BF502080F31188BFF309
:1057E0004F8FBFF36F8F00BF00BFFEE7FFF784FC52
:1057F000D4E90F12206801FB0200A0600020A06322
:1058000020686060E06B401E226C216800FB021182
:10581000E160FF2084F8440084F845009EB92069C7
:1058200008B9012000E00020A8B904F1100000F040
:10583000FDFB80B14FF0805009490860BFF34F8FE6
:10584000BFF36F8F07E004F11000FFF71FFC04F1B6
:105850002400FFF71BFCFFF779FC012070BD00005E
:1058600004ED00E02DE9FF4383B0064688461D465F
:105870004FF00009344654B900BF502080F311881E
:10588000BFF34F8FBFF36F8F00BF00BFFEE7B8F1CC
:10589000000F01D1206C08B9012000E0002050B9B0
:1058A00000BF502080F31188BFF34F8FBFF36F8F7D
:1058B00000BF00BFFEE7022D02D1E06B012801D13D
:1058C000012000E0002050B900BF502080F3118873
:1058D000BFF34F8FBFF36F8F00BF00BFFEE700F035
:1058E0009BFA08B9059808B9012000E0002050B9DA
:1058F00000BF502080F31188BFF34F8FBFF36F8F2D
:1059000000BF00BFFEE700BFFFF7F6FBA06BE16B37
:10591000884201D3022D28D12A4641462046FEF76F
:10592000D0FE0746606A08B9012000E0002068B98F
:1059300004F1240000F07AFB88B14FF08050324926
:105940000860BFF34F8FBFF36F8F08E03FB14FF098
:1059500080502D490860BFF34F8FBFF36F8FFFF763
:10596000F5FB012007B0BDE8F083059818B9FFF7F3
:10597000EDFB0020F6E7B9F1000F04D101A8FFF715
:1059800007FD4FF00109FFF7E1FBFFF7ABFDFFF764
:10599000B3FB94F94400401C10B9002084F8440083
:1059A00094F94500401C10B9002084F84500FFF729
:1059B000CDFB05A901A800F059F9F0B92046FFF781
:1059C00062F8A0B104F110000599FFF7F3FC20463E
:1059D000FFF73DFA00F076FB002895D14FF080509C
:1059E00009490860BFF34F8FBFF36F8F8CE72046E4
:1059F000FFF72DFA00F066FB86E72046FFF727FA4F
:105A000000F060FB0020ADE704ED00E02DE9F05F61
:105A100007468A4690461E463C4654B900BF502071
:105A200080F31188BFF34F8FBFF36F8F00BF00BFAC
:105A3000FEE7BAF1000F01D1206C08B9012000E0A7
:105A4000002050B900BF502080F31188BFF34F8F62
:105A5000BFF36F8F00BF00BFFEE7022E02D1E06BE5
:105A6000012801D1012000E0002050B900BF5020E2
:105A700080F31188BFF34F8FBFF36F8F00BF00BF5C
:105A8000FEE7FFF7DFFB00BF5021EFF3118081F34A
:105A90001188BFF34F8FBFF36F8F00BF0546A06B18
:105AA000E16B884201D3022E23D194F945B03246EE
:105AB00051462046FEF705FE0BF1010088B9606AE9
:105AC00008B9012000E0002080B904F1240000F0B2
:105AD000ADFA58B1B8F1000F08D00120C8F80000A5
