:020000040800F2
:100000001848022081020008794800082F330008B0
:10001000754800089F0A00082952000800000000E7
:10002000000000000000000000000000C101000806
:100030002F0C0008000000001D020008E94800081D
:100040009B0200089B0200089B0200089B0200081C
:100050009B0200089B0200089B0200089B0200080C
:100060009B020008310C00089B0200089B0200085C
:10007000A50A0008B50A0008C50A0008D50A000844
:10008000E50A0008F50A00089B0200089B02000828
:100090009B0200089B0200089B0200083B0C000822
:1000A0009B0200080D4A00089B0200089B02000802
:1000B0009B0200089B0200089B0200089B020008AC
:1000C0009B02000845330008353300089B020008F6
:1000D0009B0200089B0200086D5100089D5100081A
:1000E0009B0200089B0200089B0200089B0200087C
:1000F0009B0200089B0200089B0200089B0200086C
:100100009B0200089B0200089B0200089B0200085B
:10011000F54A00089B0200089B0200089B020008A9
:100120009B020008050B00089B0200089B020008C8
:100130009B0200089B0200089B0200089B0200082B
:100140009B0200089B0200089B0200089B0200081B
:100150009B020008150B00089B020008E9510008EB
:100160009B0200089B0200089B0200089B020008FB
:100170009B0200089B0200089B0200080000000090
:100180009B0200089B020008054B0008154B000865
:100190009B0200089B0200089B0200089B020008CB
:1001A0009B0200089B0200089B020008DFF80CD0AD
:1001B00000F096FA004800477D65000818480220C4
:1001C0002C4B19680868B0E8F04F80F30988BFF33A
:1001D0006F8F4FF0000080F311887047000000001F
:1001E00008480068006880F308884FF0000080F33A
:1001F000148862B661B6BFF34F8FBFF36F8F00DF15
:1002000000BF00BF08ED00E0DFF80C00016841F41A
:1002100070010160704700BF88ED00E0EFF30980D6
:10022000BFF36F8F134B1A681EF0100F08BF20ED3D
:10023000108A20E9F04F106009B44FF0300080F3CD
:100240001188BFF34F8FBFF36F8F08F0FDF94FF0A8
:10025000000080F3118809BC19680868B0E8F04F05
:100260001EF0100F08BFB0EC108A80F30988BFF3AE
:100270006F8F704730000020EFF30580704700005B
:100280000648804706480047FEE7FEE7FEE7FEE730
:10029000FEE7FEE7FEE7FEE7FEE7FEE7F1490008BE
:1002A000AD0100082DE9F05F0546002092469B460F
:1002B00088460646814640241BE02846414647467C
:1002C000224600F0BAF953465A46C01A914110D35B
:1002D00011461846224600F0A1F92D1A67EB0108D5
:1002E0004F4622460120002100F098F917EB000943
:1002F0004E41201EA4F10104DFDC484631462A4667
:100300004346BDE8F09F40EA01039B0703D009E0A4
:1003100008C9121F08C0042AFAD203E011F8013BF1
:1003200000F8013B521EF9D27047D2B201E000F84A
:10033000012B491EFBD270470022F6E710B5134689
:100340000A4604461946FFF7F0FF204610BD421C3E
:1003500010F8011B0029FBD1801A704710B500224C
:1003600000E0521C835C8C5CA34201D1002BF8D1CD
:10037000D8B2E1B2401A10BD034611F8012B00F8C3
:10038000012B002AF9D11846704700000FB400B5C0
:100390008DB010A909900B9000914FF0FF300A909A
:1003A00000200C9005480690054807906A4609A869
:1003B0000F9900F067F90DB05DF814FBA106000875
:1003C000BF0600082DE9FF5F1D464FF0FF3BD5E952
:1003D000014691465F464FF00008A9697F1C0198CD
:1003E0008847296A824688470028F6D1BAF1FF3F3C
:1003F0000CD024F4C064002E19DD600614D5BAF1C7
:100400002B0F09D0BAF12D0F0ED103E0584604B0DE
:10041000BDE8F09F44F48064A9697F1C0198884777
:10042000761E8246002E02DDBAF1300F03D0B9F1FC
:10043000000F26D032E0A969761E44F400747F1CB8
:10044000019888478246002E05DDBAF1780F06D064
:10045000BAF1580F03D0B9F1000F10D01EE0B9F176
:10046000000F02D0B9F1100F18D1A969761E24F43B
:1004700000747F1C019888478246102002E0082003
:1004800000E00A20814609E008FB0908A969761EF8
:1004900044F400747F1C019888478246002E05DDD5
:1004A0004946504600F0D9F80028EDDAE96901988C
:1004B0008847A00502D46FF00100A8E7E00725D126
:1004C000600613D5600502D5C8F1000000E0404683
:1004D00029680A1D2A600968220501D5087015E0FF
:1004E000220701D5088011E008600FE02868011D8F
:1004F00029600068210502D580F8008006E0210708
:1005000002D5A0F8008001E0C0F8008038467EE700
:100510002DE9FF5FD2E901A74FF0000891699946E4
:100520001446DDF838B0464601988847054659EA32
:100530000B0005D009E0A169761C019888470546A3
:10054000216A284688470028F5D1681C03D05FEA55
:10055000CA7005D015E04FF0FF3004B0BDE8F09F41
:100560002068011D2160D0F800800AE05FEACA70AF
:1005700001D108F8015BA169761C7F1E01988847AC
:100580000546002F1ADD681C18D0B9F1000F0DD0F8
:10059000E81705EBD060421120F01F0059F8221037
:1005A0002A1A012090400142E0D107E0BBF1000F80
:1005B000DCD1216A284688470028D7D0E169019814
:1005C0008847BBF1000F07D1002E05DD5FEACA7036
:1005D00002D1002188F80010A068B84203DDBBF109
:1005E000000F03D017B16FF00100B6E73046B4E753
:1005F00030B50B46014600202022012409E021FAF3
:1006000002F59D4205D303FA02F5491B04FA02F5EF
:100610002844151EA2F10102F1DC30BD202A04DBC2
:10062000203A00FA02F1002070479140C2F1200305
:1006300020FA03F3194390407047202A04DB203A44
:1006400021FA02F00021704721FA02F3D040C2F1F2
:10065000200291400843194670473A2800D23038AA
:1006600020F02002412A01D3A2F13700884201D3B1
:100670004FF0FF30704700000268114413780160AA
:1006800018467047D1600449516104491162002144
:100690001161114600F03CB8790600080507000812
:1006A000426842B1016811F8013B23B1521EC0E912
:1006B0000012184670470121C160881E70474268C9
:1006C0005AB1C368016843B983688B4205D0491E9B
:1006D000521CC0E90012002070474FF0FF307047F5
:1006E000064C074D06E0E06840F0010394E807007F
:1006F00098471034AC42F6D3FFF75CFD08A300081E
:1007000038A30008C0B24FF4F05100F097B90000D0
:100710002DE9F34F8BB04FF0000801F10C000C46AF
:100720004FF0010B46460DF1080A01906269012164
:1007300001989047051E2DD0252D2CD0216A884781
:10074000C0B16269012101989047216A8847002859
:10075000F7D1411E62690198904700E0761CA169BB
:100760000B988847216A88470028F7D1E1690B98E0
:100770008847DBE7A1690B9888470746A84201D163
:10078000761CD3E7E1690B9888477F1C02D1B8F14A
:10079000000F6FD046E1002762693D463946019857
:1007A00090472A2804D162690121019890470125C8
:1007B000DFF884926269012101989047A0F130012D
:1007C0000A290AD24F45E5DC07EB870100EB410718
:1007D000303FDFD445F01005ECE7E90601D46FF0B7
:1007E00000476C280AD04C2814D0682815D06A28F5
:1007F0000DD074281CD07A281AD01DE0626901211E
:10080000019890476C2802D045F0040514E045F0AB
:1008100002050DE045F020050AE06269012101981A
:100820009047682802D045F0080505E045F40065CA
:100830006269012101989047C4E9015765283DD0BC
:1008400019DC58287AD00CDC452837D004DC252860
:1008500026D0412831D131E046282FD047282CD14D
:100860002CE05B2877D0612828D063287CD06428CE
:1008700023D15AE0D0E06F2848D008DC66281DD08C
:1008800067281BD0692821D06E2816D127E0702850
:1008900045D0732868D0752847D078280DD14DE011
:1008A000A1690B988847054625283FF469AFE1699F
:1008B0000B9888476D1C3FF46AAFB3E023466A4645
:1008C0006FF001000B99AFF300809EE045F040000F
:1008D0006060A80723464FF0000236D43EE0E807E8
:1008E0007FF447AF2068011D21600068290501D50C
:1008F00006701BE7290701D5068017E7A90703D56E
:10090000F117C0E9006111E706600FE745F040000C
:100910006060A80723464FF0080216D41EE040F698
:100920000E0125EA0100606016E045F040006060BD
:10093000A80723464FF00A0207D40FE045F0400015
:100940006060A80708D5234610226FF001000B99BC
:10095000AFF3008059E007E0234610226FF001005A
:100960000B99FFF72FFD50E04FF000094F464B4623
:10097000632802D05B2806D040E0E80601D40120BD
:10098000A06001273AE062690121019890475E2842
:1009900005D14FF0010962694946019890472169E4
:1009A00039B900210A46534643F82120491C082939
:1009B000FADBB0B3216969B9C11700EBD1625311F9
:1009C0000AEB830122F01F02821A01200B6890407B
:1009D00003430B6062690121019890475D28E8D1CB
:1009E000B9F1000F09D00020514651F82020D24320
:1009F00041F82020401C0828F7DB02AB2246009774
:100A00006FF001000B99FFF783FD00280CDA401C02
:100A100008D1BBF1000F05D04FF0FF300DB0BDE89D
:100A2000F08FFFE74046F9E7E90701D108F1010837
:100A300006444FF0000B79E6CCCCCC0C7F2801D9D2
:100A4000002208E0064A02EB5002C007127800D1EB
:100A5000120902F00F020120904008407047000088
:100A600040A1000830B58C1810F8012B12F00F03CC
:100A700001D110F8013B120906D110F8012B03E057
:100A800010F8015B01F8015B5B1EF9D101E001F890
:100A9000013B521EFBD1A142E6D3002030BD00BF76
:100AA000FEE7000010B5024800F066F910BD000036
:100AB0005005002010B5024800F05EF910BD00009E
:100AC0007003002010B5024800F056F910BD000078
:100AD000F004002010B5024800F04EF910BD0000EF
:100AE000D003002010B5024800F046F910BD000008
:100AF0003004002010B5024800F03EF910BD00009F
:100B00009004002010B5024800F036F910BD000036
:100B1000B005002010B5024800F02EF910BD00000D
:100B2000100600200146087810381823B0FBF3F2B5
:100B30000848805CC865032A05D908686FF3090076
:100B4000001D886503E008686FF309008865886DFB
:100B50007047000068A00008014600208A6A8B697F
:100B6000CBB932B1012A0DD0022A03D0032A10D109
:100B70000EE000BFCB6A03F08073B3F1807F00D139
:100B8000012007E0CB6AB3F1C07F00D1012001E072
:100B900000E000BF34E08B69B3F5005F1AD132B1D9
:100BA000012A07D0022A03D0032A11D10AE000BF8C
:100BB00001200EE0CB6A03F08073B3F1807F00D197
:100BC000012006E0CB6AB3F1C07F00D1012000E034
:100BD00000BF15E032B1012A05D0022A04D0032A51
:100BE0000CD103E000BF00BF012008E0CB6A03F096
:100BF0008073B3F1807F00D1012000E000BF00BF0F
:100C0000704730B50468246824F4802405682C609B
:100C1000046863608468402C04D10468A26004689E
:100C2000E16003E00468A1600468E26030BD7047E1
:100C300010B5082000F084FA10BD10B54FF4007014
:100C400000F07EFA10BD704710B504460CB90120C3
:100C500010BD607920B900202071204600F004F812
:100C6000012060710020F3E708B50A4A016891424B
:100C70000FD100BF002100910749096841F480515C
:100C8000054A11601146096801F48051009100BFC6
:100C900000BF08BD003002403038024070B5044645
:100CA000A56D00F079FB064694F83500022808D0BF
:100CB0008020606500BF002084F8340000BF012060
:100CC00070BD2068006820F0160021680860206868
:100CD000406920F0800021684861206C08B9A06C50
:100CE00028B12068006820F00800216808602068AA
:100CF000006820F00100216808600FE000F04CFB64
:100D0000801B05280AD92020606500BF002084F8D8
:100D1000340000BF032084F83500D1E72068006864
:100D200000F001000028E9D194F85C103F208840D1
:100D3000A86000BF002084F8340000BF012084F8C0
:100D400035000020BCE7014691F83500022803D0A9
:100D50008020486501207047052081F8350008682B
:100D6000006820F001000A6810600020F3E70146E7
:100D700091F8350070470000F8B504460020009057
:100D80008C4800684FF41651B0FBF1F7A56D2E6842
:100D900094F85C1008208840304098B120680068C2
:100DA00000F0040070B12068006820F004002168A1
:100DB000086094F85C1008208840A860606D40F0DE
:100DC0000100606594F85C1001208840304068B1F3
:100DD0002068406900F0800040B194F85C10012068
:100DE0008840A860606D40F00200606594F85C1077
:100DF00004208840304068B12068006800F002009C
:100E000040B194F85C1004208840A860606D40F008
:100E10000400606594F85C1010208840304078B37E
:100E20002068006800F0080050B394F85C101020AF
:100E30008840A8602068006800F4802080B12068A5
:100E4000006800F4002028B9206CC8B12046216C4D
:100E5000884715E0A06C98B12046A16C88470FE048
:100E60002068006800F4807028B92068006820F0CD
:100E7000080021680860206C10B12046216C88476A
:100E800094F85C10202088403040002865D020680D
:100E9000006800F0100000285FD094F85C1020205B
:100EA0008840A86094F83500052828D1206800689B
:100EB00020F01600216808602068406920F080005A
:100EC00021684861206C08B9A06C28B120680068CE
:100ED00020F008002168086094F85C103F208840EA
:100EE000A86000BF002084F8340000BF012084F80F
:100EF0003500206D10B12046216D8847F8BD20686F
:100F0000006800F4802080B12068006800F40020B0
:100F100028B9606C10B12046616C88471DE0E06B19
:100F2000D8B12046E16B884717E02068006800F4DC
:100F3000807068B92068006820F01000216808609F
:100F400000BF002084F8340000BF012084F8350081
:100F5000E06B10B12046E16B8847606D38B3606D7F
:100F600000F00100F0B1052084F835002068006829
:100F700020F001002168086000BF0098401C00902C
:100F8000B84200D905E02068006800F001000028A0
:100F9000F3D100BF00BF002084F8340000BF01205F
:100FA00084F83500E06C10B12046E16C884700BF42
:100FB000A4E700002C0000202DE9F04104460025A4
:100FC00000F0EAF9074614B90120BDE8F081606A33
:100FD00000B100BF00BF002084F8340000BF022031
:100FE00084F835002068006820F00100216808605E
:100FF0000AE000F0D1F9C01B052805D92020606562
:10100000032084F83500E0E72068006800F0010064
:101010000028EED12068056821480540D4E9010187
:101020000843E16808432169084361690843A169ED
:101030000843E1690843216A08430543606A0428BC
:1010400003D1D4E90B0108430543206805602068FB
:10105000456925F00705606A0543606A04280DD1DB
:10106000A06A0543E06A48B12046FFF775FD28B144
:1010700040206065012084F83500A6E720684561BE
:101080002046FFF74FFD064694F85C103F2088404D
:10109000B06000206065012084F83500002094E7EE
:1010A0003F8010F02DE9F04704460D4616461F46D6
:1010B0004FF00008D4F8589000BF94F8340001288D
:1010C00002D10220BDE8F087012084F8340000BF7F
:1010D00094F83500012825D1022084F8350000203D
:1010E00060653B46324629462046FFF78AFD94F864
:1010F0005C103F208840C9F808002068006840F074
:10110000160021680860206C28B12068006840F053
:101110000800216808602068006840F0010021682C
:10112000086006E000BF002084F8340000BF4FF0E4
:1011300002084046C6E7082800D000BF70470000FC
:1011400010B5044604480068204020B102480460FD
:101150002046FFF7F0FF10BD143C0140F8B50246F1
:101160000B460025002400200021E6E0012606FAB7
:1011700001F51E6806EA0504AC4273D15E68012ED3
:1011800008D05E68022E05D05E68112E02D05E681F
:10119000122E13D190684F000326BE40B0434F007B
:1011A000DE68BE4030439060506801268E40B043F8
:1011B0001E79C6F300168E4030435060D0684F0051
:1011C0000326BE40B0434F009E68BE403043D0600F
:1011D0005E68022E02D05E68122E13D1CF0802F193
:1011E000200656F827004E07F70E0F26BE40B043E4
:1011F0004F07FF0E1E69BE403043CF0802F12006A4
:1012000046F8270010684F000326BE40B0431E7901
:1012100006F003064F00BE40304310605E6806F0E3
:101220008056B6F1805FA8D100BF00260096454EDB
:10123000366846F48046434F3E603E46366806F4C4
:101240008046009600BF00BF3F4E8F0856F827002B
:101250008E07370F0F26BE40B0433C4EB24202D13C
:1012600000262EE068E03A4EB24201D1012628E085
:10127000384EB24201D1022623E0374EB24201D1AC
:1012800003261EE0354EB24201D1042619E0344E49
:10129000B24201D1052614E0324EB24201D10626F7
:1012A0000FE0314EB24201D107260AE02F4EB24282
:1012B00001D1082605E02E4EB24201D1092600E0F8
:1012C0000A268F073F0FBE4030431F4E8F0846F857
:1012D0002700284E3068A0435E6806F48036B6F5D5
:1012E000803F00D12043234E3060361D3068A0433C
:1012F0005E6806F40036B6F5003F00D120431D4E6F
:10130000361D3060361D3068A0435E6806F48016D6
:10131000B6F5801F00D12043164E08363060361DCA
:101320003068A0435E6806F40016B6F5001F00D1D1
:101330002043104E0C363060491C1029FFF416AFC4
:10134000F8BD000044380240083801400000024067
:101350000004024000080240000C0240001002405D
:101360000014024000180240001C0240002002400D
:1013700000240240003C014042690A408A4202D1F6
:101380000A04826100E0816170470AB1816101E075
:101390000B0483617047000001480068704700003B
:1013A00020000020024692F83D0020281ED1242073
:1013B00082F83D001068006820F001001368186092
:1013C0001068406A20F01000136858621068406A84
:1013D0000843136858621068006840F00100136801
:1013E0001860202082F83D00002070470220FCE7B2
:1013F00010B502460B46002192F83D0020281DD171
:10140000242082F83D001068006820F00100146874
:1014100020601068406A81B221F00F0141EA0300A8
:1014200081B2106841621068006840F001001468E1
:101430002060202082F83D00002010BD0220FCE743
:10144000704770472DE9F84F0446206847692068C7
:10145000D0F80480002594F83E90C7F3002040B1F6
:10146000C8F3002028B145F001056FF480702168B1
:101470004861C7F3402040B1C8F3002028B145F0CF
:1014800002056FF4007021684861C7F3802070B3D3
:10149000C8F3002058B3CA46B4F82AB094F83D60A7
:1014A000206B0090BAF1200F0FD1BBF1000F0CD1CF
:1014B000212E06D0292E04D0282E06D100982128CE
:1014C00003D1204602F08EFC11E06FF480602168A9
:1014D000486145F00405B9F1100F02D0B9F1400F91
:1014E00005D12068006840F4007021680860C7F3E7
:1014F000C02040B1C8F3002028B145F008056FF4C2
:101500000060216848612DB1206C2843206420468A
:1015100001F084FFBDE8F88F2DE9F047054600276C
:1015200028684668D5F82C8095F83E9095F83DA03F
:10153000B9F1100F02D0B9F1400F78D1286887694E
:101540002868446904F0010060B9B8F52A0F02D098
:10155000B8F12A4F01D1012000E00020012801D17B
:10156000BDE8F08704F0010048B1C6F3402030B177
:10157000284601F0EFFE284602F014FBACE0C4F36D
:10158000C00030B1C6F3402018B1284602F0C1F9BE
:10159000A2E0C4F3400030B1C6F3402018B12846A1
:1015A00002F0CCF998E0C7F38000F8B128684068F1
:1015B00000F40060B0F5006FE0D0C4F3C01048B193
:1015C000C6F3802030B1C4F3800018B9284602F079
:1015D00034F981E0C4F3800000287DD0C6F34020B8
:1015E000002879D0284602F0D0F875E028684068D5
:1015F00000F40060B0F5006F6ED0C4F3801048B105
:10160000C6F3802030B1C4F3800018B9284602F038
:101610006AF861E0C4F3800000285DD0C6F3402082
:10162000002859D0284601F0CBFF55E0FFE7286C91
:1016300010B12868446903E028688769286844690C
:10164000C4F3400058B1C6F3402040B1286C08B143
:10165000286887693946284602F091FB3CE0C4F3CC
:10166000001030B1C6F3402018B1284602F00AFC41
:1016700032E0BAF1210F02D0BAF1290F16D1C4F32A
:10168000C01048B1C6F3802030B1C4F3800018B94F
:10169000284602F051FB1FE0C4F38000E0B1C6F31E
:1016A0004020C8B1284602F03AFB15E0C4F3801090
:1016B00048B1C6F3802030B1C4F3800018B9284681
:1016C00002F00AFB08E0C4F3800028B1C6F3402012
:1016D00010B1284602F0F3FA00BF41E7704700005E
:1016E00070B504460CB9012070BD94F83D0028B9CE
:1016F000002084F83C00204600F0E0F8242084F824
:101700003D002068006820F0010021680860206822
:10171000006840F40040216808602068006820F4F8
:1017200000402168086000F093FC05465C49606851
:10173000884206D85B48854201D2012007E000209C
:1017400005E05948854201D2012000E0002001282F
:1017500000D1C9E75548B5FBF0F62068406820F095
:101760003F003043216848604D496068884201D895
:10177000701C07E04FF4967070434FF47A71B0FB21
:10178000F1F0401C2168096A21F03F0108432168FB
:10179000086243496068884214D8681E616849003D
:1017A000B0FBF1F0401CC0F30B00042801D2042070
:1017B0003DE0681E61684900B0FBF1F0401CC0F3D9
:1017C0000B0034E0A06838B9681E616801EB410184
:1017D000B0FBF1F0401C0AE0681E616801EBC10239
:1017E00002EB0111B0FBF1F0401C40F48040C0F36B
:1017F0000B0008B901201AE0A06848B9681E6168AA
:1018000001EB4101B0FBF1F0401CC0F30B000CE018
:10181000681E616801EBC10202EB0111B0FBF1F03F
:10182000401CC0F30B0040F4804040F400402168AD
:10183000C9694CF6FF72914308432168C861D4E935
:10184000070108432168096821F0C00108432168A5
:101850000860D4E9031008432168896848F2FF3220
:101860009143084321688860D4E905010843216851
:10187000C96821F0FF0108432168C860206800683A
:1018800040F001002168086000202064202084F8D6
:101890003D000020206384F83E0000BF24E70000E4
:1018A000A086010080841E0000093D0040420F0018
:1018B00070477047704770477047000010B586B09A
:1018C0000446142101A8FEF737FD23492068884209
:1018D0003FD100BF002000902048006840F0800009
:1018E0001E4908600846006800F08000009000BFB4
:1018F00000BF3020019012200290012003900320AD
:1019000004900420059001A91548FFF727FC00BFAB
:101910000020009011481030006840F480000F490A
:10192000103108600846006800F48000009000BF95
:1019300000BF00220521212000F0C6F8212000F080
:10194000B3F800220521222000F0BEF8222000F08A
:10195000ABF806B010BD000000580040303802401F
:10196000001C02407047704703480068034909782B
:10197000084401490860704720000020280000202A
:1019800010B50D48006840F400700B490860084627
:10199000006840F4806008600846006840F4807089
:1019A0000860032000F0CEF8002000F007F800F0F7
:1019B0004BF8002010BD0000003C024070B588B01C
:1019C00004460025002600222146192000F07CF85C
:1019D000192000F069F800BF002001901648006847
:1019E00040F00100144908600846006800F001005A
:1019F000019000BF00BF02A903A800F001FB00F0A6
:101A000037FB45000D48B5FBF0F0461E0C480D496C
:101A1000086040F2E7310B48C16046600021016177
:101A2000816000F02DFF20B9064800F044FF08B0A7
:101A300070BD0120FBE700004438024040420F0027
:101A4000000001407006002008B500BF0020009093
:101A50001448006840F48040124908600846006855
:101A600000F48040009000BF00BF00BF0020009045
:101A7000081F006840F08050091F08600846006891
:101A800000F08050009000BF00BF002203216FF0E3
:101A90000A0000F019F800220F21901E00F014F83F
:101AA00008BD00004438024001460846002809DB12
:101AB00000F01F0301229A4043099B0003F1E02339
:101AC000C3F8002100BF70472DE9F05F80460D4646
:101AD0001646002703F0BEFB074639462A46334622
:101AE00001F00700C0F1070ABAF1040F02D94FF064
:101AF000040A01E0C0F1070AD14600F1040ABAF174
:101B0000070F02D24FF0000A01E0A0F1030AD44609
:101B10004FF0010A0AFA09FAAAF1010A0AEA020ACE
:101B20000AFA0CFA4FF0010B0BFA0CFBABF1010BAC
:101B30000BEA030B4AEA0B042146404603F092FBF2
:101B4000BDE8F09F00BF00F00702064B19684FF692
:101B5000FF031940044B0B4343EA0221014B196078
:101B600000BF70470CED00E00000FA05F8B5044630
:101B700000250026207800F0010048B9207800F008
:101B80000200022804D0207800F04000402862D1F2
:101B90000020B1498866FFF7FFFB054606E0FFF726
:101BA000FBFB401B022801D90320F8BDAB480068AD
:101BB000C0F3C0600028F2D1207800F0010038B1F5
:101BC00060688101207A41EA0070A449843108608C
:101BD000207800F00200022819D1A0488430006863
:101BE000C0F3027660688101207B41EA006040EA30
:101BF00006709A498431086098488C30006820F05B
:101C00001F00E169491E084394498C31086020781F
:101C100000F0400040280AD160688101207B41EA41
:101C20000061207A41EA00708C498431086001200B
:101C300089498866FFF7B0FB054606E0FFF7ACFB75
:101C4000401B022801D90320AFE784480068C0F395
:101C5000C0600028F2D0207800F00400042804D0EE
:101C6000207800F00800082863D100207A4908672E
:101C7000FFF792FB054606E0FFF78EFB401B0228AC
:101C800001D9032091E775480068C0F3407000282F
:101C9000F2D1207800F00400042819D16F48883070
:101CA0000068C0F3027620698101207D41EA00606E
:101CB00040EA0670694988310860081D006820F410
:101CC000F851206A401E41EA002064498C310860C6
:101CD000207800F00800082817D160488830006894
:101CE000C0F303662069800140EA0661207E41EA74
:101CF00000705A4988310860081D006820F440309F
:101D0000616A084355498C310860012052490867CF
:101D1000FFF742FB054606E0FFF73EFB401B0228AB
:101D200001D9032041E74D480068C0F34070002806
:101D3000F2D0207800F0200020287DD100BF0020C4
:101D4000009046484030006840F0805043494031A0
:101D500008600846006800F08050009000BF00BF97
:101D60003F48006840F480703D490860FFF714FB6D
:101D7000054606E0FFF710FB401B022801D90320AF
:101D800013E73748006800F480700028F2D0334829
:101D90007030006800F440764EB3208D00F440703F
:101DA000B04224D02D487030006820F440760120E5
:101DB0002C490860002008602848703006600068E0
:101DC00000F0010098B1FFF7E7FA054608E0FFF7D9
:101DD000E3FA401B41F28831884201D90320E4E64E
:101DE0001E4870300068C0F340000028EFD000BFEC
:101DF000208D00F44070B0F5407F0CD117480830BA
:101E0000006820F4F810184AA16A114008431349E9
:101E10000831086007E011480830006820F4F81025
:101E20000E49083108600D4870300068218DC1F3FB
:101E30000B010843094900E002E07031086000BF6F
:101E4000207800F01000102803D194F82C000749E6
:101E500008600020A9E60000000047420038024068
:101E600000700040400E4742FFFCFF0FE011474268
:101E700070B504460D460CB9012070BD5848006885
:101E800000F00F00A84209D255490D7008460068BD
:101E900000F00F00A84201D00120EEE7207800F00A
:101EA000020002281DD1207800F00400042805D18A
:101EB0004C48006840F4E0504A490860207800F03F
:101EC0000800082805D14748006840F460404549AB
:101ED00008604448006820F0F000A16808434149C8
:101EE0000860207800F00100A8B36068012807D1DD
:101EF0003C4808380068C0F34040B8B90120BCE74E
:101F00006068022802D06068032807D13548083885
:101F10000068C0F3406048B90120AEE73148083896
:101F20000068C0F3400008B90120A6E72D4800680A
:101F300020F00300616808432A490860FFF72CFA83
:101F4000064609E0FFF728FA801B41F288318842F3
:101F500002D9032091E707E02248006800F00C0056
:101F60006168B0EB810FEDD11D48006800F00F00F3
:101F7000A84209D91A490D700846006800F00F0000
:101F8000A84201D0012078E7207800F0040004285E
:101F900007D11448006820F4E050E1680843114973
:101FA0000860207800F00800082808D10D48006873
:101FB00020F46040216940EAC1000A49086000F04D
:101FC00067F808490968C1F30311074A515CC84022
:101FD0000649086006480068FFF7F0FC00204CE75F
:101FE000003C02400838024070A000082C0000208D
:101FF0002400002001200149C864704700004742C6
:102000000F2202600D4A126802F0030242600B4A7E
:10201000126802F0F0028260084A126802F4E0528C
:10202000C260064A126802F46042D2080261044AA1
:10203000126802F00F020A60704700000838024080
:10204000003C024001480068704700002C0000205E
:1020500000B5FFF7F7FF04490968C1F38221034A7D
:10206000515CC84000BD00000838024080A0000854
:1020700000B5FFF7E7FF04490968C1F34231034A9D
:10208000515CC84000BD00000838024080A0000834
:102090002DE9F047002400250026A14625480068C8
:1020A00000F00C0020B1042805D008283AD105E042
:1020B000DFF8849039E0DFF8849036E01D48001F97
:1020C000006800F03F041B48001F006800F4800017
:1020D00078B11A481749091F0968C1F38811A0FB94
:1020E00001700146224600233846FEF7DBF805461C
:1020F0000EE011480F49091F0968C1F38811A0FBC0
:1021000001700146224600233846FEF7CBF805460B
:102110000848001F0068C0F30140401C4600B5FBA2
:10212000F6F902E0DFF8109000BF00BF4846BDE8B6
:10213000F0870000083802400024F40080BA8C01C7
:10214000F8B504460CB90120F8BD207800F0010074
:10215000002874D0F948006800F00C0004280DD065
:10216000F648006800F00C00082813D1F348001F5F
:10217000006800F48000B0F5800F0BD1EF480838FC
:102180000068C0F34040002859D06068002856D14C
:102190000120D9E700BF6068B0F5803F08D1E7486B
:1021A0000838006840F48030E449083908601EE0CF
:1021B0006068B0F5A02F0DD1E0480838006840F401
:1021C0008020DE49083908600846006840F4803005
:1021D00008600CE0D9480838006820F48030D749FE
:1021E000083908600846006820F48020086000BFB5
:1021F000606890B1FFF7D0F8054606E0FFF7CCF82D
:10220000401B642801D903209EE7CC4808380068A9
:10221000C0F340400028F1D011E0FFF7BDF80546BB
:1022200006E0FFF7B9F8401B642801D903208BE7CB
:10223000C24808380068C0F340400028F1D1207837
:1022400000F0020002285FD1BC48006800F00C00DA
:1022500058B1BA48006800F00C0008281CD1B748F3
:10226000001F006800F48000B0B9B4480838006866
:10227000C0F3400020B1E068012801D0012063E7ED
:10228000AE480838006820F0F800216940EAC10033
:10229000AA490839086037E0E06800B30120A8497E
:1022A0000860FFF779F8054606E0FFF775F8401B70
:1022B000022801D9032047E7A04808380068C0F386
:1022C00040000028F1D09D480838006820F0F80050
:1022D000216940EAC10099490839086014E00020EA
:1022E00097490860FFF758F8054606E0FFF754F8ED
:1022F000401B022801D9032026E7904808380068CF
:10230000C0F340000028F1D1207800F00800082830
:102310002CD16069A8B101208A490860FFF73CF818
:10232000054606E0FFF738F8401B022801D90320D4
:102330000AE782486C300068C0F340000028F1D002
:1023400014E000207F490860FFF726F8054606E004
:10235000FFF722F8401B022801D90320F4E6774852
:102360006C300068C0F340000028F1D1207800F004
:102370000400042870D1002770483830006800F04D
:10238000805090B900BF002000906C483830006841
:1023900040F080506949383108600846006800F014
:1023A0008050009000BF00BF01276748006800F41C
:1023B0008070B0B96448006840F480706249086079
:1023C000FEF7EAFF054606E0FEF7E6FF401B02289F
:1023D00001D90320B8E65C48006800F4807000284A
:1023E000F2D000BFA068012808D1544868300068C6
:1023F00040F001005149683108601DE0A0680528DF
:102400000DD14E486830006840F004004B496831F7
:1024100008600846006840F0010008600CE047488A
:102420006830006820F001004449683108600846BF
:10243000006820F00400086000BFA068A8B1FEF7A3
:10244000ABFF054609E0FEF7A7FF401B41F28831CC
:10245000884202D9032077E626E0384868300068D1
:10246000C0F340000028EED013E0FEF795FF0546CC
:1024700008E0FEF791FF401B41F28831884201D904
:10248000032061E62D4868300068C0F34000002852
:10249000EFD1012F07D129483830006820F0805053
:1024A00026493831086000BFA069002845D023487C
:1024B000006800F00C0008285DD0A069022845D112
:1024C00000201F490866FEF767FF054606E0FEF795
:1024D00063FF401B022801D9032035E6174808385E
:1024E0000068C0F340600028F1D1D4E90701084337
:1024F000616A40EA81110122A06AC2EB500041EA00
:1025000000412C20005D41EA00600C49091F086071
:1025100001200B490866FEF73FFF054606E0FEF77F
:102520003BFF401B022801D903200DE60348083871
:102530000068C0F340600028F1D03FE00838024056
:1025400000004742800E47420070004000201C49B6
:102550000866FEF721FF054606E0FEF71DFF401B5B
:10256000022801D90320EFE516480068C0F3406057
:102570000028F2D122E0A069012800D1E4E5114849
:10258000001D066806F48001E069814214D106F05E
:102590003F01206A81420FD147F6C0703040616A26
:1025A000884209D106F44031A06A814204D106F084
:1025B0007061E06A814201D00120C5E50020C3E5D9
:1025C000000047420038024010B504460CB9012013
:1025D00010BD607F20B900202077204600F060F811
:1025E0000220607700BFCA2021684862532021681A
:1025F000486200BF204602F040F940B100BFFF2012
:102600002168486200BF042060770120E0E720686D
:102610008068224908402168886021696068084311
:1026200061690843216889680843216888602168D6
:10263000E068086120680169208941EA004021685A
:1026400008612068C06820F080002168C8602068A8
:10265000806800F0200060B9204600F02DF840B1FD
:1026600000BFFF202168486200BF0420607701207E
:10267000AEE72068006C20F48020216808642068A0
:10268000006CA16908432168086400BFFF2021682D
:10269000486200BF01206077002099E7BFFF8FFFED
:1026A000034A0168914202D10121024A1160704738
:1026B000002800403C0E474270B5044600252068C3
:1026C000C06820F0A0002168C860FEF765FE0546DE
:1026D00007E0FEF761FE401BB0F57A7F01D90320C9
:1026E00070BD2068C06800F020000028F1D00020F4
:1026F000F6E710B504460CB9012010BD606A00B9B8
:1027000000BF0021A16294F8510028B9002084F88C
:102710005000204600F034F8022084F85100206870
:10272000006820F0400021680860D4E901010843F6
:10273000E16808432169084361690843218B01F47A
:1027400000710843E1690843216A0843A16A08430C
:10275000216808600421A06901EA1040616A084309
:10276000216848602068C06920F400602168C86161
:1027700000206065012084F851000020BDE70000C2
:1027800010B586B00446142101A8FDF7D5FD3649E1
:102790002068884230D100BF002000903348006894
:1027A00040F40050314908600846006800F40050C9
:1027B000009000BF00BF00BF002000902B481438DD
:1027C000006840F010002949143908600846006884
:1027D00000F01000009000BF00BF642001900220B4
:1027E000029000200390032004900520059001A989
:1027F0001F48FEF7B3FC34E01E492068884230D100
:1028000000BF002000901948006840F4801017496C
:1028100008600846006800F48010009000BF00BF08
:1028200000BF0020009011481438006840F02000DC
:102830000E49143908600846006800F02000009036
:1028400000BF00BF4FF46070019002200290002092
:102850000390032004900520059001A90648FEF787
:102860007DFC06B010BD0000003401404438024039
:1028700000100240005001400014024070477047B1
:1028800010B504460CB9012010BD94F83D0028B9DC
:10289000002084F83C00204600F00CF8022084F868
:1028A0003D00211D206802F0B9F8012084F83D00A8
:1028B0000020E9E7704701460868C06840F0010061
:1028C0000B68D8600868806800F00702062A05D007
:1028D0000868006840F001000B681860002070472D
:1028E000704710B5044620680069C0F34000D8B1B5
:1028F0002068C068C0F34000B0B16FF002002168EA
:102900000861012020772068806900F0030018B179
:102910002046FFF7E5FF05E0204600F0ADF8204631
:1029200000F0ABF80020207720680069C0F3800039
:10293000D8B12068C068C0F38000B0B16FF0040067
:1029400021680861022020772068806900F44070C7
:1029500018B12046FFF7C4FF05E0204600F08CF8D0
:10296000204600F08AF80020207720680069C0F334
:10297000C000D8B12068C068C0F3C000B0B16FF02B
:10298000080021680861042020772068C06900F0F1
:10299000030018B12046FFF7A3FF05E0204600F032
:1029A0006BF8204600F069F8002020772068006965
:1029B000C0F30010D8B12068C068C0F30010B0B1F7
:1029C0006FF0100021680861082020772068C06936
:1029D00000F4407018B12046FFF782FF05E0204662
:1029E00000F04AF8204600F048F8002020772068E0
:1029F000006900F0010058B12068C06800F00100D3
:102A000030B16FF0010021680861204600F036F80F
:102A100020680069C0F3C01058B12068C068C0F3D6
:102A2000C01030B16FF08000216808612046FFF7C8
:102A300025FF20680069C0F3801058B12068C06885
:102A4000C0F3801030B16FF040002168086120466B
:102A500000F020F820680069C0F3401058B12068E9
:102A6000C068C0F3401030B16FF0200021680861E9
:102A70002046FFF704FF10BD7047704710B50446AD
:102A800003492068884201D1FEF76EFF10BD0000A7
:102A900000000140704770472DE9F0470446206868
:102AA00005682068C668206847694FF00008C1467D
:102AB00005F00F08B8F1000F0AD105F0200038B179
:102AC00006F0200020B1204602F0D4F8BDE8F087DF
:102AD000B8F1000F72D007F0010018B906F4907039
:102AE00000286BD005F0010030B106F4807018B1F9
:102AF000E06B40F00100E06305F0040030B107F046
:102B0000010018B1E06B40F00200E06305F0020044
:102B100030B107F0010018B1E06B40F00400E06351
:102B200005F0080048B106F0200010B907F00100D8
:102B300018B1E06B40F00800E063E06B70B305F0A3
:102B4000200028B106F0200010B1204602F092F8D3
:102B500020684069C0F38019E06B00F0080010B9EC
:102B6000B9F1000F23D0204602F05AF820684069DE
:102B700000F04000402816D12068406920F0400055
:102B800021684861606B50B11748616B0865606BE4
:102B9000FEF7D9F810B1606B016D88470CE0204654
:102BA000FFF779FF08E02046FFF775FF04E02046B5
:102BB000FFF771FF0020E06388E7FFE705F0800082
:102BC00030B106F0800018B1204602F09BFA7DE794
:102BD00005F0400030B106F0400018B1204602F088
:102BE0002FF873E700BF71E7254B000810B50446C6
:102BF0000CB9012010BDA06900B100E000BF94F83D
:102C0000390028B9002084F83800204600F028F860
:102C1000242084F839002068C06820F4005021681E
:102C2000C860204602F07AF82068006920F49040DD
:102C3000216808612068406920F02A002168486105
:102C40002068C06840F400502168C8600020E0633C
:102C5000202084F8390084F83A000020CAE70000F8
:102C600010B586B00446142101A8FDF765FBF949AB
:102C70002068884275D100BF00200090F6480068A7
:102C800040F40020F44908600846006800F4002081
:102C9000009000BF00BF00BF00200090EE48103839
:102CA000006840F00400EC491039086008460068EC
:102CB00000F00400009000BF00BF4FF4406001909E
:102CC0000220029001200390032004900820059028
:102CD00001A9E248FEF742FAE148E24908604005EE
:102CE00048600021DF488160C1604FF4806101616C
:102CF000002141618161C16101624162FEF75CF9BD
:102D000008B1FDF7A0FF00BFD6486063846300BF31
:102D1000D3483030D44908604FF00060486040210B
:102D2000D14881600021C1604FF4806101610021C0
:102D300041618161C16101624162FEF73DF908B103
:102D4000FDF781FF00BFC8482063846300BF0022F5
:102D500005213420FEF7B8FE3420FEF7A5FE12E26E
:102D6000FFE7C2492068884239D100BF00200090A7
:102D7000B948006840F08040B749086008460068DC
:102D800000F08040009000BF00BF00BF0020009016
:102D9000B1481038006840F01000AF4910390860A1
:102DA0000846006800F01000009000BF00BF4FF41C
:102DB000C070019002200290012003900320049033
:102DC0000820059001A9AA48FEF7C8F900220921A8
:102DD0005220FEF779FE5220FEF766FED3E1A549A8
:102DE0002068884238D100BF002000909A480068CF
:102DF00040F00040984908600846006800F0004034
:102E0000009000BF00BF00BF002000909248103823
:102E1000006840F0100090491039086008460068CA
:102E200000F01000009000BF00BF032001900220BE
:102E3000029001200390032004900820059001A92E
:102E40008B48FEF78BF900220D215320FEF73CFE44
:102E50005320FEF729FE96E18749206888427CD1FD
:102E600000BF002000907C48006840F400307A49A0
:102E700008600846006800F40030009000BF00BF02
:102E800000BF0020009074481038006840F008002F
:102E90007149103908600846006800F00800009089
:102EA00000BF00BF6020019002200290002003902C
:102EB000032004900720059001A97048FEF74EF901
:102EC000674848306E4908604FF000604860002154
:102ED0006B488160C1604FF48061016100214161F4
:102EE0008161C1614FF48031016200214162FEF7CE
:102EF00063F808B1FDF7A7FE00BF61486063846313
:102F000000BF574860305F4908604FF0006048607C
:102F100040215C4881600021C1604FF48061016103
:102F2000002141618161C1614FF480310162002162
:102F30004162FEF741F808B1FDF785FE00BF514838
:102F40002063846300BF002205212620FEF7BCFD1C
:102F50002620FEF7A9FD16E1FFE74B4920688842CD
:102F600076D100BF002000903B48006840F48020EC
:102F7000394908600846006800F48020009000BFCE
:102F800000BF00BF0020009033481038006840F0B8
:102F900002003149103908600846006800F002005C
:102FA000009000BF00BF4FF44060019002200290EB
:102FB00000200390032004900720059001A93348C6
:102FC000FEF7CCF826481830314908604FF0006011
:102FD000486040212E4881600021C1604FF480612B
:102FE0000161002141618161C16101624162FDF7BE
:102FF000E3FF08B1FDF727FE00BF25482063846387
:1030000000BF17481838234908604FF00060486037
:10301000002120488160C1604FF48061016100217E
:1030200041618161C16101624162FDF7C5FF08B183
:10303000FDF709FE00BF17486063846300BF0022EC
:1030400005212720FEF740FD2720FEF72DFD9AE001
:1030500022E00000004C00404038024000080240DE
:103060004060024070030020D00300200078004040
:1030700000100240007C004000440040000C024070
:10308000300400209004002000480040000402406A
:10309000F0040020500500203C492068884272D18D
:1030A00000BF002000903A48006840F020003849F6
:1030B00008600846006800F02000009000BF00BFD4
:1030C00000BF0020009032481438006840F004002F
:1030D0002F49143908600846006800F00400009089
:1030E00000BF00BFC020019002200290002003908A
:1030F000032004900820059001A92648FEF72EF829
:1031000025482649086080054860002123488160E1
:10311000C1604FF480610161002141618161C16141
:1031200001624162FDF748FF08B1FDF78CFD00BF69
:103130001A486063846300BF1748783018490860F4
:103140004FF0206048604021154881600021C16037
:103150004FF480610161002141618161C1610162BF
:103160004162FDF729FF08B1FDF76DFD00BF0C4876
:103170002063846300BF002206214720FEF7A4FCE1
:103180004720FEF791FC06B010BD0000001401407E
:10319000443802400008024028640240B005002084
:1031A0001006002077B581B00446154694F83A0021
:1031B000202850D1029800B115B9012004B070BD8B
:1031C00000BF94F83800012801D10220F6E7012061
:1031D00084F8380000BF0298A062A5850020E06353
:1031E000222084F83A001D48616BC8631C48616B5B
:1031F00008641C48616BC8640020616B086502AEFE
:1032000032682368191D2B46606BFDF74BFF00BF2A
:1032100000200090206800680090206840680090BE
:1032200000BF00BF00BF002084F8380000BF206846
:10323000C06840F480702168C8602068406940F030
:103240000100216848612068406940F04000216821
:1032500048610020B2E70220B0E70000894B000877
:10326000CF4B0008394B000870477047F7B504464C
:10327000154694F8390020283DD1019800B10DB9C8
:103280000120FEBD00BF94F83800012801D10220C2
:10329000F7E7012084F8380000BF01982062A58478
:1032A000E5840020E063212084F839001348216B75
:1032B000C8631348216B08641248216BC86400205E
:1032C000216B086501AE23681A1D31682B46206BFF
:1032D000FDF7E8FE6FF040002168086000BF0020A5
:1032E00084F8380000BF2068406940F08000216801
:1032F00048610020C5E70220C3E70000DD4B00085D
:10330000134C0008394B000810B5044605488442A8
:1033100007D10548006820B100210348006805F086
:1033200009FD10BD30030020C8000020704700BF19
:10333000FEE7000010B50248FEF784F810BD00005B
:10334000CC00002010B50248FEF7E6F810BD0000E2
:10335000CC000020C16AB1F52A0F02D10121C1625F
:1033600005E0C16AB1F12A4F01D10821C16270475D
:1033700070B50546AC6B94F83D60606B10B10020F1
:10338000616BC863A06B10B10020A16BC86320689B
:10339000006820F480602168086000206085606B10
:1033A00010B10020616B0865A06B10B10020A16B0B
:1033B00008652068006820F001002168086094F822
:1033C0003D0060280AD1202084F83D00002084F8C8
:1033D0003E0020642046FEF733F81EE006F0280089
:1033E000282811D12068006840F001002168086099
:1033F0002068006840F48060216808600020206335
:10340000282084F83D0005E0202084F83D000020BD
:1034100084F83E002046FEF761F970BD70B50446A1
:1034200094F83D6094F83E00102807D1222E05D173
:103430002068006820F400602168086006F0280019
:10344000282805D100202063282084F83D000FE0C3
:103450002068406800F40060B0F5006F04D0602E72
:1034600002D0202084F83D000020206384F83E0034
:103470002068406800F40060B0F5006F40D120681B
:10348000406820F4006021684860606B90F8350067
:10349000012814D04848616B0865606BFDF753FC48
:1034A00000285BD02068006820F0010021680860D7
:1034B000202084F83D00606B016D88474EE03E4857
:1034C000A16B0865A06BFDF73EFC002846D0206884
:1034D0004069C0F3801030B120680069616A0870EB
:1034E000606A401C60622068006820F0010021686A
:1034F0000860202084F83D00A06B016D88472DE016
:1035000094F83D0060281AD1202084F83D00002066
:10351000206420684069C0F3801030B120680069E1
:10352000616A0870606A401C60622068006820F070
:103530000100216808602046FDF782FF0EE0206848
:103540004069C0F3801030B120680069616A08707A
:10355000606A401C60622046FEF7C0F8256C05F0EA
:10356000010058B905F00200022807D005F0040058
:10357000042803D005F00800082805D12068406819
:1035800020F4E0602168486094F83D60206C00F011
:10359000040004280ED1282E0CD10848E062002037
:1035A0002063202084F83D00002084F83E0020465F
:1035B000FEF77EF970BD0000713300080000FFFFC8
:1035C00070B50446E56A608D042810D12068406813
:1035D00020F480602168486020680069616A087092
:1035E000606A401C6062608D401E60857AE0608D7C
:1035F00003281AD12068406820F480602168486060
:10360000042D07D0022D05D02068006820F48060CA
:103610002168086020680069616A0870606A401C5F
:103620006062608D401E60855CE0608D02284FD135
:10363000012D01D0102D06D12068006820F4806093
:103640002168086012E0042D01D0022D06D1206807
:10365000006840F480602168086007E0102D05D004
:103660002068006840F400702168086020680069E4
:10367000616A0870606A401C6062608D401E6085EF
:1036800020680069616A0870606A401C6062608D31
:10369000401E60852068406820F4407021684860C2
:1036A000202084F83D0094F83E00402807D10020F7
:1036B00084F83E0020632046FEF7FDF812E000206B
:1036C00084F83E00122020632046FEF7F2F809E05D
:1036D00020680069616A0870606A401C6062608DE1
:1036E000401E608570BD70B5044694F83D002228E8
:1036F0004AD1658D032D13D920680069616A08706D
:10370000606A401C6062608D401E6085608D032889
:1037100039D12068406820F480602168486032E038
:10372000E06A02282FD0012D00D01DBB2068006860
:1037300020F48060216808602068406820F4E06020
:103740002168486020680069616A0870606A401CEE
:103750006062608D401E6085202084F83D0094F8F2
:103760003E00402807D1002084F83E002063204618
:10377000FEF7A1F807E0002084F83E001220206345
:103780002046FEF796F800BF70BD70B50446E56AA6
:1037900094F83D00212848D1608D50B1606A0078CE
:1037A00021680861606A401C6062608D401E60850F
:1037B00042E0082D16D0202D14D015F5803F11D0F1
:1037C0002068406820F4E060216848601120206390
:1037D000002084F83E00202084F83D002046FEF7BB
:1037E00069F829E02068406820F4E06021684860BA
:1037F0002068006840F400702168086000202063A1
:10380000202084F83D0094F83E00402806D1002096
:1038100084F83E002046FEF74FF80DE0002084F8C3
:103820003E002046FEF746F806E094F83E004028A9
:1038300002D1204600F005FA70BD2DE9F0410446A2
:1038400094F83D5094F83E70E66A208DB0BB212D6F
:103850003CD1082E16D0202E14D016F5803F11D062
:103860002068406820F4E0602168486011202063EF
:10387000002084F83E00202084F83D002046FEF71A
:1038800019F844E02068406820F4E060216848604E
:103890002068006840F40070216808600020206300
:1038A000202084F83D0094F83E00402807D10020F5
:1038B00084F83E002046FDF7FFFF28E006E00020E8
:1038C00084F83E002046FDF7F5FF20E0212D03D0CF
:1038D000402F1CD1222D1AD1608D30B9206840684C
:1038E00020F480602168486011E094F83E00402890
:1038F00003D1204600F0A5F909E0606A007821684C
:103900000861606A401C6062608D401E6085BDE891
:10391000F081416CC9B202681161416B09B9816BD8
:1039200059B1416BC96B11B9816BC96B29B1016880
:10393000496841F4006102685160704738B590F8F9
:103940003E20C16A036B90F83D40222C73D1046D78
:1039500064B9402A0AD100BF002400940468646955
:1039600000940468A469009400BF1AE1046DC4B90E
:103970000469B4F5404F14D100BF002400940468DA
:10398000646900940468A469009400BF00BF0468DF
:10399000246844F4807405682C60046D641C04651C
:1039A000FFE0448D8CB900BF002400940468646972
:1039B00000940468A469009400BF00BF04682468F0
:1039C00044F4007405682C60DDE0448D012C72D154
:1039D00011F5803F30D10468246824F480640568C0
:1039E0002C600468646804F40064B4F5006F10D1BE
:1039F0000468246824F4806405682C6000BF0024F7
:103A000000940468646900940468A469009400BF89
:103A1000B9E000BF0024009404686469009404685D
:103A2000A469009400BF00BF0468246844F40074D3
:103A300005682C60A7E0A9E0082923D0202921D01F
:103A4000122B01D101291DD104290AD0022908D045
:103A5000102906D00468246824F4806405682C606A
:103A600005E00468246844F4806405682C6000BFA5
:103A7000002400940468646900940468A4690094B4
:103A800000BF80E00468246824F4806405682C602A
:103A900000BF002400940468646900940468A46969
:103AA000009400BF00BF0468246844F400740568F3
:103AB0002C6068E0FFE7448D022C3BD1042910D034
:103AC00002290ED010290CD00468246824F48064E4
:103AD00005682C600468246844F4006405682C6060
:103AE00005E00468246844F4806405682C60046878
:103AF000646804F40064B4F5006F10D111F5803FE0
:103B000007D0012905D0082903D0102901D0202988
:103B100005D10468646844F4805405686C6000BF93
:103B2000002400940468646900940468A469009403
:103B300000BF28E00468246844F4806405682C60B1
:103B40000468646804F40064B4F5006F10D111F5E2
:103B5000803F07D0012905D0082903D0102901D0C2
:103B6000202905D10468646844F4805405686C60B9
:103B700000BF002400940468646900940468A46988
:103B8000009400BF00BF002404650AE000BF0024C9
:103B900000940468646900940468A469009400BFF8
:103BA00000BF38BD90F83E1040290ED1016D29B9F3
:103BB000416C01F0FE010268116141E0416CC9B243
:103BC00041F00101026811613AE00169B1F5804FED
:103BD00020D190F83D10212905D1416C01F0FE0162
:103BE0000268116105E0416CC9B241F0010102684F
:103BF0001161416B11B1416BC96B21B9816BF9B195
:103C0000816BC96BE1B10168496841F400610268E8
:103C1000516015E0016D41B9416C01F44071F02231
:103C200042EAE111026811610AE0016D012907D140
:103C3000416C01F44071F12242EAE1110268116124
:103C40007047016D99B9C16C012907D1816CC9B266
:103C500002681161016D891C01652FE0816CC1F35F
:103C6000072102681161016D491C016526E0016DA3
:103C7000012907D1816CC9B202681161016D491C2B
:103C800001651BE0016D022918D190F83D10222931
:103C900006D10168096841F48071026811600DE085
:103CA00090F83D10212909D1416A09780268116113
:103CB000416A491C4162418D491E41857047418DD1
:103CC00049B101680969426A1170416A491C41623F
:103CD000418D491E4185704770B5044694F83D50AA
:103CE000608DD8B120680069616A0870606A401C04
:103CF0006062608D401E6085608D78B92A2D0DD17F
:103D00002068406820F48060216848602220206399
:103D1000282084F83D002046FDF724FE70BD418D2B
:103D200049B1416A097802681161416A491C4162DE
:103D3000418D491E4185704770B5044694F83D5049
:103D4000608DD8B1606A007821680861606A401CA3
:103D50006062608D401E6085608D78B9292D0DD11F
:103D60002068406820F4806021684860212020633A
:103D7000282084F83D002046FDF7F5FD70BD2DE9B3
:103D8000F04104460D46002794F83D0000F028005D
:103D900028281CD12068406820F480602168486091
:103DA000C5F3800000B90127C5F3C01010B9A08980
:103DB00086B201E0208B86B200BF002084F83C0070
:103DC00000BF324639462046FDF73BFB08E06FF066
:103DD00002002168486100BF002084F83C0000BF59
:103DE000BDE8F08170B5044694F83D50E66A082EAF
:103DF00001D0202E1FD1282D1DD12148E06220683E
:103E0000406820F4E060216848606FF480602168B9
:103E100048612068006820F4806021680860002004
:103E20002063202084F83D00002084F83E002046D6
:103E3000FDF73EFD23E0212D1DD11148E062212038
:103E40002063202084F83D00002084F83E00206894
:103E5000406820F4E060216848606FF48060216869
:103E600048612068006820F480602168086020466E
:103E7000FDF779FD03E06FF480602168486170BD53
:103E80000000FFFF38B5044694F83D5020684068B4
:103E900020F4E0602168486000BF002000902068A6
:103EA000406900902068006840F0010021680860C7
:103EB00000BF00BF2068006820F4806021680860AF
:103EC0002068406800F40060B0F5006F42D1222DF8
:103ED00001D02A2D1FD1A06B006840686085608DDD
:103EE00018B1206C40F0040020642068406820F481
:103EF000006021684860A06BFCF739FF012829D0D9
:103F00004148A16B0865A06BFCF71DFF10B3A06BC7
:103F1000016D88471EE0606B006840686085608DB9
:103F200018B1206C40F0040020642068406820F440
:103F3000006021684860606BFCF719FF012809D018
:103F40003148616B0865606BFCF7FDFE10B1606B7A
:103F5000016D8847608D18B320684069C0F3800008
:103F600048B120680069616A0870606A401C60623C
:103F7000608D401E608520684069C0F3801048B1A4
:103F800020680069616A0870606A401C6062608D28
:103F9000401E6085608D18B1206C40F004002064E4
:103FA000206C18B12046FFF739FA2BE02A2D07D1F3
:103FB00000202063282084F83D002046FDF7D2FC35
:103FC00094F83D0028280DD11048E06200202063BD
:103FD000202084F83D00002084F83E002046FDF7B4
:103FE00067FC0FE0206B222801D0222D0AD100208F
:103FF0002063202084F83D00002084F83E00204605
:10400000FDF7B0FC38BD0000713300080000FFFF71
:1040100010B50548054908600846FCF715FE08B1CB
:10402000FCF711FE10BD000000300240000000202F
:1040300008B500BF002000902E48006840F48000C2
:104040002C4908600846006800F48000009000BF1A
:1040500000BF00BF002000900846006840F4001038
:1040600008600846006800F40010009000BF00BF20
:10407000002205210C20FDF727FD0C20FDF714FD83
:10408000002203210D20FDF71FFD0D20FDF70CFD83
:10409000002203210E20FDF717FD0E20FDF704FD81
:1040A000002205210F20FDF70FFD0F20FDF7FCFC7E
:1040B000002205211020FDF707FD1020FDF7F4FC7C
:1040C000002205211120FDF7FFFC1120FDF7ECFC7B
:1040D000002205213920FDF7F7FC3920FDF7E4FC2B
:1040E000002205214520FDF7EFFC4520FDF7DCFC13
:1040F00008BD00003038024010B5154A00211548AF
:1041000002F0C2FA14490860144A0021144802F06F
:10411000BBFA14490860144A0021144802F0B4FAAA
:1041200013490860134A0021134802F0ADFA1349FD
:104130000860134A0021134802F0A6FA12490860E9
:10414000124A0021124802F09FFA1249086010BD7D
:10415000909F0008B948000808000020B49F00089C
:10416000417A00080C000020D89F0008557F000805
:1041700010000020FC9F0008E97E000814000020C9
:1041800020A00008A97D00081800002044A0000815
:10419000017D00081C00002000B587B0142102A892
:1041A000FCF7CAF800BF00200190FE48006840F00C
:1041B0001000FC4908600846006800F010000190FB
:1041C00000BF00BF00BF002001900846006840F417
:1041D000807008600846006800F48070019000BF9D
:1041E00000BF00BF002001900846006840F00400B6
:1041F00008600846006800F00400019000BF00BF9E
:1042000000BF002001900846006840F020000860D0
:104210000846006800F02000019000BF00BF00BF0A
:10422000002001900846006840F0800008600846C1
:10423000006800F08000019000BF00BF00BF0020B8
:1042400001900846006840F00100086008460068D8
:1042500000F00100019000BF00BF00BF00200190EE
:104260000846006840F0020008600846006800F058
:104270000200019000BF00BF00BF0020019008466F
:10428000006840F0400008600846006800F0400008
:10429000019000BF00BF00BF0020019008460068E9
:1042A00040F0080008600846006800F0080001902F
:1042B00000BF00BF01224FF61861BB48FDF765F84B
:1042C00001224721B948FDF760F800223021B748A4
:1042D000FDF75BF801220C21B548FDF756F80122E5
:1042E0001146B448FDF751F801224EF6CC71B248A0
:1042F000FDF74BF801224FF25B21B048FDF745F87E
:1043000001224FF61871AE48FDF73FF8002248F23F
:10431000FC11AC48FDF739F80122F721AA48FDF756
:1043200034F801224FF4C061A648FDF72EF84FF68D
:10433000186002900120039004900320059002A9C8
:104340009948FCF70BFF40F60850029000200390BC
:104350000120049002A99C48FCF700FF43F233308F
:104360000290032003900020049002A99048FCF7DB
:10437000F5FE4FF4007002909448039000200490E2
:1043800002A99148FCF7EAFE472002900120039021
:1043900004900320059002A98448FCF7DFFE082062
:1043A00002908A4803900020049002A97F48FCF7FD
:1043B000D5FE30200290012003900020049005904B
:1043C00002A97A48FCF7CAFE4FF4806002900020F0
:1043D00003900120049002A97448FCF7BFFE0C2052
:1043E00002900120039004900320059002A97048D8
:1043F000FCF7B4FE0120029003900490059002A9FE
:104400006C48FCF7ABFE49F6FE7002900320039067
:104410000020049002A96748FCF7A0FE0C2002903F
:104420000120039004900220059002A96248FCF745
:1044300095FE03200290012003900490059002A9AC
:104440005E48FCF78BFE4FF48270029003200390CD
:104450000020049002A95948FCF780FE4FF47840F0
:104460000290032003900020049002A94F48FCF71B
:1044700075FE47F60300029003200390002004908D
:1044800002A95048FCF76AFE4EF6C0700290012067
:10449000039004900320059002A94748FCF75EFEB4
:1044A0004FF480500290032003900020049002A952
:1044B0004148FCF753FE4FF47040029011200390E6
:1044C000002004900220059002A93C48FCF746FE1B
:1044D0004FF61870029011200390002004900220E3
:1044E000059002A93648FCF739FE4FF4FE700290A1
:1044F0000120039004900320059002A93148FCF7A5
:104500002DFE0720029001200390049003200590C7
:1045100002A92D48FCF722FE872002900320039079
:104520000020049002A92648FCF718FE4FF4C06052
:10453000029011200390002004900220059002A90F
:104540002048FCF70BFE4FF400400290012003903E
:1045500004900220059002A91A48FCF7FFFD58209C
:1045600002900120039004900220059002A91348B4
:10457000FCF7F4FDA020029000200390012004909D
:1045800002A90E48FCF7EAFD4FF4007002900120EA
:10459000039004900320059002A90848FCF7DEFD73
:1045A000F02015E0303802400010024000140240B4
:1045B0000008024000000240001C024000040240CB
:1045C000000C0240001802400020024000001110C0
:1045D000029011200390002004900320059002A96E
:1045E0000A48FCF7BBFD002206210920FDF76CFA02
:1045F0000920FDF759FA002205211720FDF764FA7A
:104600001720FDF751FA07B000BD0000002002405E
:1046100010B512481249086012484860002110483D
:104620008160C1604FF4804101610021416181617D
:10463000C1610162FDF754F808B1FCF704FB0021E9
:104640000748FCF7AFFE08B1FCF7FDFA002104486B
:10465000FCF7CEFE08B1FCF7F6FA10BD005800409A
:10466000CC000020A086010010B50A480A49086065
:10467000002048607F2108488160FF21C16000213F
:10468000016141618161FDF79FFF08B1FCF7DBFA31
:1046900010BD0000002800402001002010B50E4889
:1046A0000E4908604FF48270486000210B48816019
:1046B000C160016141614FF4007181610821C161F4
:1046C00000210162416281620A21C162FEF711F894
:1046D00008B1FCF7B8FA10BD0034014040010020D9
:1046E00010B50E480E4908604FF4827048600021F2
:1046F0000B488160C160016141614FF400718161CB
:104700000821C16100210162416281620A21C16206
:10471000FDF7EFFF08B1FCF796FA10BD005001401D
:104720009801002010B50B480B4908604FF4E130A8
:104730004860002108488160C16001610C2141612D
:1047400000218161C161FEF751FA08B1FCF77BFAE3
:1047500010BD0000004C0040F001002010B50B48D7
:104760000B4908604FF4E13048600021084881603F
:10477000C16001610C21416100218161C161FEF7CD
:1047800035FA08B1FCF75FFA10BD00000078004070
:104790003002002010B50B480B4908604FF4E1309F
:1047A0004860002108488160C16001610C214161BD
:1047B00000218161C161FEF719FA08B1FCF743FAE3
:1047C00010BD0000007C00407002002010B50B48B6
:1047D0000B4908604FF4E1304860002108488160CF
:1047E000C16001610C21416100218161C161FEF75D
:1047F000FDF908B1FCF727FA10BD000000440040A5
:10480000B002002010B50B480B4908604FF4E130AE
:104810004860002108488160C16001610C2141614C
:1048200000218161C161FEF7E1F908B1FCF70BFAE3
:1048300010BD000000480040F002002010B50B48F9
:104840000B4908604FF4E13048600021084881605E
:10485000C16001610C21416100218161C161FEF7EC
:10486000C5F908B1FCF7EFF910BD000000140140D4
:104870003003002000BFFEE7704770B504460025F6
:104880002068C06800F04000A0B9681E2168C860B8
:10489000FCF782FD054607E0FCF77EFD401BB0F506
:1048A0007A7F01D9032070BD2068C06800F0400005
:1048B0000028F1D00020F6E7002400BF012001F01D
:1048C00083FE00224FF400710548FCF75EFD641C76
:1048D000642CF3D3002402210248FCF74DFDEDE7E0
:1048E000001002400020024010B500BF302080F3CD
:1048F0001188BFF34F8FBFF36F8F00BF05F04CF8E7
:1049000018B14FF080500449086000BF002080F3C8
:10491000118800BF10BD000004ED00E000B59FB09D
:10492000302113A8FBF708FD14210EA8FBF704FDA6
:10493000302102A8FBF700FD00BF002001902A48AB
:10494000006840F08050284908600846006800F080
:104950008050019000BF00BF00BF0020019023489D
:10496000006840F44040214908600846006800F4AF
:104970004040019000BF00BF052013900004149038
:10498000052015900220199041051A911A211B91BA
:104990004FF4A8711C9102211D9104211E9113A8AE
:1049A000FDF7CEFB08B1FCF74EF90F200E90022068
:1049B0000F90002010904FF4A050119012900521FC
:1049C0000EA8FDF755FA08B1FCF73DF9202002903A
:1049D000C0000C9002A8FDF7C9F808B1FCF733F944
:1049E000FDF708FB1FB000BD4038024000700040DA
:1049F0000548006840F47000034908604FF000600B
:104A0000014980390860704788ED00E010B5024820
:104A1000FDF767FF10BD00007006002010B50268AA
:104A2000294B98420ED0B0F1804F0BD0274B9842C3
:104A300008D0274B984205D0264B984202D0264BEF
:104A4000984203D122F070024B681A431E4B9842E1
:104A500020D0B0F1804F1DD01C4B98421AD01C4B77
:104A6000984217D01B4B984214D01B4B984211D040
:104A70001A4B98420ED01A4B98420BD0194B9842C1
:104A800008D0194B984205D0184B984202D0184BC9
:104A9000984203D122F44072CB681A4322F080037B
:104AA0004C6943EA040202608B68C3620B6883624C
:104AB000054B984202D0084B984201D10B69036321
:104AC0000123436110BD00000000014000040040CC
:104AD00000080040000C004000040140004001407C
:104AE000004401400048014000180040001C004004
:104AF0000020004010B50248FDF7CEFF10BD0000B9
:104B0000F001002010B50248FDF7C6FF10BD0000FF
:104B10003002002010B50248FDF7BEFF10BD0000B6
:104B20007002002070B50546AC6B0020E085E08483
:104B30002046FDF7B0FF70BD70B506460025B46B8A
:104B400020684069C0F3C01594F83900212805D1C8
:104B500025B10020E084204600F082F820684069FA
:104B6000C0F3801594F83A00222805D125B1002021
:104B7000E085204600F054F8E06B40F01000E06360
:104B80002046FDF788FF70BD70B50546AC6B286800
:104B9000006800F48070B0B90020E0852068C0682B
:104BA00020F480702168C8602068406920F001000E
:104BB000216848612068406920F040002168486110
:104BC000202084F83A002046FEF74EFB70BD70B5F9
:104BD0000446A56B2846FEF748FB70BD70B5054638
:104BE000AC6B2868006800F4807070B90020E08425
:104BF0002068406920F08000216848612068C06812
:104C000040F040002168C86002E02046FEF77CFBCF
:104C100070BD70B50446A56B2846FEF787FB70BDD6
:104C20000168C96821F490710268D160016849691E
:104C300021F0010102685161202180F83A1070478B
:104C400010B504462068C06820F040002168C860A4
:104C5000202084F839002046FEF756FB002010BDC6
:104C60000168C96821F0C0010268D160202180F884
:104C70003910704770B5044694F83A0022284AD19A
:104C8000A068B0F5805F13D1A56A206940B920689B
:104C90004068C0F308002880A06A801CA06219E068
:104CA00020684068C0B22880A06A401CA06211E061
:104CB000206938B920684068C1B2A26A501CA0625D
:104CC000117007E02068406800F07F01A26A501C64
:104CD000A0621170E08D401E80B2E085C8B92068E6
:104CE000C06820F020002168C8602068C06820F4F7
:104CF00080702168C8602068406920F00100216848
:104D00004861202084F83A002046FEF7ADFA0020E2
:104D100070BD0020FCE70220FAE700002DE9F84F03
:104D200004462068006920F44050E1680843216887
:104D300008612169A068084361690843E169084383
:104D400000902068C06849F20C61884300990843CC
:104D50002168C8602068406920F44070A169084358
:104D600021684861E069B0F5004F75D1E3492068DA
:104D7000884203D0E249206888426FD1FDF778F974
:104D8000814602206168A0FB01510B461920A9FB56
:104D900000712A463846FBF785FA6421B0FBF1F032
:104DA0004FEA001A02206168A0FB01510B4619204E
:104DB000A9FB00712A463846FBF774FA0746022021
:104DC0006168A0FB01510B461920A9FB00B12A46DE
:104DD0005846FBF767FA6421B0FBF1F000EBC00125
:104DE00001EB0010A7EB8000322101EBC000642131
:104DF000B0FBF1F000F0F8000AEB400A0220616815
:104E0000A0FB01510B461920A9FB00712A46384628
:104E1000FBF748FA074602206168A0FB01510B46E8
:104E20001920A9FB00B12A465846FBF73BFA64213A
:104E3000B0FBF1F000EBC00101EB0010A7EB80002C
:104E4000322101EBC0006421B0FBF1F000F007005B
:104E50005044216888604FE16EE0FFE7FDF7F8F805
:104E6000814602206168A0FB01510B461920A9FB75
:104E700000712A463846FBF715FA6421B0FBF1F0C1
:104E80004FEA001A02206168A0FB01510B4619206D
:104E9000A9FB00712A463846FBF704FA07460220B0
:104EA0006168A0FB01510B461920A9FB00B12A46FD
:104EB0005846FBF7F7F96421B0FBF1F000EBC001B5
:104EC00001EB0010A7EB8000322101EBC000642150
:104ED000B0FBF1F000F0F8000AEB400A0220616834
:104EE000A0FB01510B461920A9FB00712A46384648
:104EF000FBF7D8F9074602206168A0FB0150034682
:104F00001920A9FB00B12A465846FBF7CBF96421CA
:104F1000B0FBF1F000EBC00101EB0010A7EB80004B
:104F2000322101EBC0006421B0FBF1F000F007007A
:104F3000504421688860DFE070492068884203D0CF
:104F40006F49206888426BD1FDF792F881460420B2
:104F50006168A0FB01510B461920A9FB00712A468C
:104F60003846FBF79FF9824604206168A0FB015197
:104F70000B461920A9FB00712A463846FBF792F927
:104F80006421B0FBF1F000EBC00101EB0010AAEBD3
:104F90008000322101EB00106421B0FBF1F000F041
:104FA000F00A04206168A0FB015003461920A9FB08
:104FB00000712A463846FBF775F96421B0FBF1F021
:104FC0000AEB001A04206168A0FB01510B4619206E
:104FD000A9FB00712A463846FBF764F9074604200E
:104FE0006168A0FB015003461920A9FB00B12A46C5
:104FF0005846FBF757F96421B0FBF1F000EBC00114
:1050000001EB0010A7EB8000322101EB00106421BE
:10501000B0FBF1F000F00F005044216888606BE0B5
:10502000FDF716F8814604206168A0FB0150034695
:105030001920A9FB00712A463846FBF733F982464E
:1050400004206168A0FB015003461920A9FB0071F0
:105050002A463846FBF726F96421B0FBF1F000EB55
:10506000C00101EB0010AAEB8000322101EB00101F
:105070006421B0FBF1F000F0F00A04206168A0FBAD
:10508000015003461920A9FB00712A463846FBF758
:1050900009F96421B0FBF1F00AEB001A0420616801
:1050A000A0FB017003461920A9FB005001463A46B7
:1050B0002846FBF7F7F8074604206168A0FB01507B
:1050C00003461920A9FB00B12A465846FBF7EAF827
:1050D0006421B0FBF1F000EBC00101EB0010A7EB85
:1050E0008000322101EB00106421B0FBF1F000F0F0
:1050F0000F00504421688860BDE8F88F001001401F
:1051000000140140014691F8390021282CD188680B
:10511000B0F5805F0FD10A6A1088C0F308000B68F1
:105120005860086918B9086A801C086209E0086AB2
:10513000401C086205E00B6A581C086218780B686E
:105140005860C88C401E80B2C88458B90868C068CE
:1051500020F080000B68D8600868C06840F040000C
:105160000B68D860002070470220FCE710B50A48A1
:105170000068006800F0100008B102F059FF06480E
:10518000FDF78AFC04480068006800F0080010B1D0
:1051900001480068446810BDB002002010B51048F6
:1051A000006810490968884207D10E480068006805
:1051B00000F0100008B102F015FF0A48FDF76CFC82
:1051C0000748006807490968884208D1054800680F
:1051D000006800F0080010B102480068446810BD83
:1051E00030030020F002002010B50E480068804215
:1051F00007D10C480068006800F0100008B102F008
:10520000F1FE0848FDF748FC06480068804208D1D6
:1052100004480068006800F0080010B10148006808
:10522000446810BD3003002000BFFEE70FB4084BF8
:1052300010B504A902AA039800F040F8044602A998
:10524000002000F017F9204610BC5DF814FB0000A8
:105250007554000802480068C0F30220704700003F
:105260000CED00E010B5002804DB0A07130E054A18
:10527000135406E00A07140E034A00F00F031B1F25
:10528000D45410BD00E400E018ED00E0EFF311800D
:105290007047EFF305807047EFF31080704702E02E
:1052A00008C8121F08C1002AFAD1704770470020B1
:1052B00001E001C1121F002AFBD170472DE9FF4F09
:1052C0008BB09A460F460546002606E025280BD0EF
:1052D00052460D9990476D1C761C28780028F5D110
:1052E0000FB03046BDE8F08F0024A046012260498F
:1052F00000E0044315F8013F203B02FA03F00842A6
:10530000F7D128782E2817D115F8010F44F004049E
:105310002A280ED06FF02F022878A0F13001092939
:105320000AD808EB880102EB410100EB01086D1C73
:10533000F2E757F8048B6D1C287869283ED006DC0C
:105340000028CDD063280BD0642804D136E0732820
:1053500010D075284BD052460D999047761C85E0A9
:1053600017F8040B8DF8000000208DF80100E946C5
:10537000012003E057F8049B4FF0FF3061074FF026
:10538000000401D40AE0641C44450DDA8442FADBCF
:1053900019F804100029F6D106E0641C8442FCDBF5
:1053A00019F804100029F8D1264404E019F8010B7B
:1053B00052460D999047641EF8D257E001CF4FF046
:1053C0000A0B002802DA40422D2102E0210504D513
:1053D0002B218DF82410012103E0E10705D02021C5
:1053E000F7E70DF1200908910CE00021F9E701CF62
:1053F0004FF00A0BF9E75946FBF7FAF801F13002D2
:1054000009F8012D0028F6D1ADEB090000F1200BC1
:10541000600701D44FF00108D84502DDA8EB0B006E
:1054200000E000208046002406E009A85246005D06
:105430000D999047641C761C08988442F5DB04E0C3
:10544000302052460D999047761CB8F10001A8F122
:105450000108F5DC05E019F8010B52460D9990475B
:10546000761CBBF10001ABF1010BF4DC6D1C34E7E1
:10547000092801000A68531C0B6010707047000077
:1054800070B505460748007830B901200549087015
:105490000020887104A400E007A4204600F0BAFCB4
:1054A00070BD0000C414022034675F6765743A6100
:1054B0007469206F6B0D0A0034675F6765743A6F1B
:1054C0006B0D0A007047000070B5054604A401206A
:1054D0000849C87000208871204600F09BFC70BD10
:1054E00034675F6765743A6365726567206F6B0D3B
:1054F0000A000000C414022010B5044604A000F005
:1055000089FC204600F086FC04A000F083FC10BD5E
:105510006770735F6765743A000000000D0A000051
:1055200070B5054604A401200849887000208871E0
:10553000204600F06FFC70BD34675F6765743A63A6
:1055400067726567206F6B0D0A000000C4140220AB
:1055500010B504461AA12046FAF700FF18B900203A
:1055600000F07AF910E019A12046FAF7F7FE18B911
:10557000012000F071F907E017A12046FAF7EEFECE
:1055800010B9022000F068F916A12046FAF7E6FEED
:1055900018B9002000F0EAF810E014A12046FAF74C
:1055A000DDFE18B9012000F0E1F807E011A1204666
:1055B000FAF7D4FE10B9022000F0D8F810BD0000B0
:1055C000535543434553532C300000005355434338
:1055D0004553532C31000000535543434553532C3E
:1055E000320000004641494C2C3000004641494CF5
:1055F0002C3100004641494C2C32000010B58CB0D3
:1056000004460020089009900A900B9004900590A1
:105610000690079004AB08AA14A12046FAF7B6FE3C
:1056200001A803AB02AA14A1009004A8FAF7AEFEE9
:105630009DF80C0003280CDABDF80400B0F5006FEB
:1056400007DA9DF80C0040B20E49C871BDF804009D
:105650000881BDF804309DF80C200BA11348FFF71A
:10566000E5FD124800F0D6FB0CB010BD255B5E2CAA
:105670005D2C25730000000025642C25642C256416
:105680002C000000C414022034675F6765743A2060
:10569000636C69656E745F25642072657620646151
:1056A0007461206C656E3D25640D0A0000000010D9
:1056B00010B58CB004460020059006900790089025
:1056C000019002900390049001AB05AA13A120461B
:1056D000FAF75CFE09A80AAB0BAA13A1009001A877
:1056E000FAF754FE13A105A8FAF738FEA0B9BDF8E1
:1056F00024000090BDF828309DF82C200FA11848F8
:10570000FFF794FD164800F085FB164900231A4662
:105710000869194603F09EF90CB010BD255B5E2C9C
:105720005D2C25730000000025642C25642C256465
:1057300000000000535543434553530034675F67EF
:1057400065743A20636C69656E745F2564207365C7
:105750006E64206F6B3D25642025640D0A000000F7
:1057600000000010C41402207047000038B5044641
:105770000221C4EB041000EB4002264800EB42106B
:105780000170C4EB041000EB4001224800EB411013
:105790004078401CC1B2C4EB041000EB40021D482D
:1057A00000EB421041700021C4EB041000EB4002FA
:1057B000184800EB4210816004F0E8F800F57A70B8
:1057C000C4EB041101EB4102124901EB421149788B
:1057D0004FF47A7212FB0101C4EB041000EB40029B
:1057E0000C4800EB421041600A484038406C009081
:1057F000C4EB041000EB4001064800EB4110437875
:10580000224605A11348FFF711FD124800F002FBE4
:1058100038BD00000415022034675F6765743A20C4
:1058200041545F436F6E6E6563745F256420C1AC45
:10583000BDD3CAA7B0DCB4CECAFD3D256420CFC21B
:10584000B4CED6D8C1AC7469636B733D25640D0AC0
:10585000000000000000001010B504460421C4EB55
:10586000041000EB4002164800EB421001700021CA
:10587000C4EB041000EB4002114800EB42104170F1
:10588000224610A11848FFF7D1FC174800F0C2FAD1
:105890000B484038B0F85A00002808DD0849403964
:1058A00000231A46086E194603F0D4F807E00449AD
:1058B000403900231A46C86D194603F0CBF810BDD5
:1058C0000415022034675F6765743A2041545F43D2
:1058D0006F6E6E6563745F256420C1ACBDD3B3C9C0
:1058E000B9A60D0A000000000000001070B50546C2
:1058F00004A401200849487000208871204600F067
:1059000089FA70BD34675F6765743A6372656720B2
:105910006F6B0D0A00000000C4140220704770472E
:1059200070B50546024C204600F074FA70BD0000C8
:105930009CA2000870B504460DA12046FAF70EFDA2
:1059400068B90DA50120114948710A201049086065
:1059500000200E498871284600F05CFA07E06420B8
:105960000B4908600BA5284600F054FA00BF70BD33
:10597000535543434553530034675F6765743A6E2C
:1059800065746F70656E206F6B0D0A00C414022081
:10599000B400002034675F6765743A6E65746F7099
:1059A000656E206661696C0D0A00000070B50646E0
:1059B0000BA500240AE00021C4EB041000EB400218
:1059C0000F4800EB42100170601CC4B2032CF2DBE4
:1059D00000200B4940394871284600F01BFA70BD81
:1059E00034675F6765743A6E65746F70656E2064C6
:1059F0006973636F6E6E65637465640D0A00000001
:105A00000415022010B50446034900231A4608690C
:105A1000194603F01FF810BDC414022010B5044647
:105A200021460648FAF7A8FC224605A10748FFF7D9
:105A3000FDFB064800F0EEF910BD0000E214022064
:105A400034675F6765743A25730D0A000000001023
:105A500038B504466A460EA12046FAF797FC9DF831
:105A6000000003280ADA00219DF80000C0EB0010B6
:105A700000EB4002074800EB421001709DF8002047
:105A800005A10E48FFF7D2FB0C4800F0C3F938BD62
:105A9000256400000415022034675F6765743A20AE
:105AA00053657276657220636C6F736520636C69F1
:105AB000656E743D25640D0A0000000000000010B2
:105AC0007FB504460025032C02DB002004B070BD26
:105AD0009B4850F8340020B1994800EBC4008088FE
