:020000040800F2
:10000000984C022081020008ED5200086B3D000868
:10001000E9520008A31000088D78000800000000D5
:10002000000000000000000000000000C101000806
:1000300033120008000000001D0200087D6F000858
:100040009B0200089B0200089B0200089B0200081C
:100050009B0200089B0200089B0200089B0200080C
:100060009B020008351200089B0200089B02000852
:10007000A9100008B9100008C9100008D91000081C
:10008000E9100008F91000089B0200089B02000814
:100090009B0200089B0200089B0200083F12000818
:1000A0009B020008A17000089B0200089B02000848
:1000B0009B0200089B0200089B0200089B020008AC
:1000C0009B020008813D0008713D00089B0200086A
:1000D0009B0200089B0200080178000831780008A4
:1000E0009B0200089B0200089B0200089B0200087C
:1000F0009B0200089B0200089B0200089B0200086C
:100100009B0200089B0200089B0200089B0200085B
:10011000897100089B0200089B0200089B020008EE
:100120009B020008091100089B0200089B020008BE
:100130009B0200089B0200089B0200089B0200082B
:100140009B0200089B0200089B0200089B0200081B
:100150009B020008191100089B0200087D78000826
:100160009B0200089B0200089B0200089B020008FB
:100170009B0200089B0200089B0200080000000090
:100180009B0200089B02000899710008A9710008F1
:100190009B0200089B0200089B0200089B020008CB
:1001A0009B0200089B0200089B020008DFF80CD0AD
:1001B00000F038FD00480047ED9D0008984C0220F3
:1001C0002C4B19680868B0E8F04F80F30988BFF33A
:1001D0006F8F4FF0000080F311887047000000001F
:1001E00008480068006880F308884FF0000080F33A
:1001F000148862B661B6BFF34F8FBFF36F8F00DF15
:1002000000BF00BF08ED00E0DFF80C00016841F41A
:1002100070010160704700BF88ED00E0EFF30980D6
:10022000BFF36F8F134B1A681EF0100F08BF20ED3D
:10023000108A20E9F04F106009B44FF0300080F3CD
:100240001188BFF34F8FBFF36F8F0BF0DFFF4FF0BD
:10025000000080F3118809BC19680868B0E8F04F05
:100260001EF0100F08BFB0EC108A80F30988BFF3AE
:100270006F8F704718010020EFF305807047000072
:100280000648804706480047FEE7FEE7FEE7FEE730
:10029000FEE7FEE7FEE7FEE7FEE7FEE78570000803
:1002A000AD0100082DE9F05F0546002092469B460F
:1002B00088460646814640241BE02846414647467C
:1002C000224600F092FB53465A46C01A914110D381
:1002D00011461846224600F079FB2D1A67EB0108FB
:1002E0004F4622460120002100F070FB17EB000969
:1002F0004E41201EA4F10104DFDC484631462A4667
:100300004346BDE8F09F40EA01039B0703D009E0A4
:1003100008C9121F08C0042AFAD203E011F8013BF1
:1003200000F8013B521EF9D27047D2B201E000F84A
:10033000012B491EFBD270470022F6E710B5134689
:100340000A4604461946FFF7F0FF204610BD421C3E
:1003500010F8011B0029FBD1801A704710B500224C
:1003600000E0521C835C8C5CA34201D1002BF8D1CD
:10037000D8B2E1B2401A10BD034611F8012B00F8C3
:10038000012B002AF9D11846704700000FB400B5C0
:100390008DB010A909900B9000914FF0FF300A909A
:1003A00000200C9005480690054807906A4609A869
:1003B0000F9900F051FB0DB05DF814FB750A0008B1
:1003C000930A00082DE9FF5F1D464FF0FF3BD5E97A
:1003D000014691465F464FF00008A9697F1C0198CD
:1003E0008847296A824688470028F6D1BAF1FF3F3C
:1003F0000CD024F4C064002E19DD600614D5BAF1C7
:100400002B0F09D0BAF12D0F0ED103E0584604B0DE
:10041000BDE8F09F44F48064A9697F1C0198884777
:10042000761E8246002E02DDBAF1300F03D0B9F1FC
:10043000000F26D032E0A969761E44F400747F1CB8
:10044000019888478246002E05DDBAF1780F06D064
:10045000BAF1580F03D0B9F1000F10D01EE0B9F176
:10046000000F02D0B9F1100F18D1A969761E24F43B
:1004700000747F1C019888478246102002E0082003
:1004800000E00A20814609E008FB0908A969761EF8
:1004900044F400747F1C019888478246002E05DDD5
:1004A0004946504600F0C3FA0028EDDAE9690198A0
:1004B0008847A00502D46FF00100A8E7E00725D126
:1004C000600613D5600502D5C8F1000000E0404683
:1004D00029680A1D2A600968220501D5087015E0FF
:1004E000220701D5088011E008600FE02868011D8F
:1004F00029600068210502D580F8008006E0210708
:1005000002D5A0F8008001E0C0F8008038467EE700
:100510002DE9FF5FD2E901A74FF0000891699946E4
:100520001446DDF838B0464601988847054659EA32
:100530000B0005D009E0A169761C019888470546A3
:10054000216A284688470028F5D1681C03D05FEA55
:10055000CA7005D015E04FF0FF3004B0BDE8F09F41
:100560002068011D2160D0F800800AE05FEACA70AF
:1005700001D108F8015BA169761C7F1E01988847AC
:100580000546002F1ADD681C18D0B9F1000F0DD0F8
:10059000E81705EBD060421120F01F0059F8221037
:1005A0002A1A012090400142E0D107E0BBF1000F80
:1005B000DCD1216A284688470028D7D0E169019814
:1005C0008847BBF1000F07D1002E05DD5FEACA7036
:1005D00002D1002188F80010A068B84203DDBBF109
:1005E000000F03D017B16FF00100B6E73046B4E753
:1005F0002DE9FE4F804681EA0300C00F0C460090B3
:1006000021F0004123F00045B8EB0200A94105D2DA
:100610004046214690461C460B46024623F00040C9
:10062000104347D0270DC7F30A00C3F30A510290C5
:10063000401A019040286BDAC3F3130040F4801B8A
:100640000098924620B10023D2EB030A63EB0B0B18
:1006500001985946C0F14002504600F0B7F90646ED
:100660000D4650465946019A00F0CFF910EB0800AC
:100670006141002487EA115284EAE7731A4340D0AB
:10068000009A62B3019A012A4FEA075215DC001B57
:1006900061EB02014FF0004202EA0752CDE900424D
:1006A000001C41F5801132462B4600F012FA03B0CF
:1006B000BDE8F08F40462146F9E7001B61EB0201DF
:1006C000001C41F5801300185B412018A2F50017AB
:1006D00047EB030140EAD570B6196D4111E06D0892
:1006E0004FEA360645EAC0754FEA0752001B61EB38
:1006F0000201001C41F5801149084FEA3000001941
:10070000514132462B4603B0BDE8F04F00F0D2B95C
:100710000098012240000023D0EB020263EBE0735B
:10072000009821464FEAE074B8EB000061EB040149
:10073000E9E783F000435BE781F0004158E72DE9EA
:10074000FE4F81EA030404F0004421F000410094CC
:100750004FF0000B23F0004350EA01045ED052EA50
:1007600003045BD0C3F30A54C1F30A552C44A4F22A
:10077000F3340194A0FB0254C1F3130141F480113E
:10078000C3F3130343F4801301FB024400FB034E45
:10079000840A970A44EA815447EA8357A4FB07680E
:1007A00002958D0A05FB07854FEA932C04FB0C5438
:1007B0002705029D4FEA065847EA1637B5EB0805AC
:1007C0006EEB070C870E920E47EA811742EA8312FE
:1007D000A7FB0201B6EB0B0164EB00042B0D43EA0F
:1007E0000C335E1844EB1C50DA465146E7FB02011D
:1007F000C5F313044FEA0B3343EA14534FEA0432B0
:10080000019C43EA0603A4F10C040294009CCDE988
:1008100000B400F05EF903B0BDE8F08F002001469F
:10082000F9E72DE9F04D81EA030404F0004B21F0D3
:10083000004514464FF0000A23F0004150EA05023B
:1008400020D054EA01021DD0C5F30A570246C5F371
:100850001303C1F31300C1F30A5640F4801543F4A7
:100860008013A7EB0608101BD64608F2FD3873EB81
:10087000050002D308F1010801E092185B41B8F1CC
:10088000000F03DA00200146BDE8F08D00204FF490
:100890008011064684460EE0171B73EB050705D34F
:1008A000121B63EB050306434CEA010C49084FEAAF
:1008B000300092185B4150EA0107EDD152EA030083
:1008C00012D082EA040083EA0501084305D0101B18
:1008D000AB4106D20122002306E000224FF0004384
:1008E00002E06FF0010253101AEB06004CEB0851C6
:1008F00010EB0A0041EB0B01BDE8F04D00F0DAB857
:100900000EB5C10F80EAE0700844CA07002140F22A
:1009100033438DE80E000A460B4600F0DAF803B0C8
:1009200000BD0EB540F2334102910021CDE9001126
:100930000A460B4600F0CDF803B000BDC1F30A52E1
:1009400010B5C1F3130140F2FF3341F480119A4214
:1009500001DA002010BD40F233439A42A2F2334242
:1009600003DC524200F041F810BD904010BD000081
:1009700030B5041E71F1000404DB4FF00044404226
:1009800064EB0101141E73F1000405DB1C464FF0FB
:100990000043524263EB0403994208BF904230BDCA
:1009A00030B50B46014600202022012409E021FA3F
:1009B00002F59D4205D303FA02F5491B04FA02F53C
:1009C0002844151EA2F10102F1DC30BD202A04DB0F
:1009D000203A00FA02F1002070479140C2F1200352
:1009E00020FA03F3194390407047202A04DB203A91
:1009F00021FA02F00021704721FA02F3D040C2F13F
:100A000020029140084319467047202A06DBCB1785
:100A1000203A41FA02F043EAE07306E041FA02F3B9
:100A2000D040C2F1200291400843194670473A284D
:100A300000D2303820F02002412A01D3A2F1370041
:100A4000884201D34FF0FF30704700000268114424
:100A50001378016018467047D16004495161044918
:100A6000116200211161114600F0F4B84D0A00082E
:100A7000490C0008426842B1016811F8013B23B1FA
:100A8000521EC0E90012184670470121C160881E3D
:100A9000704742685AB1C368016843B983688B42A2
:100AA00005D0491E521CC0E90012002070474FF0CB
:100AB000FF30704710B5141E73F1000408DA401CB3
:100AC00041F1000192185B411A4301D120F001006D
:100AD00010BD2DE9F04D92469B4611B1B1FA81F25D
:100AE00002E0B0FA80F220329046FFF76FFF044632
:100AF0000F4640EA0A0041EA0B0153465A460843B2
:100B000013D0114653EA010019D0C8F140025046F3
:100B1000FFF76BFF05460E46504659464246FFF723
:100B200055FF084305D0012004E020463946BDE8C2
:100B3000F08D0020054346EAE0762C4337430A98BF
:100B40006305E40AA0EB08000022FD0A44EA4754CA
:100B50000A3002D500200146E9E701051019694174
:100B6000DDE9084500196941BDE8F04DA2E770B51F
:100B700021F0004303430CD0C1F30A550024D5EB08
:100B8000040564EB0403D617AD1AB34102DB002061
:100B9000014670BD201841EB025170BD2DE9F041B6
:100BA000054621F000400C46284309D0C4F30A5002
:100BB00040F23341884205DD28462146BDE8F081F8
:100BC0002846FBE740F2FE31884210DC0CDB4FEA9E
:100BD000043040EA155050EA053105D0104804F0C1
:100BE000004101430020E9E700200146E6E7A0F2CA
:100BF00033404642C6F1400228462146FFF7E6FE52
:100C000007468846284621463246FFF7EEFE434611
:100C10003A46FFF74FFF3246BDE8F041FFF7D6BE38
:100C20000000F03F064C074D06E0E06840F001038D
:100C300094E8070098471034AC42F6D3FFF7BAFAAD
:100C4000ACE00008DCE00008C0B24FF4F05100F066
:100C5000E9B900002DE9F34F8BB04FF0000801F126
:100C60000C000C464FF0010B46460DF1080A0190AE
:100C70006269012101989047051E2DD0252D2CD0A9
:100C8000216A8847C0B16269012101989047216AB1
:100C900088470028F7D1411E62690198904700E01B
:100CA000761CA1690B988847216A88470028F7D1EC
:100CB000E1690B988847DBE7A1690B9888470746ED
:100CC000A84201D1761CD3E7E1690B9888477F1CC5
:100CD00002D1B8F1000F6FD046E1002762693D46AE
:100CE0003946019890472A2804D162690121019868
:100CF00090470125DFF884926269012101989047AD
:100D0000A0F130010A290AD24F45E5DC07EB870143
:100D100000EB4107303FDFD445F01005ECE7E90672
:100D200001D46FF000476C280AD04C2814D06828F2
:100D300015D06A280DD074281CD07A281AD01DE04E
:100D400062690121019890476C2802D045F00405A2
:100D500014E045F002050DE045F020050AE0626967
:100D6000012101989047682802D045F0080505E068
:100D700045F400656269012101989047C4E9015773
:100D800065283DD019DC58287AD00CDC452837D0AE
:100D900004DC252826D0412831D131E046282FD047
:100DA00047282CD12CE05B2877D0612828D06328F5
:100DB0007CD0642823D15AE0D0E06F2848D008DCEA
:100DC00066281DD067281BD0692821D06E2816D12F
:100DD00027E0702845D0732868D0752847D0782838
:100DE0000DD14DE0A1690B988847054625283FF4B1
:100DF00069AFE1690B9888476D1C3FF46AAFB3E0B7
:100E000023466A466FF001000B99AFF300809EE025
:100E100045F040006060A80723464FF0000236D43A
:100E20003EE0E8077FF447AF2068011D21600068BD
:100E3000290501D506701BE7290701D5068017E7AC
:100E4000A90703D5F117C0E9006111E706600FE7B4
:100E500045F040006060A80723464FF0080216D412
:100E60001EE040F60E0125EA0100606016E045F044
:100E700040006060A80723464FF00A0207D40FE045
:100E800045F040006060A80708D5234610226FF0A7
:100E900001000B99AFF3008059E007E023461022D0
:100EA0006FF001000B99FFF78DFA50E04FF0000949
:100EB0004F464B46632802D05B2806D040E0E80648
:100EC00001D40120A06001273AE062690121019864
:100ED00090475E2805D14FF00109626949460198A3
:100EE0009047216939B900210A46534643F8212029
:100EF000491C0829FADBB0B3216969B9C11700EBB5
:100F0000D16253110AEB830122F01F02821A0120E1
:100F10000B68904003430B60626901210198904780
:100F20005D28E8D1B9F1000F09D00020514651F8F1
:100F30002020D24341F82020401C0828F7DB02ABD8
:100F4000224600976FF001000B99FFF7E1FA0028A5
:100F50000CDA401C08D1BBF1000F05D04FF0FF3078
:100F60000DB0BDE8F08FFFE74046F9E7E90701D192
:100F700008F1010806444FF0000B79E6CCCCCC0C0C
:100F80002DE9F04D00231A461B1A8A4103DB00208D
:100F90000146BDE8F08DC1F30A52C1F3130141F4DB
:100FA00080154FF0000BD10702D100186D41521E81
:100FB0000027044640F2FF11384601EB620A3E4624
:100FC0008046024600204FF48011FFF70EFDC21943
:100FD0007141BB1846EB0100B4EB030C75EB000C40
:100FE00004D3E41A65EB000517460E46241908F1F0
:100FF00001006D4180463428E3DDF91946EB060017
:10100000091BA84103D24FF0FF32134601E0002232
:1010100013461BEB070046EB0A51BDE8F04DFFF706
:1010200049BD00007F2801D9002208E0064A02EBF2
:101030005002C007127800D1120902F00F020120FD
:101040009040084070470000D8DE000870B58C184A
:1010500010F8015B15F0070301D110F8013B2A11CC
:1010600006D110F8012B03E010F8016B01F8016BB9
:101070005B1EF9D12B0705D40023521E0DD401F8B5
:10108000013BFAE710F8013BCB1A921C03E013F87E
:10109000015B01F8015B521EF9D5A142D8D30020B3
:1010A00070BD00BFFEE7000010B5024800F066F911
:1010B00010BD00001806002010B5024800F05EF9CF
:1010C00010BD00003804002010B5024800F056F9A9
:1010D00010BD0000B805002010B5024800F04EF920
:1010E00010BD00009804002010B5024800F046F939
:1010F00010BD0000F804002010B5024800F03EF9D1
:1011000010BD00005805002010B5024800F036F967
:1011100010BD00007806002010B5024800F02EF93E
:1011200010BD0000D80600200146087810381823AA
:10113000B0FBF3F20848805CC865032A05D908684B
:101140006FF30900001D886503E008686FF309006C
:101150008865886D7047000040DE00080146002069
:101160008A6A8B69CBB932B1012A0DD0022A03D029
:10117000032A10D10EE000BFCB6A03F08073B3F1F5
:10118000807F00D1012007E0CB6AB3F1C07F00D19E
:10119000012001E000E000BF34E08B69B3F5005F9F
:1011A0001AD132B1012A07D0022A03D0032A11D161
:1011B0000AE000BF01200EE0CB6A03F08073B3F1B8
:1011C000807F00D1012006E0CB6AB3F1C07F00D15F
:1011D000012000E000BF15E032B1012A05D0022A4B
:1011E00004D0032A0CD103E000BF00BF012008E0B7
:1011F000CB6A03F08073B3F1807F00D1012000E05F
:1012000000BF00BF704730B50468246824F4802410
:1012100005682C60046863608468402C04D104680D
:10122000A2600468E16003E00468A1600468E26011
:1012300030BD704710B5082000F0BAFA10BD10B5E7
:101240004FF4007000F0B4FA10BD704710B50446BA
:101250000CB9012010BD607920B900202071204612
:1012600000F004F8012060710020F3E708B50A4A95
:10127000016891420FD100BF002100910749096820
:1012800041F48051054A11601146096801F480510A
:10129000009100BF00BF08BD00300240303802405E
:1012A00070B50446A56D00F0AFFB064694F8350016
:1012B000022808D08020606500BF002084F8340038
:1012C00000BF012070BD2068006820F01600216872
:1012D00008602068406920F0800021684861206C27
:1012E00008B9A06C28B12068006820F008002168C7
:1012F00008602068006820F00100216808600FE0A5
:1013000000F082FB801B05280AD92020606500BF01
:10131000002084F8340000BF032084F83500D1E7B2
:101320002068006800F001000028E9D194F85C1002
:101330003F208840A86000BF002084F8340000BF30
:10134000012084F835000020BCE7014691F8350003
:10135000022803D08020486501207047052081F8CD
:1013600035000868006820F001000A68106000205D
:10137000F3E7014691F8350070470000F8B50446E0
:10138000002000908C4800684FF41651B0FBF1F734
:10139000A56D2E6894F85C1008208840304098B104
:1013A0002068006800F0040070B12068006820F038
:1013B00004002168086094F85C1008208840A86048
:1013C000606D40F00100606594F85C100120884079
:1013D000304068B12068406900F0800040B194F866
:1013E0005C1001208840A860606D40F002006065DC
:1013F00094F85C1004208840304068B12068006890
:1014000000F0020040B194F85C1004208840A8600D
:10141000606D40F00400606594F85C101020884016
:10142000304078B32068006800F0080050B394F8AA
:101430005C1010208840A8602068006800F48020BC
:1014400080B12068006800F4002028B9206CC8B181
:101450002046216C884715E0A06C98B12046A16C0D
:1014600088470FE02068006800F4807028B9206881
:10147000006820F0080021680860206C10B1204648
:10148000216C884794F85C10202088403040002868
:1014900065D02068006800F0100000285FD094F844
:1014A0005C1020208840A86094F83500052828D1D9
:1014B0002068006820F016002168086020684069F4
:1014C00020F0800021684861206C08B9A06C28B128
:1014D0002068006820F008002168086094F85C101B
:1014E0003F208840A86000BF002084F8340000BF7F
:1014F000012084F83500206D10B12046216D884709
:10150000F8BD2068006800F4802080B12068006881
:1015100000F4002028B9606C10B12046616C884747
:101520001DE0E06BD8B12046E16B884717E02068EA
:10153000006800F4807068B92068006820F010002E
:101540002168086000BF002084F8340000BF01203B
:1015500084F83500E06B10B12046E16B8847606D80
:1015600038B3606D00F00100F0B1052084F835005B
:101570002068006820F001002168086000BF009822
:10158000401C0090B84200D905E02068006800F0D7
:1015900001000028F3D100BF00BF002084F8340010
:1015A00000BF012084F83500E06C10B12046E16CEA
:1015B000884700BFA4E70000240000202DE9F04187
:1015C0000446002500F020FA074614B90120BDE8C2
:1015D000F081606A00B100BF00BF002084F83400D1
:1015E00000BF022084F835002068006820F0010068
:1015F000216808600AE000F007FAC01B052805D939
:1016000020206065032084F83500E0E7206800684A
:1016100000F001000028EED120680568214805404F
:10162000D4E901010843E16808432169084361697D
:101630000843A1690843E1690843216A0843054357
:10164000606A042803D1D4E90B01084305432068EC
:1016500005602068456925F00705606A0543606AF2
:1016600004280DD1A06A0543E06A48B12046FFF77F
:1016700075FD28B140206065012084F83500A6E79B
:10168000206845612046FFF74FFD064694F85C1040
:101690003F208840B06000206065012084F835005C
:1016A000002094E73F8010F02DE9F04704460D46F6
:1016B00016461F464FF00008D4F8589000BF94F823
:1016C0003400012802D10220BDE8F087012084F80F
:1016D000340000BF94F83500012825D1022084F899
:1016E0003500002060653B46324629462046FFF71C
:1016F0008AFD94F85C103F208840C9F808002068F3
:10170000006840F0160021680860206C28B120684D
:10171000006840F00800216808602068006840F018
:1017200001002168086006E000BF002084F8340052
:1017300000BF4FF002084046C6E700001CB5044653
:1017400000200190082C15D11748006858B301A853
:101750000023012202210090134800680BF030FEA4
:10176000019800B3600611490860BFF34F8FBFF3C3
:101770006F8F18E0B4F5007F15D10B48006890B169
:1017800001A80023012211460090074800680BF0D1
:1017900017FE019838B14FF0805004490860BFF33C
:1017A0004F8FBFF36F8F1CBD2000002004ED00E0C1
:1017B00010B5044604480068204020B10248046087
:1017C0002046FFF7BBFF10BD143C0140F8B50246B0
:1017D0000B460025002400200021E6E0012606FA41
:1017E00001F51E6806EA0504AC4273D15E68012E5D
:1017F00008D05E68022E05D05E68112E02D05E68A9
:10180000122E13D190684F000326BE40B0434F0004
:10181000DE68BE4030439060506801268E40B04381
:101820001E79C6F300168E4030435060D0684F00DA
:101830000326BE40B0434F009E68BE403043D06098
:101840005E68022E02D05E68122E13D1CF0802F11C
:10185000200656F827004E07F70E0F26BE40B0436D
:101860004F07FF0E1E69BE403043CF0802F120062D
:1018700046F8270010684F000326BE40B0431E798B
:1018800006F003064F00BE40304310605E6806F06D
:101890008056B6F1805FA8D100BF00260096454E65
:1018A000366846F48046434F3E603E46366806F44E
:1018B0008046009600BF00BF3F4E8F0856F82700B5
:1018C0008E07370F0F26BE40B0433C4EB24202D1C6
:1018D00000262EE068E03A4EB24201D1012628E00F
:1018E000384EB24201D1022623E0374EB24201D136
:1018F00003261EE0354EB24201D1042619E0344ED3
:10190000B24201D1052614E0324EB24201D1062680
:101910000FE0314EB24201D107260AE02F4EB2420B
:1019200001D1082605E02E4EB24201D1092600E081
:101930000A268F073F0FBE4030431F4E8F0846F8E0
:101940002700284E3068A0435E6806F48036B6F55E
:10195000803F00D12043234E3060361D3068A043C5
:101960005E6806F40036B6F5003F00D120431D4EF8
:10197000361D3060361D3068A0435E6806F4801660
:10198000B6F5801F00D12043164E08363060361D54
:101990003068A0435E6806F40016B6F5001F00D15B
:1019A0002043104E0C363060491C1029FFF416AF4E
:1019B000F8BD0000443802400838014000000240F1
:1019C0000004024000080240000C024000100240E7
:1019D0000014024000180240001C02400020024097
:1019E00000240240003C014042690A408A4202D180
:1019F0000A04826100E0816170470AB1816101E0FF
:101A00000B048361704700000148006870470000C4
:101A10000C010020024692F83D0020281ED124200F
:101A200082F83D001068006820F00100136818601B
:101A30001068406A20F01000136858621068406A0D
:101A40000843136858621068006840F0010013688A
:101A50001860202082F83D00002070470220FCE73B
:101A600010B502460B46002192F83D0020281DD1FA
:101A7000242082F83D001068006820F001001468FE
:101A800020601068406A81B221F00F0141EA030032
:101A900081B2106841621068006840F0010014686B
:101AA0002060202082F83D00002010BD0220FCE7CD
:101AB000704770472DE9F84F044620684769206851
:101AC000D0F80480002594F83E90C7F3002040B180
:101AD000C8F3002028B145F001056FF4807021683B
:101AE0004861C7F3402040B1C8F3002028B145F059
:101AF00002056FF4007021684861C7F3802070B35D
:101B0000C8F3002058B3CA46B4F82AB094F83D6030
:101B1000206B0090BAF1200F0FD1BBF1000F0CD158
:101B2000212E06D0292E04D0282E06D10098212857
:101B300003D1204602F074FE11E06FF4806021684A
:101B4000486145F00405B9F1100F02D0B9F1400F1A
:101B500005D12068006840F4007021680860C7F370
:101B6000C02040B1C8F3002028B145F008056FF44B
:101B70000060216848612DB1206C28432064204614
:101B800002F06AF9BDE8F88F2DE9F0470546002715
:101B900028684668D5F82C8095F83E9095F83DA0C9
:101BA000B9F1100F02D0B9F1400F78D128688769D8
:101BB0002868446904F0010060B9B8F52A0F02D022
:101BC000B8F12A4F01D1012000E00020012801D105
:101BD000BDE8F08704F0010048B1C6F3402030B101
:101BE000284602F0D5F8284602F0FAFCACE0C4F32F
:101BF000C00030B1C6F3402018B1284602F0A7FB60
:101C0000A2E0C4F3400030B1C6F3402018B128462A
:101C100002F0B2FB98E0C7F38000F8B12868406892
:101C200000F40060B0F5006FE0D0C4F3C01048B11C
:101C3000C6F3802030B1C4F3800018B9284602F002
:101C40001AFB81E0C4F3800000287DD0C6F3402059
:101C5000002879D0284602F0B6FA75E02868406876
:101C600000F40060B0F5006F6ED0C4F3801048B18E
:101C7000C6F3802030B1C4F3800018B9284602F0C2
:101C800050FA61E0C4F3800000285DD0C6F3402024
:101C9000002859D0284602F0B1F955E0FFE7286C3A
:101CA00010B12868446903E0286887692868446996
:101CB000C4F3400058B1C6F3402040B1286C08B1CD
:101CC000286887693946284602F077FD3CE0C4F36E
:101CD000001030B1C6F3402018B1284602F0F0FDE4
:101CE00032E0BAF1210F02D0BAF1290F16D1C4F3B4
:101CF000C01048B1C6F3802030B1C4F3800018B9D9
:101D0000284602F037FD1FE0C4F38000E0B1C6F3BF
:101D10004020C8B1284602F020FD15E0C4F3801031
:101D200048B1C6F3802030B1C4F3800018B928460A
:101D300002F0F0FC08E0C4F3800028B1C6F34020B4
:101D400010B1284602F0D9FC00BF41E770470000FF
:101D500070B504460CB9012070BD94F83D0028B957
:101D6000002084F83C00204600F0E0F8242084F8AD
:101D70003D002068006820F00100216808602068AC
:101D8000006840F40040216808602068006820F482
:101D900000402168086000F093FC05465C496068DB
:101DA000884206D85B48854201D2012007E0002026
:101DB00005E05948854201D2012000E000200128B9
:101DC00000D1C9E75548B5FBF0F62068406820F01F
:101DD0003F003043216848604D496068884201D81F
:101DE000701C07E04FF4967070434FF47A71B0FBAB
:101DF000F1F0401C2168096A21F03F010843216885
:101E0000086243496068884214D8681E61684900C6
:101E1000B0FBF1F0401CC0F30B00042801D20420F9
:101E20003DE0681E61684900B0FBF1F0401CC0F362
:101E30000B0034E0A06838B9681E616801EB41010D
:101E4000B0FBF1F0401C0AE0681E616801EBC102C2
:101E500002EB0111B0FBF1F0401C40F48040C0F3F4
:101E60000B0008B901201AE0A06848B9681E616833
:101E700001EB4101B0FBF1F0401CC0F30B000CE0A2
:101E8000681E616801EBC10202EB0111B0FBF1F0C9
:101E9000401CC0F30B0040F4804040F40040216837
:101EA000C9694CF6FF72914308432168C861D4E9BF
:101EB000070108432168096821F0C001084321682F
:101EC0000860D4E9031008432168896848F2FF32AA
:101ED0009143084321688860D4E9050108432168DB
:101EE000C96821F0FF0108432168C86020680068C4
:101EF00040F001002168086000202064202084F860
:101F00003D000020206384F83E0000BF24E700006D
:101F1000A086010080841E0000093D0040420F00A1
:101F200070477047704770477047000010B586B023
:101F30000446142101A8FEF7FFF9234920688842CE
:101F40003FD100BF002000902048006840F0800092
:101F50001E4908600846006800F08000009000BF3D
:101F600000BF302001901220029001200390032036
:101F700004900420059001A91548FFF727FC00BF35
:101F80000020009011481030006840F480000F4994
:101F9000103108600846006800F48000009000BF1F
:101FA00000BF00220521212000F0C6F8212000F00A
:101FB000B3F800220521222000F0BEF8222000F014
:101FC000ABF806B010BD00000058004030380240A9
:101FD000001C0240704770470348006803490978B5
:101FE00008440149086070470C01002014010020DA
:101FF00010B50D48006840F400700B4908600846B1
:10200000006840F4806008600846006840F4807012
:102010000860032000F0CEF8002000F007F800F080
:102020004BF8002010BD0000003C024070B588B0A5
:1020300004460025002600222146192000F07CF8E5
:10204000192000F069F800BF0020019016480068D0
:1020500040F00100144908600846006800F00100E3
:10206000019000BF00BF02A903A800F001FB00F02F
:1020700037FB45000D48B5FBF0F0461E0C480D49F6
:10208000086040F2E7310B48C16046600021016101
:10209000816001F013F920B9064801F02AF908B06F
:1020A00070BD0120FBE700004438024040420F00B1
:1020B000000001403807002008B500BF0020009054
:1020C0001448006840F480401249086008460068DF
:1020D00000F48040009000BF00BF00BF00200090CF
:1020E000081F006840F08050091F0860084600681B
:1020F00000F08050009000BF00BF002203216FF06D
:102100000A0000F019F800220F21901E00F014F8C8
:1021100008BD00004438024001460846002809DB9B
:1021200000F01F0301229A4043099B0003F1E023C2
:10213000C3F8002100BF70472DE9F05F80460D46CF
:102140001646002705F0D0FB074639462A46334697
:1021500001F00700C0F1070ABAF1040F02D94FF0ED
:10216000040A01E0C0F1070AD14600F1040ABAF1FD
:10217000070F02D24FF0000A01E0A0F1030AD44693
:102180004FF0010A0AFA09FAAAF1010A0AEA020A58
:102190000AFA0CFA4FF0010B0BFA0CFBABF1010B36
:1021A0000BEA030B4AEA0B042146404605F0A4FB68
:1021B000BDE8F09F00BF00F00702064B19684FF61C
:1021C000FF031940044B0B4343EA0221014B196002
:1021D00000BF70470CED00E00000FA05F8B50446BA
:1021E00000250026207800F0010048B9207800F092
:1021F0000200022804D0207800F04000402862D17C
:102200000020B1498866FFF7FFFB054606E0FFF7AF
:10221000FBFB401B022801D90320F8BDAB48006836
:10222000C0F3C0600028F2D1207800F0010038B17E
:1022300060688101207A41EA0070A4498431086015
:10224000207800F00200022819D1A04884300068EC
:10225000C0F3027660688101207B41EA006040EAB9
:1022600006709A498431086098488C30006820F0E4
:102270001F00E169491E084394498C3108602078A9
:1022800000F0400040280AD160688101207B41EACB
:102290000061207A41EA00708C4984310860012095
:1022A00089498866FFF7B0FB054606E0FFF7ACFBFF
:1022B000401B022801D90320AFE784480068C0F31F
:1022C000C0600028F2D0207800F00400042804D078
:1022D000207800F00800082863D100207A490867B8
:1022E000FFF792FB054606E0FFF78EFB401B022836
:1022F00001D9032091E775480068C0F340700028B9
:10230000F2D1207800F00400042819D16F488830F9
:102310000068C0F3027620698101207D41EA0060F7
:1023200040EA0670694988310860081D006820F499
:10233000F851206A401E41EA002064498C3108604F
:10234000207800F00800082817D16048883000681D
:10235000C0F303662069800140EA0661207E41EAFD
:1023600000705A4988310860081D006820F4403028
:10237000616A084355498C31086001205249086759
:10238000FFF742FB054606E0FFF73EFB401B022835
:1023900001D9032041E74D480068C0F34070002890
:1023A000F2D0207800F0200020287DD100BF00204E
:1023B000009046484030006840F08050434940312A
:1023C00008600846006800F08050009000BF00BF21
:1023D0003F48006840F480703D490860FFF714FBF7
:1023E000054606E0FFF710FB401B022801D9032039
:1023F00013E73748006800F480700028F2D03348B3
:102400007030006800F440764EB3208D00F44070C8
:10241000B04224D02D487030006820F4407601206E
:102420002C49086000200860284870300660006869
:1024300000F0010098B1FFF7E7FA054608E0FFF762
:10244000E3FA401B41F28831884201D90320E4E6D7
:102450001E4870300068C0F340000028EFD000BF75
:10246000208D00F44070B0F5407F0CD11748083043
:10247000006820F4F810184AA16A11400843134973
:102480000831086007E011480830006820F4F810AF
:102490000E49083108600D4870300068218DC1F385
:1024A0000B010843094900E002E07031086000BFF9
:1024B000207800F01000102803D194F82C00074970
:1024C00008600020A9E600000000474200380240F2
:1024D00000700040400E4742FFFCFF0FE0114742F2
:1024E00070B504460D460CB9012070BD584800680F
:1024F00000F00F00A84209D255490D700846006847
:1025000000F00F00A84201D00120EEE7207800F093
:10251000020002281DD1207800F00400042805D113
:102520004C48006840F4E0504A490860207800F0C8
:102530000800082805D14748006840F46040454934
:1025400008604448006820F0F000A1680843414951
:102550000860207800F00100A8B36068012807D166
:102560003C4808380068C0F34040B8B90120BCE7D7
:102570006068022802D06068032807D1354808380F
:102580000068C0F3406048B90120AEE73148083820
:102590000068C0F3400008B90120A6E72D48006894
:1025A00020F00300616808432A490860FFF72CFA0D
:1025B000064609E0FFF728FA801B41F2883188427D
:1025C00002D9032091E707E02248006800F00C00E0
:1025D0006168B0EB810FEDD11D48006800F00F007D
:1025E000A84209D91A490D700846006800F00F008A
:1025F000A84201D0012078E7207800F004000428E8
:1026000007D11448006820F4E050E16808431149FC
:102610000860207800F00800082808D10D480068FC
:1026200020F46040216940EAC1000A49086000F0D6
:1026300067F808490968C1F30311074A515CC840AB
:102640000649086006480068FFF7F0FC00204CE7E8
:10265000003C02400838024050DC00082400002002
:102660001001002001200149C86470470000474262
:102670000F2202600D4A126802F0030242600B4A08
:10268000126802F0F0028260084A126802F4E05216
:10269000C260064A126802F46042D2080261044A2B
:1026A000126802F00F020A6070470000083802400A
:1026B000003C0240014800687047000024000020F0
:1026C00000B5FFF7F7FF04490968C1F38221034A07
:1026D000515CC84000BD00000838024060DC0008C2
:1026E00000B5FFF7E7FF04490968C1F34231034A27
:1026F000515CC84000BD00000838024060DC0008A2
:102700002DE9F047002400250026A1462548006851
:1027100000F00C0020B1042805D008283AD105E0CB
:10272000DFF8849039E0DFF8849036E01D48001F20
:10273000006800F03F041B48001F006800F48000A0
:1027400078B11A481749091F0968C1F38811A0FB1D
:1027500001700146224600233846FDF7A3FD0546D9
:102760000EE011480F49091F0968C1F38811A0FB49
:1027700001700146224600233846FDF793FD0546C9
:102780000848001F0068C0F30140401C4600B5FB2C
:10279000F6F902E0DFF8109000BF00BF4846BDE840
:1027A000F0870000083802400024F40080BA8C0151
:1027B000F8B504460CB90120F8BD207800F00100FE
:1027C000002874D0F948006800F00C0004280DD0EF
:1027D000F648006800F00C00082813D1F348001FE9
:1027E000006800F48000B0F5800F0BD1EF48083886
:1027F0000068C0F34040002859D06068002856D1D6
:102800000120D9E700BF6068B0F5803F08D1E748F4
:102810000838006840F48030E449083908601EE058
:102820006068B0F5A02F0DD1E0480838006840F48A
:102830008020DE49083908600846006840F480308E
:1028400008600CE0D9480838006820F48030D74987
:10285000083908600846006820F48020086000BF3E
:10286000606890B1FFF7D0F8054606E0FFF7CCF8B6
:10287000401B642801D903209EE7CC480838006833
:10288000C0F340400028F1D011E0FFF7BDF8054645
:1028900006E0FFF7B9F8401B642801D903208BE755
:1028A000C24808380068C0F340400028F1D12078C1
:1028B00000F0020002285FD1BC48006800F00C0064
:1028C00058B1BA48006800F00C0008281CD1B7487D
:1028D000001F006800F48000B0B9B44808380068F0
:1028E000C0F3400020B1E068012801D0012063E777
:1028F000AE480838006820F0F800216940EAC100BD
:10290000AA490839086037E0E06800B30120A84907
:102910000860FFF779F8054606E0FFF775F8401BF9
:10292000022801D9032047E7A04808380068C0F30F
:1029300040000028F1D09D480838006820F0F800D9
:10294000216940EAC10099490839086014E0002073
:1029500097490860FFF758F8054606E0FFF754F876
:10296000401B022801D9032026E790480838006858
:10297000C0F340000028F1D1207800F008000828BA
:102980002CD16069A8B101208A490860FFF73CF8A2
:10299000054606E0FFF738F8401B022801D903205E
:1029A0000AE782486C300068C0F340000028F1D08C
:1029B00014E000207F490860FFF726F8054606E08E
:1029C000FFF722F8401B022801D90320F4E67748DC
:1029D0006C300068C0F340000028F1D1207800F08E
:1029E0000400042870D1002770483830006800F0D7
:1029F000805090B900BF002000906C4838300068CB
:102A000040F080506949383108600846006800F09D
:102A10008050009000BF00BF01276748006800F4A5
:102A20008070B0B96448006840F480706249086002
:102A3000FEF7EAFF054606E0FEF7E6FF401B022828
:102A400001D90320B8E65C48006800F480700028D3
:102A5000F2D000BFA068012808D15448683000684F
:102A600040F001005149683108601DE0A068052868
:102A70000DD14E486830006840F004004B49683181
:102A800008600846006840F0010008600CE0474814
:102A90006830006820F00100444968310860084649
:102AA000006820F00400086000BFA068A8B1FEF72D
:102AB000ABFF054609E0FEF7A7FF401B41F2883156
:102AC000884202D9032077E626E03848683000685B
:102AD000C0F340000028EED013E0FEF795FF054656
:102AE00008E0FEF791FF401B41F28831884201D98E
:102AF000032061E62D4868300068C0F340000028DC
:102B0000EFD1012F07D129483830006820F08050DC
:102B100026493831086000BFA069002845D0234805
:102B2000006800F00C0008285DD0A069022845D19B
:102B300000201F490866FEF767FF054606E0FEF71E
:102B400063FF401B022801D9032035E617480838E7
:102B50000068C0F340600028F1D1D4E907010843C0
:102B6000616A40EA81110122A06AC2EB500041EA89
:102B700000412C20005D41EA00600C49091F0860FB
:102B800001200B490866FEF73FFF054606E0FEF709
:102B90003BFF401B022801D903200DE603480838FB
:102BA0000068C0F340600028F1D03FE008380240E0
:102BB00000004742800E47420070004000201C4940
:102BC0000866FEF721FF054606E0FEF71DFF401BE5
:102BD000022801D90320EFE516480068C0F34060E1
:102BE0000028F2D122E0A069012800D1E4E51148D3
:102BF000001D066806F48001E069814214D106F0E8
:102C00003F01206A81420FD147F6C0703040616AAF
:102C1000884209D106F44031A06A814204D106F00D
:102C20007061E06A814201D00120C5E50020C3E562
:102C3000000047420038024010B504460CB901209C
:102C400010BD607F20B900202077204600F060F89A
:102C50000220607700BFCA202168486253202168A3
:102C6000486200BF204602F00BFC40B100BFFF20CD
:102C70002168486200BF042060770120E0E72068F7
:102C8000806822490840216888602169606808439B
:102C90006169084321688968084321688860216860
:102CA000E068086120680169208941EA00402168E4
:102CB00008612068C06820F080002168C860206832
:102CC000806800F0200060B9204600F02DF840B187
:102CD00000BFFF202168486200BF04206077012008
:102CE000AEE72068006C20F480202168086420682A
:102CF000006CA16908432168086400BFFF202168B7
:102D0000486200BF01206077002099E7BFFF8FFF76
:102D1000034A0168914202D10121024A11607047C1
:102D2000002800403C0E474270B50446002520684C
:102D3000C06820F0A0002168C860FEF765FE054667
:102D400007E0FEF761FE401BB0F57A7F01D9032052
:102D500070BD2068C06800F020000028F1D000207D
:102D6000F6E710B504460CB9012010BD606A00B941
:102D700000BF0021A16294F8510028B9002084F816
:102D80005000204600F034F8022084F851002068FA
:102D9000006820F0400021680860D4E90101084380
:102DA000E16808432169084361690843218B01F404
:102DB00000710843E1690843216A0843A16A084396
:102DC000216808600421A06901EA1040616A084393
:102DD000216848602068C06920F400602168C861EB
:102DE00000206065012084F851000020BDE700004C
:102DF00010B586B00446142101A8FDF79DFA3649A6
:102E00002068884230D100BF00200090334800681D
:102E100040F40050314908600846006800F4005052
:102E2000009000BF00BF00BF002000902B48143866
:102E3000006840F01000294914390860084600680D
:102E400000F01000009000BF00BF6420019002203D
:102E5000029000200390032004900520059001A912
:102E60001F48FEF7B3FC34E01E492068884230D189
:102E700000BF002000901948006840F480101749F6
:102E800008600846006800F48010009000BF00BF92
:102E900000BF0020009011481438006840F0200066
:102EA0000E49143908600846006800F020000090C0
:102EB00000BF00BF4FF4607001900220029000201C
:102EC0000390032004900520059001A90648FEF711
:102ED0007DFC06B010BD00000034014044380240C3
:102EE0000010024000500140001402402DE9F84F4C
:102EF0000446884616461D464FF0000A00BF94F867
:102F00005000012802D10220BDE8F88F012084F88A
:102F1000500000BFFEF778FD0746B14694F8510017
:102F2000012802D04FF0020AA7E0B8F1000F00D04C
:102F300016B94FF0010AA0E0032084F851000020E8
:102F40006065C4F83080A686E686A063A087E08727
:102F500060642064A068B0F5004F05D12068006867
:102F600040F48040216808602068006800F040005C
:102F7000402805D02068006840F0400021680860C3
:102F8000E068B0F5006F2FD1606810B1B9F1010FA2
:102F900009D1206B00882168C860206B801C2063E9
:102FA000E08E401EE0861BE02068806800F0020092
:102FB00002280AD1206B00882168C860206B801C21
:102FC0002063E08E401EE0860AE0FEF71DFDC01B78
:102FD000A84201D3681C00B915B94FF0030A4CE0B0
:102FE000E08E0028E0D12EE0606810B1B9F1010F49
:102FF00009D1206B007821680873206B401C206386
:10300000E08E401EE0861BE02068806800F0020031
:1030100002280AD1206B007821680873206B401CBD
:103020002063E08E401EE0860AE0FEF7EDFCC01B48
:10303000A84201D3681C00B915B94FF0030A1CE07F
:10304000E08E0028E0D13A462946204603F0ECF80D
:1030500008B120206065A06850B900BF0020009032
:103060002068C068009020688068009000BF00BFA2
:10307000606D08B14FF0010A00BF012084F85100D3
:1030800000BF002084F8500000BF50463CE72DE907
:10309000FF5F0446884691461D460E9E0120029021
:1030A0000020019000BF94F85000012803D10220B5
:1030B00004B0BDE8F09F012084F8500000BFFEF787
:1030C000A3FC074694F851B060680390AA46BBF190
:1030D000010F0BD00398B0F5827F04D1A06810B91E
:1030E000BBF1040F02D002200190DBE0B8F1000F29
:1030F00003D0B9F1000F00D015B901200190D1E043
:1031000094F85100042802D0052084F851000020D2
:103110006065C4F83890E587A587C4F83080E586F7
:10312000A586206460642068006800F040004028A4
:1031300005D02068006840F0400021680860E06821
:10314000B0F5006F4AD1606810B1BAF1010F09D132
:10315000206B00882168C860206B801C2063E08E93
:10316000401EE08633E02068806800F002000228FC
:1031700010D1E08E70B1029801280BD1206B00882D
:103180002168C860206B801C2063E08E401EE086B2
:10319000002002902068806800F0010068B1E08F94
:1031A00058B12068C068A16B0880A06B801CA06328
:1031B000E08F401EE08701200290FEF725FCC01B37
:1031C000B04204D3701C10B1032001906AE0E08E7D
:1031D0000028C8D1E08F0028C5D14AE0606810B14E
:1031E000BAF1010F09D1206B007821680873206BB8
:1031F000401C2063E08E401EE08634E0206880683A
:1032000000F00200022810D1E08E70B1029801286F
:103210000BD1206B007821680873206B401C206361
:10322000E08E401EE086002002902068806800F05A
:10323000010068B1E08F58B12068C068A16B0870C8
:10324000A06B401CA063E08F401EE087012002902D
:10325000FEF7DAFBC01BB04201D3701C00B916B9EF
:10326000032001901EE0E08E0028C7D1E08F0028E7
:10327000C4D13A463146204602F0D6FF20B10120A3
:103280000190202060650DE0A06850B900BF0020CB
:1032900000902068C068009020688068009000BF9F
:1032A00000BF00BF012084F8510000BF002084F857
:1032B000500000BF0198FBE67047704710B5044608
:1032C0000CB9012010BD94F83D0028B9002084F805
:1032D0003C00204600F00CF8022084F83D00211D3F
:1032E000206803F0E5FE012084F83D000020E9E7B6
:1032F000704701460868C06840F001000B68D8605C
:103300000868806800F00702062A05D0086800688F
:1033100040F001000B68186000207047704710B53E
:10332000044620680069C0F34000D8B12068C06836
:10333000C0F34000B0B16FF00200216808610120C5
:1033400020772068806900F0030018B12046FFF75D
:10335000E5FF05E0204600F0ADF8204600F0ABF8B0
:103360000020207720680069C0F38000D8B1206871
:10337000C068C0F38000B0B16FF00400216808613C
:10338000022020772068806900F4407018B1204640
:10339000FFF7C4FF05E0204600F08CF8204600F05F
:1033A0008AF80020207720680069C0F3C000D8B1F7
:1033B0002068C068C0F3C000B0B16FF00800216899
:1033C0000861042020772068C06900F0030018B16C
:1033D0002046FFF7A3FF05E0204600F06BF82046EB
:1033E00000F069F80020207720680069C0F3001021
:1033F000D8B12068C068C0F30010B0B16FF0100001
:1034000021680861082020772068C06900F44070B6
:1034100018B12046FFF782FF05E0204600F04AF889
:10342000204600F048F8002020772068006900F06E
:10343000010058B12068C06800F0010030B16FF0A1
:10344000010021680861204600F036F82068006914
:10345000C0F3C01058B12068C068C0F3C01030B1CC
:103460006FF08000216808612046FFF725FF206883
:103470000069C0F3801058B12068C068C0F38010A4
:1034800030B16FF0400021680861204600F020F85C
:1034900020680069C0F3401058B12068C068C0F3CC
:1034A000401030B16FF02000216808612046FFF71E
:1034B00004FF10BD7047704710B5044603492068EB
:1034C000884201D1FEF788FD10BD000000000140D8
:1034D000704770472DE9F04704462068056820686A
:1034E000C668206847694FF00008C14605F00F081C
:1034F000B8F1000F0AD105F0200038B106F0200025
:1035000020B1204603F000FFBDE8F087B8F1000FBE
:1035100072D007F0010018B906F4907000286BD043
:1035200005F0010030B106F4807018B1E06B40F096
:103530000100E06305F0040030B107F0010018B1AC
:10354000E06B40F00200E06305F0020030B107F0EC
:10355000010018B1E06B40F00400E06305F00800E2
:1035600048B106F0200010B907F0010018B1E06B77
:1035700040F00800E063E06B70B305F0200028B174
:1035800006F0200010B1204603F0BEFE206840691E
:10359000C0F38019E06B00F0080010B9B9F1000F1A
:1035A00023D0204603F086FE2068406900F04000EA
:1035B000402816D12068406920F040002168486109
:1035C000606B50B11748616B0865606BFDF7BDFE1D
:1035D00010B1606B016D88470CE02046FFF779FF62
:1035E00008E02046FFF775FF04E02046FFF771FF73
:1035F0000020E06388E7FFE705F0800030B106F0C7
:10360000800018B1204604F0C7F87DE705F04000BF
:1036100030B106F0400018B1204603F05BFE73E7BE
:1036200000BF71E7B971000810B504460CB901205C
:1036300010BDA06900B100E000BF94F8390028B9BE
:10364000002084F83800204600F028F8242084F870
:1036500039002068C06820F400502168C860204606
:1036600003F0A6FE2068006920F4904021680861FC
:103670002068406920F02A00216848612068C068FD
:1036800040F400502168C8600020E063202084F8E6
:10369000390084F83A000020CAE7000010B586B06F
:1036A0000446142101A8FCF747FEF9492068884226
:1036B00075D100BF00200090F648006840F400205B
:1036C000F44908600846006800F40020009000BF3C
:1036D00000BF00BF00200090EE481038006840F0A6
:1036E0000400EC49103908600846006800F0040046
:1036F000009000BF00BF4FF4406001900220029094
:1037000001200390032004900820059001A9E248BD
:10371000FEF75CF8E148E249086040054860002196
:10372000DF488160C1604FF4806101610021416127
:103730008161C16101624162FDF740FF08B1FDF79F
:1037400084FD00BFD6486063846300BFD348303037
:10375000D44908604FF0006048604021D148816042
:103760000021C1604FF480610161002141618161EC
:10377000C16101624162FDF721FF08B1FDF765FDFE
:1037800000BFC8482063846300BF002205213420A5
:10379000FEF7D2FC3420FEF7BFFC12E2FFE7C2497D
:1037A0002068884239D100BF00200090B9480068E5
:1037B00040F08040B74908600846006800F080404B
:1037C000009000BF00BF00BF00200090B14810383B
:1037D000006840F01000AF491039086008460068E2
:1037E00000F01000009000BF00BF4FF4C0700190C7
:1037F00002200290012003900320049008200590ED
:1038000001A9AA48FDF7E2FF002209215220FEF794
:1038100093FC5220FEF780FCD3E1A5492068884242
:1038200038D100BF002000909A48006840F0004066
:10383000984908600846006800F00040009000BF0A
:1038400000BF00BF0020009092481038006840F090
:1038500010009049103908600846006800F0100018
:10386000009000BF00BF03200190022002900120C1
:103870000390032004900820059001A98B48FDF7D0
:10388000A5FF00220D215320FEF756FC5320FEF722
:1038900043FC96E18749206888427CD100BF002024
:1038A00000907C48006840F400307A49086008467F
:1038B000006800F40030009000BF00BF00BF00208F
:1038C000009074481038006840F0080071491039C1
:1038D00008600846006800F00800009000BF00BFC4
:1038E00060200190022002900020039003200490A9
:1038F0000720059001A97048FDF768FF6748483028
:103900006E4908604FF00060486000216B4881609C
:10391000C1604FF480610161002141618161C16139
:103920004FF48031016200214162FDF747FE08B18A
:10393000FDF78BFC00BF61486063846300BF57489C
:1039400060305F4908604FF00060486040215C488B
:1039500081600021C1604FF48061016100214161FB
:103960008161C1614FF48031016200214162FDF744
:1039700025FE08B1FDF769FC00BF51482063846350
:1039800000BF002205212620FEF7D6FB2620FEF7E9
:10399000C3FB16E1FFE74B492068884276D100BFA0
:1039A000002000903B48006840F4802039490860BE
:1039B0000846006800F48020009000BF00BF00BFF0
:1039C0000020009033481038006840F00200314970
:1039D000103908600846006800F00200009000BF3F
:1039E00000BF4FF44060019002200290002003903D
:1039F000032004900720059001A93348FDF7E6FE57
:103A000026481830314908604FF000604860402176
:103A10002E4881600021C1604FF480610161002166
:103A200041618161C16101624162FDF7C7FD08B179
:103A3000FDF70BFC00BF25482063846300BF1748D7
:103A40001838234908604FF0006048600021204882
:103A50008160C1604FF48061016100214161816139
:103A6000C16101624162FDF7A9FD08B1FDF7EDFBFF
:103A700000BF17486063846300BF00220521272030
:103A8000FEF75AFB2720FEF747FB9AE022E00000F2
:103A9000004C0040403802400008024040600240B4
:103AA00038040020980400200078004000100240F4
:103AB000007C004000440040000C0240F80400205C
:103AC000580500200048004000040240B8050020CE
:103AD000180600203C492068884272D100BF0020AF
:103AE00000903A48006840F02000384908600846D5
:103AF000006800F02000009000BF00BF00BF002061
:103B0000009032481438006840F004002F491439FE
:103B100008600846006800F00400009000BF00BF85
:103B2000C020019002200290002003900320049006
:103B30000820059001A92648FDF748FE254826499A
:103B4000086080054860002123488160C1604FF40F
:103B500080610161002141618161C1610162416255
:103B6000FDF72CFD08B1FDF770FB00BF1A4860633C
:103B7000846300BF17487830184908604FF0206010
:103B800048604021154881600021C1604FF4806188
:103B90000161002141618161C16101624162FDF702
:103BA0000DFD08B1FDF751FB00BF0C482063846395
:103BB00000BF002206214720FEF7BEFA4720FEF78D
:103BC000ABFA06B010BD00000014014044380240BA
:103BD000000802402864024078060020D806002031
:103BE00077B581B00446154694F83A00202850D1A4
:103BF000029800B115B9012004B070BD00BF94F85F
:103C00003800012801D10220F6E7012084F83800AD
:103C100000BF0298A062A5850020E063222084F8FE
:103C20003A001D48616BC8631C48616B08641C48FE
:103C3000616BC8640020616B086502AE326823685E
:103C4000191D2B46606BFDF72FFD00BF0020009073
:103C500020680068009020684068009000BF00BFA6
:103C600000BF002084F8380000BF2068C06840F41E
:103C700080702168C8602068406940F001002168B8
:103C800048612068406940F0400021684861002098
:103C9000B2E70220B0E700001D720008637200085E
:103CA000CD71000870477047F7B50446154694F883
:103CB000390020283DD1019800B10DB90120FEBD89
:103CC00000BF94F83800012801D10220F7E7012055
:103CD00084F8380000BF01982062A584E5840020A4
:103CE000E063212084F839001348216BC86313482E
:103CF000216B08641248216BC8640020216B0865A1
:103D000001AE23681A1D31682B46206BFDF7CCFCF1
:103D10006FF040002168086000BF002084F8380080
:103D200000BF2068406940F08000216848610020A1
:103D3000C5E70220C3E7000071720008A7720008FF
:103D4000CD71000810B504460548844207D10548E6
:103D5000006820B100210348006808F0CDFD10BDC7
:103D6000F803002008010020704700BFFEE70000B4
:103D700010B50248FDF79EFE10BD00009401002022
:103D800010B50248FDF700FF10BD000094010020AF
:103D9000C16AB1F52A0F02D10121C16205E0C16AF1
:103DA000B1F12A4F01D10821C162704770B50546B3
:103DB000AC6B94F83D60606B10B10020616BC86320
:103DC000A06B10B10020A16BC8632068006820F4CC
:103DD00080602168086000206085606B10B1002061
:103DE000616B0865A06B10B10020A16B08652068AD
:103DF000006820F001002168086094F83D00602808
:103E00000AD1202084F83D00002084F83E00206480
:103E10002046FDF74DFE1EE006F02800282811D1AF
:103E20002068006840F00100216808602068006890
:103E300040F480602168086000202063282084F816
:103E40003D0005E0202084F83D00002084F83E007D
:103E50002046FDF77BFF70BD70B5044694F83D60C9
:103E600094F83E00102807D1222E05D12068006862
:103E700020F400602168086006F02800282805D199
:103E800000202063282084F83D000FE0206840686F
:103E900000F40060B0F5006F04D0602E02D0202046
:103EA00084F83D000020206384F83E0020684068CC
:103EB00000F40060B0F5006F40D12068406820F445
:103EC000006021684860606B90F83500012814D0CC
:103ED0004848616B0865606BFDF737FA00285BD0D6
:103EE0002068006820F0010021680860202084F824
:103EF0003D00606B016D88474EE03E48A16B086550
:103F0000A06BFDF722FA002846D020684069C0F374
:103F1000801030B120680069616A0870606A401CD6
:103F200060622068006820F001002168086020209D
:103F300084F83D00A06B016D88472DE094F83D00AA
:103F400060281AD1202084F83D00002020642068D9
:103F50004069C0F3801030B120680069616A087060
:103F6000606A401C60622068006820F001002168DF
:103F700008602046FDF79CFD0EE020684069C0F314
:103F8000801030B120680069616A0870606A401C66
:103F900060622046FDF7DAFE256C05F0010058B995
:103FA00005F00200022807D005F00400042803D021
:103FB00005F00800082805D12068406820F4E0607A
:103FC0002168486094F83D60206C00F004000428EB
:103FD0000ED1282E0CD10848E0620020206320205A
:103FE00084F83D00002084F83E002046FDF798FF4D
:103FF00070BD0000AD3D00080000FFFF70B5044635
:10400000E56A608D042810D12068406820F4806043
:104010002168486020680069616A0870606A401C15
:104020006062608D401E60857AE0608D03281AD141
:104030002068406820F4806021684860042D07D023
:10404000022D05D02068006820F480602168086097
:1040500020680069616A0870606A401C6062608D57
:10406000401E60855CE0608D02284FD1012D01D09B
:10407000102D06D12068006820F480602168086057
:1040800012E0042D01D0022D06D12068006840F412
:1040900080602168086007E0102D05D02068006866
:1040A00040F400702168086020680069616A087047
:1040B000606A401C6062608D401E608520680069F7
:1040C000616A0870606A401C6062608D401E608595
:1040D0002068406820F4407021684860202084F8FF
:1040E0003D0094F83E00402807D1002084F83E00AF
:1040F00020632046FDF717FF12E0002084F83E0001
:10410000122020632046FDF70CFF09E020680069BB
:10411000616A0870606A401C6062608D401E608544
:1041200070BD70B5044694F83D0022284AD1658DD3
:10413000032D13D920680069616A0870606A401C09
:104140006062608D401E6085608D032839D12068D3
:10415000406820F480602168486032E0E06A02280C
:104160002FD0012D00D01DBB2068006820F4806096
:10417000216808602068406820F4E0602168486099
:1041800020680069616A0870606A401C6062608D26
:10419000401E6085202084F83D0094F83E004028B1
:1041A00007D1002084F83E0020632046FDF7BBFEC7
:1041B00007E0002084F83E00122020632046FDF72F
:1041C000B0FE00BF70BD70B50446E56A94F83D00CE
:1041D000212848D1608D50B1606A0078216808615B
:1041E000606A401C6062608D401E608542E0082D60
:1041F00016D0202D14D015F5803F11D020684068CE
:1042000020F4E0602168486011202063002084F8D9
:104210003E00202084F83D002046FDF783FE29E083
:104220002068406820F4E0602168486020680068E9
:1042300040F400702168086000202063202084F88A
:104240003D0094F83E00402806D1002084F83E004E
:104250002046FDF769FE0DE0002084F83E00204670
:10426000FDF760FE06E094F83E00402802D12046AB
:1042700000F005FA70BD2DE9F041044694F83D5078
:1042800094F83E70E66A208DB0BB212D3CD1082EFB
:1042900016D0202E14D016F5803F11D0206840682B
:1042A00020F4E0602168486011202063002084F839
:1042B0003E00202084F83D002046FDF733FE44E018
:1042C0002068406820F4E060216848602068006849
:1042D00040F400702168086000202063202084F8EA
:1042E0003D0094F83E00402807D1002084F83E00AD
:1042F0002046FDF719FE28E006E0002084F83E0085
:104300002046FDF70FFE20E0212D03D0402F1CD1C9
:10431000222D1AD1608D30B92068406820F4806069
:104320002168486011E094F83E00402803D12046FF
:1043300000F0A5F909E0606A007821680861606A08
:10434000401C6062608D401E6085BDE8F081416C5C
:10435000C9B202681161416B09B9816B59B1416BF6
:10436000C96B11B9816BC96B29B10168496841F406
:10437000006102685160704738B590F83E20C16A0C
:10438000036B90F83D40222C73D1046D64B9402A30
:104390000AD100BF00240094046864690094046892
:1043A000A469009400BF1AE1046DC4B90469B4F5AE
:1043B000404F14D100BF0024009404686469009445
:1043C0000468A469009400BF00BF0468246844F432
:1043D000807405682C60046D641C0465FFE0448DE6
:1043E0008CB900BF002400940468646900940468D8
:1043F000A469009400BF00BF0468246844F40074FA
:1044000005682C60DDE0448D012C72D111F5803FF0
:1044100030D10468246824F4806405682C60046842
:10442000646804F40064B4F5006F10D10468246873
:1044300024F4806405682C6000BF002400940468A4
:10444000646900940468A469009400BFB9E000BFE7
:10445000002400940468646900940468A4690094CA
:1044600000BF00BF0468246844F4007405682C6031
:10447000A7E0A9E0082923D0202921D0122B01D1BF
:1044800001291DD104290AD0022908D0102906D0FB
:104490000468246824F4806405682C6005E00468DE
:1044A000246844F4806405682C6000BF00240094F4
:1044B0000468646900940468A469009400BF80E003
:1044C0000468246824F4806405682C6000BF00241C
:1044D00000940468646900940468A469009400BFAF
:1044E00000BF0468246844F4007405682C6068E028
:1044F000FFE7448D022C3BD1042910D002290ED0B5
:1045000010290CD00468246824F4806405682C60A9
:104510000468246844F4006405682C6005E00468BD
:10452000246844F4806405682C600468646804F4BA
:104530000064B4F5006F10D111F5803F07D0012958
:1045400005D0082903D0102901D0202905D10468FD
:10455000646844F4805405686C6000BF00240094D3
:104560000468646900940468A469009400BF28E0AA
:104570000468246844F4806405682C6004686468F6
:1045800004F40064B4F5006F10D111F5803F07D03A
:10459000012905D0082903D0102901D0202905D1EF
:1045A0000468646844F4805405686C6000BF0024AB
:1045B00000940468646900940468A469009400BFCE
:1045C00000BF002404650AE000BF002400940468D2
:1045D000646900940468A469009400BF00BF38BDFA
:1045E00090F83E1040290ED1016D29B9416C01F0BF
:1045F000FE010268116141E0416CC9B241F0010164
:10460000026811613AE00169B1F5804F20D190F85C
:104610003D10212905D1416C01F0FE0102681161B4
:1046200005E0416CC9B241F0010102681161416BC2
:1046300011B1416BC96B21B9816BF9B1816BC96B48
:10464000E1B10168496841F400610268516015E018
:10465000016D41B9416C01F44071F02242EAE1116F
:10466000026811610AE0016D012907D1416C01F472
:104670004071F12242EAE111026811617047016D57
:1046800099B9C16C012907D1816CC9B20268116165
:10469000016D891C01652FE0816CC1F3072102685F
:1046A0001161016D491C016526E0016D012907D1E9
:1046B000816CC9B202681161016D491C01651BE082
:1046C000016D022918D190F83D10222906D1016808
:1046D000096841F48071026811600DE090F83D10A6
:1046E000212909D1416A097802681161416A491C8E
:1046F0004162418D491E41857047418D49B1016834
:104700000969426A1170416A491C4162418D491E22
:104710004185704770B5044694F83D50608DD8B11E
:1047200020680069616A0870606A401C6062608D80
:10473000401E6085608D78B92A2D0DD120684068B3
:1047400020F480602168486022202063282084F8BB
:104750003D002046FDF73EFC70BD418D49B1416AE8
:10476000097802681161416A491C4162418D491E04
:104770004185704770B5044694F83D50608DD8B1BE
:10478000606A007821680861606A401C6062608D20
:10479000401E6085608D78B9292D0DD12068406854
:1047A00020F480602168486021202063282084F85C
:1047B0003D002046FDF70FFC70BD2DE9F041044699
:1047C0000D46002794F83D0000F0280028281CD151
:1047D0002068406820F4806021684860C5F380004C
:1047E00000B90127C5F3C01010B9A08986B201E055
:1047F000208B86B200BF002084F83C0000BF324608
:1048000039462046FDF755F908E06FF002002168AF
:10481000486100BF002084F83C0000BFBDE8F08183
:1048200070B5044694F83D50E66A082E01D0202E5B
:104830001FD1282D1DD12148E0622068406820F456
:10484000E060216848606FF48060216848612068FA
:10485000006820F480602168086000202063202028
:1048600084F83D00002084F83E002046FDF758FB08
:1048700023E0212D1DD11148E0622120206320205A
:1048800084F83D00002084F83E002068406820F451
:10489000E060216848606FF48060216848612068AA
:1048A000006820F48060216808602046FDF793FBD3
:1048B00003E06FF480602168486170BD0000FFFF75
:1048C00038B5044694F83D502068406820F4E06014
:1048D0002168486000BF0020009020684069009077
:1048E0002068006840F001002168086000BF00BF38
:1048F0002068006820F480602168086020684068B3
:1049000000F40060B0F5006F42D1222D01D02A2DB5
:104910001FD1A06B006840686085608D18B1206C65
:1049200040F0040020642068406820F400602168A2
:104930004860A06BFCF71DFD012829D04148A16B00
:104940000865A06BFCF701FD10B3A06B016D8847F3
:104950001EE0606B006840686085608D18B1206C57
:1049600040F0040020642068406820F40060216862
:104970004860606BFCF7FDFC012809D03148616B91
:104980000865606BFCF7E1FC10B1606B016D884756
:10499000608D18B320684069C0F3800048B120687A
:1049A0000069616A0870606A401C6062608D401E28
:1049B000608520684069C0F3801048B120680069B4
:1049C000616A0870606A401C6062608D401E60858C
:1049D000608D18B1206C40F004002064206C18B188
:1049E0002046FFF739FA2BE02A2D07D1002020635B
:1049F000282084F83D002046FDF7ECFA94F83D00AD
:104A000028280DD11048E06200202063202084F87F
:104A10003D00002084F83E002046FDF781FA0FE0BB
:104A2000206B222801D0222D0AD1002020632020D3
:104A300084F83D00002084F83E002046FDF7CAFAC5
:104A400038BD0000AD3D00080000FFFF10B505486F
:104A5000054908600846FCF7F9FB08B1FCF7F5FBCF
:104A600010BD0000003002400000002008B500BF6B
:104A7000002000902E48006840F480002C49086017
:104A80000846006800F48000009000BF00BF00BF2F
:104A9000002000900846006840F4001008600846B6
:104AA000006800F40010009000BF00BF0022052144
:104AB0000C20FDF741FB0C20FDF72EFB002203210B
:104AC0000D20FDF739FB0D20FDF726FB0022032109
:104AD0000E20FDF731FB0E20FDF71EFB0022052105
:104AE0000F20FDF729FB0F20FDF716FB0022052103
:104AF0001020FDF721FB1020FDF70EFB0022052101
:104B00001120FDF719FB1120FDF706FB00220521FE
:104B10003920FDF711FB3920FDF7FEFA00220521AF
:104B20004520FDF709FB4520FDF7F6FA08BD00001A
:104B30003038024010B5194A0021194805F0DEF955
:104B400018490860184A0021184805F0D7F9184993
:104B50000860184A0021184805F0D0F91749086084
:104B6000174A0021174805F0C9F917490860174A84
:104B70000021174805F0C2F916490860164A0021BD
:104B8000164805F0BBF916490860164A0021164878
:104B900005F0B4F91549086010BD000054DB0008A9
:104BA0004D6F00080800002078DB000865B500089C
:104BB0000C0000209CDB000819BB0008100000203E
:104BC000C0DB0008ADBA000814000020E4DB0008D8
:104BD0006DB900081800002008DC000825B800089E
:104BE0001C0000202CDC0008CDB8000820000020AC
:104BF00000B587B0142102A8FBF79EFB00BF002080
:104C00000190FE48006840F01000FC49086008462A
:104C1000006800F01000019000BF00BF00BF00203E
:104C200001900846006840F48070086008460068FB
:104C300000F48070019000BF00BF00BF0020019011
:104C40000846006840F0040008600846006800F06C
:104C50000400019000BF00BF00BF00200190084683
:104C6000006840F0200008600846006800F020005E
:104C7000019000BF00BF00BF0020019008460068FF
:104C800040F0800008600846006800F08000019055
:104C900000BF00BF00BF002001900846006840F040
:104CA000010008600846006800F00100019000BFA4
:104CB00000BF00BF002001900846006840F00200DD
:104CC00008600846006800F00200019000BF00BFC5
:104CD00000BF002001900846006840F040000860D6
:104CE0000846006800F04000019000BF00BF00BF10
:104CF000002001900846006840F00800086008465F
:104D0000006800F00800019000BF00BF01224FF6CC
:104D10001861BB48FCF771FE01224721B948FCF736
:104D20006CFE00223021B748FCF767FE01220C21FF
:104D3000B548FCF762FE01221146B448FCF75DFE5F
:104D400001224EF6CC71B248FCF757FE01224FF219
:104D50005B21B048FCF751FE01224FF61871AE48B6
:104D6000FCF74BFE002248F2FC11AC48FCF745FE74
:104D70000122F721AA48FCF740FE01224FF4C0614E
:104D8000A648FCF73AFE4FF6184002900120039027
:104D900004900320059002A99948FCF717FD40F6FE
:104DA00008500290002003900120049002A99C4822
:104DB000FCF70CFD43F233300290032003900020F7
:104DC000049002A99048FCF701FD4FF40070029096
:104DD000944803900020049002A99148FCF7F6FC47
:104DE000472002900120039004900320059002A91F
:104DF0008448FCF7EBFC082002908A4803900020CE
:104E0000049002A97F48FCF7E1FC302002900120C9
:104E1000039000200490059002A97A48FCF7D6FC84
:104E20004FF480600290002003900120049002A9BA
:104E30007448FCF7CBFC0C200290012003900490F6
:104E40000320059002A97048FCF7C0FC01200290E5
:104E500003900490059002A96C48FCF7B7FC49F652
:104E6000FE700290032003900020049002A967487E
:104E7000FCF7ACFC0C20029001200390049002206F
:104E8000059002A96248FCF7A1FC032002900120D2
:104E900003900490059002A95E48FCF797FC4FF43C
:104EA00082700290032003900020049002A95948C8
:104EB000FCF78CFC4FF47840029003200390002014
:104EC000049002A94F48FCF781FC47F603000290CA
:104ED000032003900020049002A95048FCF776FCC0
:104EE0004FF40070029001200390002004900320F2
:104EF000059002A94248FCF769FC4EF6C07002908A
:104F00000120039004900320059002A94048FCF77B
:104F10005DFC4FF480500290032003900020049029
:104F200002A93B48FCF752FC4FF47040029011205C
:104F30000390002004900220059002A93548FCF758
:104F400045FC4FF618700290112003900020049049
:104F50000220059002A93048FCF738FC4FF4FE709F
:104F600002900120039004900320059002A92B4891
:104F7000FCF72CFC072002900120039004900320F2
:104F8000059002A92648FCF721FC87200290032007
:104F900003900020049002A91F48FCF717FC4FF46F
:104FA000C060029011200390002004900220059020
:104FB00002A91A48FCF70AFC4FF4004002900120B5
:104FC000039004900220059002A91448FCF7FEFB10
:104FD000582002900120039004900220059002A91D
:104FE0000C48FCF7F3FBA020029000200390012066
:104FF000049002A90748FCF7E9FB15E030380240AD
:10500000001002400014024000080240000002406C
:10501000001C024000040240000C02400018024044
:1050200000200240000011104FF400700290012097
:10503000039004900320059002A91048FCF7C6FBDA
:10504000F02002901120039000200490032005908E
:1050500002A90B48FCF7BAFB002206210920FDF744
:105060006BF80920FDF758F8002205211720FDF7FD
:1050700063F81720FDF750F807B000BD00040240A8
:105080000020024010B512481249086012484860DA
:10509000002110488160C1604FF48041016100210E
:1050A00041618161C1610162FCF752FE08B1FCF708
:1050B000CCF800210748FCF7ADFC08B1FCF7C5F8B7
:1050C00000210448FCF7CCFC08B1FCF7BEF810BD89
:1050D0000058004094010020A086010010B50A4845
:1050E0000A490860002048607F2108488160FF214C
:1050F000C1600021016141618161FDF79DFD08B141
:10510000FCF7A3F810BD000000280040E8010020D3
:1051100010B50E480E4908604FF4827048600021B7
:105120000B488160C160016141614FF40071816190
:105130000821C16100210162416281620A21C162CC
:10514000FDF70FFE08B1FCF780F810BD00340140F8
:105150000802002010B50E480E4908604FF4827016
:10516000486000210B488160C160016141614FF4DA
:10517000007181610821C161002101624162816287
:105180000A21C162FDF7EDFD08B1FCF75EF810BD24
:10519000005001406002002010B50B480B49086028
:1051A0004FF4E1304860002108488160C16001612E
:1051B0000C21416100218161C161FEF735FA08B11E
:1051C000FCF743F810BD0000004C0040B80200207E
:1051D00010B50B480B4908604FF4E13048600021DE
:1051E00008488160C16001610C2141610021816139
:1051F000C161FEF719FA08B1FCF727F810BD0000ED
:1052000000780040F802002010B50B480B490860F8
:105210004FF4E1304860002108488160C1600161BD
:105220000C21416100218161C161FEF7FDF908B1E6
:10523000FCF70BF810BD0000007C00403803002094
:1052400010B50B480B4908604FF4E130486000216D
:1052500008488160C16001610C21416100218161C8
:10526000C161FEF7E1F908B1FBF7EFFF10BD0000E7
:10527000004400407803002010B50B480B4908603B
:105280004FF4E1304860002108488160C16001614D
:105290000C21416100218161C161FEF7C5F908B1AE
:1052A000FBF7D3FF10BD000000480040B80300200A
:1052B00010B50B480B4908604FF4E13048600021FD
:1052C00008488160C16001610C2141610021816158
:1052D000C161FEF7A9F908B1FBF7B7FF10BD0000E7
:1052E00000140140F803002000BFFEE770470000F3
:1052F00010B504460149086B804710BD68DC000802
:1053000010B504460149086B804710BD68DC0008F1
:10531000F8B504460D4616461F460A48416B002064
:10532000884701F01FF9009007489DF800100170B0
:105330000078C0F302100549087008F009F9034924
:10534000C860F8BD68DC0008D5000020D80A00203D
:10535000F8B504460D4616461F460A48416B002024
:10536000884701F0FFF8009007489DF80010017091
:105370000078C0F302100549087408F0E9F8034901
:10538000C861F8BD68DC0008D5000020D80A0020FC
:1053900010B50249086B804710BD000068DC0008AA
:1053A00010B50249086B804710BD000068DC00089A
:1053B00010B50249086B804710BD000068DC00088A
:1053C00010B50249086B804710BD000068DC00087A
:1053D00008B5012220210C48FCF70FFB0B48806820
:1053E000401C0A4988600A48416B0020884701F048
:1053F000B9F8009007489DF8001001700078C0F3DC
:1054000002100249087008BD00200240D80A00209E
:1054100068DC0008D500002008B5012280210C4876
:10542000FCF7EBFA0B488069401C0A4988610A487E
:10543000416B0020884701F095F8009007489DF8DF
:10544000001001700078C0F302100249087408BD12
:1054500000200240D80A002068DC0008D5000020A7
:1054600010B50249086B804710BD000068DC0008D9
:1054700010B50249086B804710BD000068DC0008C9
:1054800070B5044600252068C06800F04000A0B94F
:10549000681E2168C860FCF7B7FA054607E0FCF70C
:1054A000B3FA401BB0F57A7F01D9032070BD2068A4
:1054B000C06800F040000028F1D00020F6E7014667
:1054C0000120704702460AB91F207047002111E0F1
:1054D0000A4850F8310090420AD8084B481C53F84B
:1054E0003000904204D9481C03EBC0000079ECE77F
:1054F000481CC1B21529EBD300BFFEE7D4DC00087D
:1055000010B500F08BFF032807D0052803D006282C
:1055100005D1022010BD0120FCE70320FAE700209E
:10552000F8E703207047000030B58BB004463948D7
:1055300004600068384988420AD100BF37483849BA
:10554000086000BF012208213648FCF756FA13E034
:1055500000BF35483249086000BF012204213148AC
:10556000FCF74BFA012204213048FCF746FA0022EE
:1055700008212E48FCF741FA2D4801F003F80020DD
:1055800001F062FB00F0EEFF0A902A489DF8281017
:1055900001700021084601F0E3F80421162001F013
:1055A00096FB00231A464FF6FF71084601F023F9D7
:1055B00040F6B830002105910691CDE90710012091
:1055C0000C22CDE9010203900490052000901A48B6
:1055D000022300221621C5690120A84701200021CD
:1055E00006910791CDE908100A216423CDE9023024
:1055F000CDE904100C200021CDE900100E48012354
:105600000522022185691846A84700200B49087029
:105610000BB030BDC8000020F80A0020500900205F
:10562000D8000020001C0240140A0020000802409C
:105630009D570008D500002068DC0008C500002048
:10564000F8B506464E48066000F0DBFE04464FF60D
:10565000FF7000F0C8FE04F0010050B14848006837
:1056600038B147480068006818B1454909680868BA
:10567000804704F0020002281BD1FF2269464148FE
:1056800000F02AFF404800F0D3FE3D48006878B1A2
:105690003B480068806858B13B4890F90D3090F95C
:1056A0000E20374800689DF8001087683548B847D5
:1056B00000BF04F0400040280AD13148006838B1EA
:1056C0002F480068006918B12D49096808698047AA
:1056D00004F0800080280CD12948006848B128488F
:1056E0000068806928B1264800688169C4F30020F9
:1056F000884704F40070B0F5007F2AD12048006884
:105700002249884201D1002500E00125204800EB14
:105710000510007806280BD119480068C8B1184850
:1057200000684068A8B1164909684868804710E0D9
:10573000174800EB0510007805280AD110480068CA
:1057400038B10F480068C06818B10D490968C868C9
:10575000804704F00800082801D10948066004F0D9
:10576000200020280AD10648006838B104480068A3
:10577000C06818B102490968C8688047F8BD0000D0
:10578000C80000208C07002078070020F80A0020BD
:10579000D80A002030B50446012030BD012001495F
:1057A00008707047C500002070B50025012000F08A
:1057B000BBF8002001F0E8F9002407E000F0A3FEA8
:1057C00000F00100A0400543601CC4B2202CF5DBB2
:1057D00000F07FFB284670BD10B50446204600F05F
:1057E0004FFF10BD70B504460D4616463246294699
:1057F000204600F04FFF70BD10B5044600F083FE58
:1058000010BD000010B5044600231A464FF6FF7184
:10581000084600F0F0FF00200849087008460078AC
:10582000012804D16FF07F4001F0AEF904E0044993
:105830000968880101F0A8F910BD0000C40000202B
:10584000C000002010B5044600231A464FF6FF7131
:10585000084600F0D0FF002008490870084600788C
:10586000012804D16FF07F4001F0A4F904E004495D
:105870000968880101F09EF910BD0000C4000020F5
:10588000C000002070B505460C4600231A4640F2C1
:105890000121084600F0AFFF00F018FE012804D1F6
:1058A0000948006880F8974003E00748006880F8DE
:1058B000904005480068883001F07EF800222146BB
:1058C000284600F041FF70BDD800002010B5044606
:1058D000204601F0F9F810BD70B505460C46012DC3
:1058E0000BD10F4804700F48006880F897400D48AE
:1058F0000068883001F060F810E00A48006890F80D
:105900008F0001280AD1064804700648006880F814
:10591000904004480068883001F04EF870BD0000E7
:10592000B8000020D800002010B5044614B1012CA6
:1059300007D000BF002001F0AFF800200A494870EE
:1059400010E0012001F0A8F80748407806490978DE
:10595000884206D00448007803494870487800F02F
:1059600005F800BF00BF10BDC600002010B50446FA
:105970000E48047044700120FFF7D6FF012C0AD1B5
:1059800034214FF4E86001F0A3FA442140F2417061
:1059900001F09EFA09E014214FF4E86001F098FA52
:1059A000242140F2417001F093FA10BDC60000209E
:1059B0002DE9F04F2DED0C8B83B081460D4614463A
:1059C0009A46DDE91AB7DDF87480199E9F4921983F
:1059D0000870012F03D19E491C98087002E0FF2037
:1059E0009B490870B9F1000F03D0B9F1010F7DD1C7
:1059F000A9E0002001F03CF900209649096881F8EF
:105A0000B00094480068C0F8B4400B219148006889
:105A100080F8BC102846FFF755FD01468D48006808
:105A200080F8BD1000208B49096881F888004FF686
:105A3000FF7000EAC60187480068A0F88A100421B8
:105A40008448006880F88C1018218248006880F82B
:105A50008D1000217F48006880F88E10012F01D042
:105A6000012100E000217B48006880F88F10784811
:105A700001787848006880F89010B8F1010F05D1DE
:105A8000F2217448006880F8911004E00121714807
:105A9000006880F8911001216E48006880F892102B
:105AA00000F024FA6B49096891F8B01009B101219E
:105AB00000E000210846FFF737FF66480068B03075
:105AC00000F0C6FE63480068883000F075FF62A1F0
:105AD00003C9CDE9010101A801F0D1F840F2FF109E
